{
  "_format": "hh-sol-artifact-1",
  "contractName": "AssetTokenizer",
  "sourceName": "contracts/AssetTokenizer.sol",
  "abi": [
    {
      "inputs": [],
      "stateMutability": "nonpayable",
      "type": "constructor"
    },
    {
      "inputs": [],
      "name": "AccessControlBadConfirmation",
      "type": "error"
    },
    {
      "inputs": [
        {
          "internalType": "address",
          "name": "account",
          "type": "address"
        },
        {
          "internalType": "bytes32",
          "name": "neededRole",
          "type": "bytes32"
        }
      ],
      "name": "AccessControlUnauthorizedAccount",
      "type": "error"
    },
    {
      "inputs": [
        {
          "internalType": "address",
          "name": "target",
          "type": "address"
        }
      ],
      "name": "AddressEmptyCode",
      "type": "error"
    },
    {
      "inputs": [
        {
          "internalType": "address",
          "name": "sender",
          "type": "address"
        },
        {
          "internalType": "uint256",
          "name": "balance",
          "type": "uint256"
        },
        {
          "internalType": "uint256",
          "name": "needed",
          "type": "uint256"
        },
        {
          "internalType": "uint256",
          "name": "tokenId",
          "type": "uint256"
        }
      ],
      "name": "ERC1155InsufficientBalance",
      "type": "error"
    },
    {
      "inputs": [
        {
          "internalType": "address",
          "name": "approver",
          "type": "address"
        }
      ],
      "name": "ERC1155InvalidApprover",
      "type": "error"
    },
    {
      "inputs": [
        {
          "internalType": "uint256",
          "name": "idsLength",
          "type": "uint256"
        },
        {
          "internalType": "uint256",
          "name": "valuesLength",
          "type": "uint256"
        }
      ],
      "name": "ERC1155InvalidArrayLength",
      "type": "error"
    },
    {
      "inputs": [
        {
          "internalType": "address",
          "name": "operator",
          "type": "address"
        }
      ],
      "name": "ERC1155InvalidOperator",
      "type": "error"
    },
    {
      "inputs": [
        {
          "internalType": "address",
          "name": "receiver",
          "type": "address"
        }
      ],
      "name": "ERC1155InvalidReceiver",
      "type": "error"
    },
    {
      "inputs": [
        {
          "internalType": "address",
          "name": "sender",
          "type": "address"
        }
      ],
      "name": "ERC1155InvalidSender",
      "type": "error"
    },
    {
      "inputs": [
        {
          "internalType": "address",
          "name": "operator",
          "type": "address"
        },
        {
          "internalType": "address",
          "name": "owner",
          "type": "address"
        }
      ],
      "name": "ERC1155MissingApprovalForAll",
      "type": "error"
    },
    {
      "inputs": [
        {
          "internalType": "address",
          "name": "implementation",
          "type": "address"
        }
      ],
      "name": "ERC1967InvalidImplementation",
      "type": "error"
    },
    {
      "inputs": [],
      "name": "ERC1967NonPayable",
      "type": "error"
    },
    {
      "inputs": [],
      "name": "FailedCall",
      "type": "error"
    },
    {
      "inputs": [],
      "name": "InvalidInitialization",
      "type": "error"
    },
    {
      "inputs": [],
      "name": "NotInitializing",
      "type": "error"
    },
    {
      "inputs": [],
      "name": "ReentrancyGuardReentrantCall",
      "type": "error"
    },
    {
      "inputs": [
        {
          "internalType": "address",
          "name": "token",
          "type": "address"
        }
      ],
      "name": "SafeERC20FailedOperation",
      "type": "error"
    },
    {
      "inputs": [],
      "name": "UUPSUnauthorizedCallContext",
      "type": "error"
    },
    {
      "inputs": [
        {
          "internalType": "bytes32",
          "name": "slot",
          "type": "bytes32"
        }
      ],
      "name": "UUPSUnsupportedProxiableUUID",
      "type": "error"
    },
    {
      "anonymous": false,
      "inputs": [
        {
          "indexed": true,
          "internalType": "address",
          "name": "account",
          "type": "address"
        },
        {
          "indexed": true,
          "internalType": "address",
          "name": "operator",
          "type": "address"
        },
        {
          "indexed": false,
          "internalType": "bool",
          "name": "approved",
          "type": "bool"
        }
      ],
      "name": "ApprovalForAll",
      "type": "event"
    },
    {
      "anonymous": false,
      "inputs": [
        {
          "indexed": true,
          "internalType": "uint256",
          "name": "tokenId",
          "type": "uint256"
        },
        {
          "indexed": false,
          "internalType": "enum AssetTokenizer.AssetStatus",
          "name": "newStatus",
          "type": "uint8"
        }
      ],
      "name": "AssetStatusChanged",
      "type": "event"
    },
    {
      "anonymous": false,
      "inputs": [
        {
          "indexed": true,
          "internalType": "uint256",
          "name": "tokenId",
          "type": "uint256"
        },
        {
          "indexed": false,
          "internalType": "enum AssetTokenizer.AssetType",
          "name": "assetType",
          "type": "uint8"
        },
        {
          "indexed": true,
          "internalType": "address",
          "name": "issuer",
          "type": "address"
        },
        {
          "indexed": false,
          "internalType": "uint256",
          "name": "totalValue",
          "type": "uint256"
        },
        {
          "indexed": false,
          "internalType": "uint256",
          "name": "totalSupply",
          "type": "uint256"
        }
      ],
      "name": "AssetTokenized",
      "type": "event"
    },
    {
      "anonymous": false,
      "inputs": [
        {
          "indexed": true,
          "internalType": "uint256",
          "name": "tokenId",
          "type": "uint256"
        },
        {
          "indexed": true,
          "internalType": "address",
          "name": "verifier",
          "type": "address"
        }
      ],
      "name": "AssetVerified",
      "type": "event"
    },
    {
      "anonymous": false,
      "inputs": [
        {
          "indexed": false,
          "internalType": "uint64",
          "name": "version",
          "type": "uint64"
        }
      ],
      "name": "Initialized",
      "type": "event"
    },
    {
      "anonymous": false,
      "inputs": [
        {
          "indexed": true,
          "internalType": "uint256",
          "name": "assetId",
          "type": "uint256"
        },
        {
          "indexed": true,
          "internalType": "uint256",
          "name": "milestoneId",
          "type": "uint256"
        },
        {
          "indexed": false,
          "internalType": "address",
          "name": "verifier",
          "type": "address"
        }
      ],
      "name": "MilestoneCompleted",
      "type": "event"
    },
    {
      "anonymous": false,
      "inputs": [
        {
          "indexed": true,
          "internalType": "uint256",
          "name": "assetId",
          "type": "uint256"
        },
        {
          "indexed": true,
          "internalType": "uint256",
          "name": "milestoneId",
          "type": "uint256"
        },
        {
          "indexed": false,
          "internalType": "uint256",
          "name": "valueToRelease",
          "type": "uint256"
        }
      ],
      "name": "MilestoneCreated",
      "type": "event"
    },
    {
      "anonymous": false,
      "inputs": [
        {
          "indexed": true,
          "internalType": "uint256",
          "name": "tokenId",
          "type": "uint256"
        },
        {
          "indexed": true,
          "internalType": "address",
          "name": "holder",
          "type": "address"
        },
        {
          "indexed": false,
          "internalType": "uint256",
          "name": "amount",
          "type": "uint256"
        }
      ],
      "name": "RewardsClaimed",
      "type": "event"
    },
    {
      "anonymous": false,
      "inputs": [
        {
          "indexed": true,
          "internalType": "bytes32",
          "name": "role",
          "type": "bytes32"
        },
        {
          "indexed": true,
          "internalType": "bytes32",
          "name": "previousAdminRole",
          "type": "bytes32"
        },
        {
          "indexed": true,
          "internalType": "bytes32",
          "name": "newAdminRole",
          "type": "bytes32"
        }
      ],
      "name": "RoleAdminChanged",
      "type": "event"
    },
    {
      "anonymous": false,
      "inputs": [
        {
          "indexed": true,
          "internalType": "bytes32",
          "name": "role",
          "type": "bytes32"
        },
        {
          "indexed": true,
          "internalType": "address",
          "name": "account",
          "type": "address"
        },
        {
          "indexed": true,
          "internalType": "address",
          "name": "sender",
          "type": "address"
        }
      ],
      "name": "RoleGranted",
      "type": "event"
    },
    {
      "anonymous": false,
      "inputs": [
        {
          "indexed": true,
          "internalType": "bytes32",
          "name": "role",
          "type": "bytes32"
        },
        {
          "indexed": true,
          "internalType": "address",
          "name": "account",
          "type": "address"
        },
        {
          "indexed": true,
          "internalType": "address",
          "name": "sender",
          "type": "address"
        }
      ],
      "name": "RoleRevoked",
      "type": "event"
    },
    {
      "anonymous": false,
      "inputs": [
        {
          "indexed": true,
          "internalType": "address",
          "name": "operator",
          "type": "address"
        },
        {
          "indexed": true,
          "internalType": "address",
          "name": "from",
          "type": "address"
        },
        {
          "indexed": true,
          "internalType": "address",
          "name": "to",
          "type": "address"
        },
        {
          "indexed": false,
          "internalType": "uint256[]",
          "name": "ids",
          "type": "uint256[]"
        },
        {
          "indexed": false,
          "internalType": "uint256[]",
          "name": "values",
          "type": "uint256[]"
        }
      ],
      "name": "TransferBatch",
      "type": "event"
    },
    {
      "anonymous": false,
      "inputs": [
        {
          "indexed": true,
          "internalType": "address",
          "name": "operator",
          "type": "address"
        },
        {
          "indexed": true,
          "internalType": "address",
          "name": "from",
          "type": "address"
        },
        {
          "indexed": true,
          "internalType": "address",
          "name": "to",
          "type": "address"
        },
        {
          "indexed": false,
          "internalType": "uint256",
          "name": "id",
          "type": "uint256"
        },
        {
          "indexed": false,
          "internalType": "uint256",
          "name": "value",
          "type": "uint256"
        }
      ],
      "name": "TransferSingle",
      "type": "event"
    },
    {
      "anonymous": false,
      "inputs": [
        {
          "indexed": false,
          "internalType": "string",
          "name": "value",
          "type": "string"
        },
        {
          "indexed": true,
          "internalType": "uint256",
          "name": "id",
          "type": "uint256"
        }
      ],
      "name": "URI",
      "type": "event"
    },
    {
      "anonymous": false,
      "inputs": [
        {
          "indexed": true,
          "internalType": "address",
          "name": "implementation",
          "type": "address"
        }
      ],
      "name": "Upgraded",
      "type": "event"
    },
    {
      "anonymous": false,
      "inputs": [
        {
          "indexed": true,
          "internalType": "uint256",
          "name": "tokenId",
          "type": "uint256"
        },
        {
          "indexed": false,
          "internalType": "uint256",
          "name": "amount",
          "type": "uint256"
        },
        {
          "indexed": false,
          "internalType": "uint256",
          "name": "timestamp",
          "type": "uint256"
        }
      ],
      "name": "ValueDistributed",
      "type": "event"
    },
    {
      "inputs": [],
      "name": "DEFAULT_ADMIN_ROLE",
      "outputs": [
        {
          "internalType": "bytes32",
          "name": "",
          "type": "bytes32"
        }
      ],
      "stateMutability": "view",
      "type": "function"
    },
    {
      "inputs": [],
      "name": "ORACLE_ROLE",
      "outputs": [
        {
          "internalType": "bytes32",
          "name": "",
          "type": "bytes32"
        }
      ],
      "stateMutability": "view",
      "type": "function"
    },
    {
      "inputs": [],
      "name": "TOKENIZER_ROLE",
      "outputs": [
        {
          "internalType": "bytes32",
          "name": "",
          "type": "bytes32"
        }
      ],
      "stateMutability": "view",
      "type": "function"
    },
    {
      "inputs": [],
      "name": "UPGRADER_ROLE",
      "outputs": [
        {
          "internalType": "bytes32",
          "name": "",
          "type": "bytes32"
        }
      ],
      "stateMutability": "view",
      "type": "function"
    },
    {
      "inputs": [],
      "name": "UPGRADE_INTERFACE_VERSION",
      "outputs": [
        {
          "internalType": "string",
          "name": "",
          "type": "string"
        }
      ],
      "stateMutability": "view",
      "type": "function"
    },
    {
      "inputs": [],
      "name": "aiOracle",
      "outputs": [
        {
          "internalType": "address",
          "name": "",
          "type": "address"
        }
      ],
      "stateMutability": "view",
      "type": "function"
    },
    {
      "inputs": [
        {
          "internalType": "address",
          "name": "account",
          "type": "address"
        },
        {
          "internalType": "uint256",
          "name": "id",
          "type": "uint256"
        }
      ],
      "name": "balanceOf",
      "outputs": [
        {
          "internalType": "uint256",
          "name": "",
          "type": "uint256"
        }
      ],
      "stateMutability": "view",
      "type": "function"
    },
    {
      "inputs": [
        {
          "internalType": "address[]",
          "name": "accounts",
          "type": "address[]"
        },
        {
          "internalType": "uint256[]",
          "name": "ids",
          "type": "uint256[]"
        }
      ],
      "name": "balanceOfBatch",
      "outputs": [
        {
          "internalType": "uint256[]",
          "name": "",
          "type": "uint256[]"
        }
      ],
      "stateMutability": "view",
      "type": "function"
    },
    {
      "inputs": [
        {
          "internalType": "uint256",
          "name": "assetId",
          "type": "uint256"
        }
      ],
      "name": "claimRewards",
      "outputs": [],
      "stateMutability": "nonpayable",
      "type": "function"
    },
    {
      "inputs": [
        {
          "internalType": "uint256",
          "name": "",
          "type": "uint256"
        }
      ],
      "name": "claimableRewards",
      "outputs": [
        {
          "internalType": "uint256",
          "name": "",
          "type": "uint256"
        }
      ],
      "stateMutability": "view",
      "type": "function"
    },
    {
      "inputs": [
        {
          "internalType": "uint256",
          "name": "assetId",
          "type": "uint256"
        },
        {
          "internalType": "string",
          "name": "description",
          "type": "string"
        },
        {
          "internalType": "uint256",
          "name": "valueToRelease",
          "type": "uint256"
        },
        {
          "internalType": "uint256",
          "name": "deadline",
          "type": "uint256"
        }
      ],
      "name": "createMilestone",
      "outputs": [],
      "stateMutability": "nonpayable",
      "type": "function"
    },
    {
      "inputs": [],
      "name": "feeCollector",
      "outputs": [
        {
          "internalType": "address",
          "name": "",
          "type": "address"
        }
      ],
      "stateMutability": "view",
      "type": "function"
    },
    {
      "inputs": [
        {
          "internalType": "uint256",
          "name": "assetId",
          "type": "uint256"
        },
        {
          "internalType": "uint256",
          "name": "amount",
          "type": "uint256"
        }
      ],
      "name": "fundAsset",
      "outputs": [],
      "stateMutability": "payable",
      "type": "function"
    },
    {
      "inputs": [
        {
          "internalType": "uint256",
          "name": "assetId",
          "type": "uint256"
        }
      ],
      "name": "getAssetDetails",
      "outputs": [
        {
          "components": [
            {
              "internalType": "uint256",
              "name": "tokenId",
              "type": "uint256"
            },
            {
              "internalType": "enum AssetTokenizer.AssetType",
              "name": "assetType",
              "type": "uint8"
            },
            {
              "internalType": "enum AssetTokenizer.AssetStatus",
              "name": "status",
              "type": "uint8"
            },
            {
              "internalType": "address",
              "name": "issuer",
              "type": "address"
            },
            {
              "internalType": "address",
              "name": "paymentToken",
              "type": "address"
            },
            {
              "internalType": "uint256",
              "name": "totalValue",
              "type": "uint256"
            },
            {
              "internalType": "uint256",
              "name": "totalSupply",
              "type": "uint256"
            },
            {
              "internalType": "uint256",
              "name": "maturityDate",
              "type": "uint256"
            },
            {
              "internalType": "uint256",
              "name": "distributedValue",
              "type": "uint256"
            },
            {
              "internalType": "string",
              "name": "metadataURI",
              "type": "string"
            },
            {
              "internalType": "bytes32",
              "name": "legalHash",
              "type": "bytes32"
            },
            {
              "internalType": "bool",
              "name": "isVerified",
              "type": "bool"
            },
            {
              "internalType": "uint256",
              "name": "milestoneCount",
              "type": "uint256"
            }
          ],
          "internalType": "struct AssetTokenizer.RWAToken",
          "name": "",
          "type": "tuple"
        }
      ],
      "stateMutability": "view",
      "type": "function"
    },
    {
      "inputs": [
        {
          "internalType": "uint256",
          "name": "assetId",
          "type": "uint256"
        },
        {
          "internalType": "address",
          "name": "holder",
          "type": "address"
        }
      ],
      "name": "getClaimableAmount",
      "outputs": [
        {
          "internalType": "uint256",
          "name": "",
          "type": "uint256"
        }
      ],
      "stateMutability": "view",
      "type": "function"
    },
    {
      "inputs": [
        {
          "internalType": "uint256",
          "name": "assetId",
          "type": "uint256"
        },
        {
          "internalType": "uint256",
          "name": "milestoneId",
          "type": "uint256"
        }
      ],
      "name": "getMilestone",
      "outputs": [
        {
          "components": [
            {
              "internalType": "uint256",
              "name": "assetId",
              "type": "uint256"
            },
            {
              "internalType": "uint256",
              "name": "milestoneId",
              "type": "uint256"
            },
            {
              "internalType": "string",
              "name": "description",
              "type": "string"
            },
            {
              "internalType": "uint256",
              "name": "valueToRelease",
              "type": "uint256"
            },
            {
              "internalType": "uint256",
              "name": "deadline",
              "type": "uint256"
            },
            {
              "internalType": "bool",
              "name": "isCompleted",
              "type": "bool"
            },
            {
              "internalType": "bool",
              "name": "isVerified",
              "type": "bool"
            },
            {
              "internalType": "address",
              "name": "verifier",
              "type": "address"
            },
            {
              "internalType": "bytes32",
              "name": "proofHash",
              "type": "bytes32"
            }
          ],
          "internalType": "struct AssetTokenizer.Milestone",
          "name": "",
          "type": "tuple"
        }
      ],
      "stateMutability": "view",
      "type": "function"
    },
    {
      "inputs": [
        {
          "internalType": "bytes32",
          "name": "role",
          "type": "bytes32"
        }
      ],
      "name": "getRoleAdmin",
      "outputs": [
        {
          "internalType": "bytes32",
          "name": "",
          "type": "bytes32"
        }
      ],
      "stateMutability": "view",
      "type": "function"
    },
    {
      "inputs": [
        {
          "internalType": "bytes32",
          "name": "role",
          "type": "bytes32"
        },
        {
          "internalType": "address",
          "name": "account",
          "type": "address"
        }
      ],
      "name": "grantRole",
      "outputs": [],
      "stateMutability": "nonpayable",
      "type": "function"
    },
    {
      "inputs": [
        {
          "internalType": "bytes32",
          "name": "role",
          "type": "bytes32"
        },
        {
          "internalType": "address",
          "name": "account",
          "type": "address"
        }
      ],
      "name": "hasRole",
      "outputs": [
        {
          "internalType": "bool",
          "name": "",
          "type": "bool"
        }
      ],
      "stateMutability": "view",
      "type": "function"
    },
    {
      "inputs": [
        {
          "internalType": "string",
          "name": "_uri",
          "type": "string"
        },
        {
          "internalType": "address",
          "name": "_feeCollector",
          "type": "address"
        },
        {
          "internalType": "uint256",
          "name": "_platformFeeBps",
          "type": "uint256"
        }
      ],
      "name": "initialize",
      "outputs": [],
      "stateMutability": "nonpayable",
      "type": "function"
    },
    {
      "inputs": [
        {
          "internalType": "address",
          "name": "account",
          "type": "address"
        },
        {
          "internalType": "address",
          "name": "operator",
          "type": "address"
        }
      ],
      "name": "isApprovedForAll",
      "outputs": [
        {
          "internalType": "bool",
          "name": "",
          "type": "bool"
        }
      ],
      "stateMutability": "view",
      "type": "function"
    },
    {
      "inputs": [],
      "name": "klerosArbitrator",
      "outputs": [
        {
          "internalType": "address",
          "name": "",
          "type": "address"
        }
      ],
      "stateMutability": "view",
      "type": "function"
    },
    {
      "inputs": [
        {
          "internalType": "uint256",
          "name": "",
          "type": "uint256"
        },
        {
          "internalType": "uint256",
          "name": "",
          "type": "uint256"
        }
      ],
      "name": "milestones",
      "outputs": [
        {
          "internalType": "uint256",
          "name": "assetId",
          "type": "uint256"
        },
        {
          "internalType": "uint256",
          "name": "milestoneId",
          "type": "uint256"
        },
        {
          "internalType": "string",
          "name": "description",
          "type": "string"
        },
        {
          "internalType": "uint256",
          "name": "valueToRelease",
          "type": "uint256"
        },
        {
          "internalType": "uint256",
          "name": "deadline",
          "type": "uint256"
        },
        {
          "internalType": "bool",
          "name": "isCompleted",
          "type": "bool"
        },
        {
          "internalType": "bool",
          "name": "isVerified",
          "type": "bool"
        },
        {
          "internalType": "address",
          "name": "verifier",
          "type": "address"
        },
        {
          "internalType": "bytes32",
          "name": "proofHash",
          "type": "bytes32"
        }
      ],
      "stateMutability": "view",
      "type": "function"
    },
    {
      "inputs": [],
      "name": "nextTokenId",
      "outputs": [
        {
          "internalType": "uint256",
          "name": "",
          "type": "uint256"
        }
      ],
      "stateMutability": "view",
      "type": "function"
    },
    {
      "inputs": [],
      "name": "platformFeeBps",
      "outputs": [
        {
          "internalType": "uint256",
          "name": "",
          "type": "uint256"
        }
      ],
      "stateMutability": "view",
      "type": "function"
    },
    {
      "inputs": [],
      "name": "proxiableUUID",
      "outputs": [
        {
          "internalType": "bytes32",
          "name": "",
          "type": "bytes32"
        }
      ],
      "stateMutability": "view",
      "type": "function"
    },
    {
      "inputs": [
        {
          "internalType": "bytes32",
          "name": "role",
          "type": "bytes32"
        },
        {
          "internalType": "address",
          "name": "callerConfirmation",
          "type": "address"
        }
      ],
      "name": "renounceRole",
      "outputs": [],
      "stateMutability": "nonpayable",
      "type": "function"
    },
    {
      "inputs": [
        {
          "internalType": "bytes32",
          "name": "role",
          "type": "bytes32"
        },
        {
          "internalType": "address",
          "name": "account",
          "type": "address"
        }
      ],
      "name": "revokeRole",
      "outputs": [],
      "stateMutability": "nonpayable",
      "type": "function"
    },
    {
      "inputs": [
        {
          "internalType": "uint256",
          "name": "",
          "type": "uint256"
        }
      ],
      "name": "rwaTokens",
      "outputs": [
        {
          "internalType": "uint256",
          "name": "tokenId",
          "type": "uint256"
        },
        {
          "internalType": "enum AssetTokenizer.AssetType",
          "name": "assetType",
          "type": "uint8"
        },
        {
          "internalType": "enum AssetTokenizer.AssetStatus",
          "name": "status",
          "type": "uint8"
        },
        {
          "internalType": "address",
          "name": "issuer",
          "type": "address"
        },
        {
          "internalType": "address",
          "name": "paymentToken",
          "type": "address"
        },
        {
          "internalType": "uint256",
          "name": "totalValue",
          "type": "uint256"
        },
        {
          "internalType": "uint256",
          "name": "totalSupply",
          "type": "uint256"
        },
        {
          "internalType": "uint256",
          "name": "maturityDate",
          "type": "uint256"
        },
        {
          "internalType": "uint256",
          "name": "distributedValue",
          "type": "uint256"
        },
        {
          "internalType": "string",
          "name": "metadataURI",
          "type": "string"
        },
        {
          "internalType": "bytes32",
          "name": "legalHash",
          "type": "bytes32"
        },
        {
          "internalType": "bool",
          "name": "isVerified",
          "type": "bool"
        },
        {
          "internalType": "uint256",
          "name": "milestoneCount",
          "type": "uint256"
        }
      ],
      "stateMutability": "view",
      "type": "function"
    },
    {
      "inputs": [
        {
          "internalType": "address",
          "name": "from",
          "type": "address"
        },
        {
          "internalType": "address",
          "name": "to",
          "type": "address"
        },
        {
          "internalType": "uint256[]",
          "name": "ids",
          "type": "uint256[]"
        },
        {
          "internalType": "uint256[]",
          "name": "values",
          "type": "uint256[]"
        },
        {
          "internalType": "bytes",
          "name": "data",
          "type": "bytes"
        }
      ],
      "name": "safeBatchTransferFrom",
      "outputs": [],
      "stateMutability": "nonpayable",
      "type": "function"
    },
    {
      "inputs": [
        {
          "internalType": "address",
          "name": "from",
          "type": "address"
        },
        {
          "internalType": "address",
          "name": "to",
          "type": "address"
        },
        {
          "internalType": "uint256",
          "name": "id",
          "type": "uint256"
        },
        {
          "internalType": "uint256",
          "name": "value",
          "type": "uint256"
        },
        {
          "internalType": "bytes",
          "name": "data",
          "type": "bytes"
        }
      ],
      "name": "safeTransferFrom",
      "outputs": [],
      "stateMutability": "nonpayable",
      "type": "function"
    },
    {
      "inputs": [
        {
          "internalType": "address",
          "name": "_oracle",
          "type": "address"
        }
      ],
      "name": "setAIOracle",
      "outputs": [],
      "stateMutability": "nonpayable",
      "type": "function"
    },
    {
      "inputs": [
        {
          "internalType": "address",
          "name": "operator",
          "type": "address"
        },
        {
          "internalType": "bool",
          "name": "approved",
          "type": "bool"
        }
      ],
      "name": "setApprovalForAll",
      "outputs": [],
      "stateMutability": "nonpayable",
      "type": "function"
    },
    {
      "inputs": [
        {
          "internalType": "address",
          "name": "_arbitrator",
          "type": "address"
        }
      ],
      "name": "setKlerosArbitrator",
      "outputs": [],
      "stateMutability": "nonpayable",
      "type": "function"
    },
    {
      "inputs": [
        {
          "internalType": "bytes4",
          "name": "interfaceId",
          "type": "bytes4"
        }
      ],
      "name": "supportsInterface",
      "outputs": [
        {
          "internalType": "bool",
          "name": "",
          "type": "bool"
        }
      ],
      "stateMutability": "view",
      "type": "function"
    },
    {
      "inputs": [
        {
          "internalType": "enum AssetTokenizer.AssetType",
          "name": "assetType",
          "type": "uint8"
        },
        {
          "internalType": "address",
          "name": "paymentToken",
          "type": "address"
        },
        {
          "internalType": "uint256",
          "name": "totalValue",
          "type": "uint256"
        },
        {
          "internalType": "uint256",
          "name": "totalSupply",
          "type": "uint256"
        },
        {
          "internalType": "uint256",
          "name": "maturityDate",
          "type": "uint256"
        },
        {
          "internalType": "string",
          "name": "metadataURI",
          "type": "string"
        },
        {
          "internalType": "bytes32",
          "name": "legalHash",
          "type": "bytes32"
        }
      ],
      "name": "tokenizeAsset",
      "outputs": [
        {
          "internalType": "uint256",
          "name": "tokenId",
          "type": "uint256"
        }
      ],
      "stateMutability": "nonpayable",
      "type": "function"
    },
    {
      "inputs": [
        {
          "internalType": "uint256",
          "name": "assetId",
          "type": "uint256"
        },
        {
          "internalType": "enum AssetTokenizer.AssetStatus",
          "name": "newStatus",
          "type": "uint8"
        }
      ],
      "name": "updateAssetStatus",
      "outputs": [],
      "stateMutability": "nonpayable",
      "type": "function"
    },
    {
      "inputs": [
        {
          "internalType": "address",
          "name": "newImplementation",
          "type": "address"
        },
        {
          "internalType": "bytes",
          "name": "data",
          "type": "bytes"
        }
      ],
      "name": "upgradeToAndCall",
      "outputs": [],
      "stateMutability": "payable",
      "type": "function"
    },
    {
      "inputs": [
        {
          "internalType": "uint256",
          "name": "tokenId",
          "type": "uint256"
        }
      ],
      "name": "uri",
      "outputs": [
        {
          "internalType": "string",
          "name": "",
          "type": "string"
        }
      ],
      "stateMutability": "view",
      "type": "function"
    },
    {
      "inputs": [
        {
          "internalType": "uint256",
          "name": "",
          "type": "uint256"
        },
        {
          "internalType": "address",
          "name": "",
          "type": "address"
        }
      ],
      "name": "userClaims",
      "outputs": [
        {
          "internalType": "uint256",
          "name": "",
          "type": "uint256"
        }
      ],
      "stateMutability": "view",
      "type": "function"
    },
    {
      "inputs": [
        {
          "internalType": "uint256",
          "name": "assetId",
          "type": "uint256"
        }
      ],
      "name": "verifyAsset",
      "outputs": [],
      "stateMutability": "nonpayable",
      "type": "function"
    },
    {
      "inputs": [
        {
          "internalType": "uint256",
          "name": "assetId",
          "type": "uint256"
        },
        {
          "internalType": "uint256",
          "name": "milestoneId",
          "type": "uint256"
        },
        {
          "internalType": "bytes32",
          "name": "proofHash",
          "type": "bytes32"
        }
      ],
      "name": "verifyMilestone",
      "outputs": [],
      "stateMutability": "nonpayable",
      "type": "function"
    }
  ],
  "bytecode": "0x60a08060405234620000f55760017f9b779b17422d0df92223018b32b4d1fa46e071723d6817e2486d003becc55f0055306080527ff0c57e16840df040f15088dc2f81fe391c3923bec73e23a9662efc9c229c6a009081549060ff8260401c16620000e657506001600160401b036002600160401b031982821601620000a0575b604051613bff9081620000fa823960805181818161110901526112330152f35b6001600160401b031990911681179091556040519081527fc7f505b2f371ae2175ee4913f4499e1f2633a7b5936321eed1cdaeb6115181d290602090a15f808062000080565b63f92ee8a960e01b8152600490fd5b5f80fdfe60806040526004361015610011575f80fd5b5f3560e01c8062fdd58e146102b357806301ffc9a7146102ae5780630409efcd146102a957806305ac2c76146102a45780630605a3341461029f57806307e2cea51461029a5780630962ef79146102955780630e89341c146102905780631aa632b31461028b5780631c376c631461028657806322dcd13e14610281578063248a9ca31461027c5780632eb2c2d6146102775780632f2ff15d1461027257806331b221cd1461026d57806336568abe146102685780634554f3cf146102635780634e1273f41461025e5780634f1ef2861461025957806352d1902d14610254578063588ab8761461024f57806359fd285c1461024a5780636b0876eb1461024557806375794a3c1461024057806378c5195e1461023b5780638c5aa9c1146102365780638ed9895c1461023157806391d148541461022c5780639835fc7e146102275780639e2dc50014610222578063a1f24b3d1461021d578063a217fddf14610218578063a22cb46514610213578063a4c1721b1461020e578063ad3cb1cc14610209578063c415b95c14610204578063cbc10e03146101ff578063d547741f146101fa578063e0921f85146101f5578063e985e9c5146101f0578063f242432a146101eb5763f72c0d8b146101e6575f80fd5b6121e1565b612116565b6120e5565b611f89565b611f40565b611dbb565b611d93565b611d3c565b611c7b565b611b33565b611b19565b611a81565b611955565b6118f3565b611899565b6117a7565b6116f7565b6116c9565b6116ad565b611553565b611434565b6112a5565b611221565b6110ca565b611010565b610eef565b610e9e565b610e76565b610e2d565b610bff565b610ac6565b610aa9565b610a2b565b61082c565b6107e7565b610652565b610618565b6105de565b61059b565b6103eb565b610363565b6102fc565b600435906001600160a01b03821682036102ce57565b5f80fd5b602435906001600160a01b03821682036102ce57565b35906001600160a01b03821682036102ce57565b346102ce5760403660031901126102ce57602061034861031a6102b8565b6024355f525f80516020613b4a833981519152835260405f209060018060a01b03165f5260205260405f2090565b54604051908152f35b6001600160e01b03198116036102ce57565b346102ce5760203660031901126102ce57602060043561038281610351565b63ffffffff60e01b16637965db0b60e01b81149081156103a8575b506040519015158152f35b636cdb3d1360e11b8114915081156103da575b81156103c9575b505f61039d565b6301ffc9a760e01b1490505f6103c2565b6303a24d0760e21b811491506103bb565b60403660031901126102ce576004357f7b88cdb5875f46d2a63dbd5b768b4545cb0fa1747a9216bfa1d309acaacf413d610509602435610429612ed5565b600661043d855f52600560205260405f2090565b600181015461046a906104639060101c6001600160a01b03165b6001600160a01b031690565b331461224f565b61047583151561229b565b6002810180549093906001600160a01b0390811682816105895761049b915034146122e7565b6104bc6104b56104ad60015485612347565b612710900490565b809361237d565b9482610524575b5050506104d8865f52600760205260405f2090565b6104e3848254612411565b9055016104f1828254612411565b90556040805191825242602083015290918291820190565b0390a261052260015f80516020613b8a83398151915255565b005b546001600160a01b0316168061056c57505f8080806105649461055461045761045760025460018060a01b031690565b5af161055e61238a565b506123b9565b5f80806104c3565b6002546105849291906001600160a01b031690612f95565b610564565b6105969130903390612f04565b61049b565b346102ce5760203660031901126102ce576105b46102b8565b6105bc612ff4565b600380546001600160a01b0319166001600160a01b0392909216919091179055005b346102ce575f3660031901126102ce5760206040517fe70d28ebd9d7d9a3dd77d46ae2481f301c80806f395b08de31d8e095b1c46cee8152f35b346102ce575f3660031901126102ce5760206040517f68e79a7bf1e0bc45d0a330c573bc367f9cf464fd326078812f301165fbda4ef18152f35b346102ce5760203660031901126102ce5760043561066e612ed5565b610680815f52600560205260405f2090565b906106f86106db6106d06106ac336106978661086f565b9060018060a01b03165f5260205260405f2090565b546106b881151561241e565b6106ca855f52600760205260405f2090565b54612347565b60048501549061235f565b6106f133610697855f52600860205260405f2090565b549061237d565b9161070483151561246a565b61071a33610697845f52600860205260405f2090565b610725848254612411565b9055600201546001600160a01b031682816107995761075591505f80808093335af161074f61238a565b506124b5565b60405191825233917f3300bdb359cfb956935bca32e9db727413eab1ca84341f2e36caea85bb79696890602090a361052260015f80516020613b8a83398151915255565b6107a4913390612f95565b610755565b91908251928382525f5b8481106107d3575050825f602080949584010152601f8019910116010190565b6020818301810151848301820152016107b3565b346102ce5760203660031901126102ce576004355f526005602052610828610814600760405f2001610933565b6040519182916020835260208301906107a9565b0390f35b346102ce5760203660031901126102ce576108456102b8565b61084d612ff4565b600480546001600160a01b0319166001600160a01b0392909216919091179055005b5f525f80516020613b4a83398151915260205260405f2090565b90600182811c921680156108b7575b60208310146108a357565b634e487b7160e01b5f52602260045260245ffd5b91607f1691610898565b634e487b7160e01b5f52604160045260245ffd5b61012081019081106001600160401b038211176108f157604052565b6108c1565b6101a081019081106001600160401b038211176108f157604052565b90601f801991011681019081106001600160401b038211176108f157604052565b9060405191825f825461094581610889565b908184526020946001916001811690815f146109b35750600114610975575b50505061097392500383610912565b565b5f90815285812095935091905b81831061099b57505061097393508201015f8080610964565b85548884018501529485019487945091830191610982565b9250505061097394925060ff191682840152151560051b8201015f8080610964565b95926109fe9161010098959b9a99969361012091895260208901528060408901528701906107a9565b60608601999099526080850152151560a0840152151560c08301526001600160a01b031660e08201520152565b346102ce5760403660031901126102ce576004355f52600660205260405f206024355f5260205260405f208054610828600183015491610a6d60028501610933565b92600385015494600481015492600660058301549201549360405197889760018060a01b038560101c169560ff808760081c169616948a6109d5565b346102ce575f3660031901126102ce576020600154604051908152f35b346102ce5760203660031901126102ce576004355f525f80516020613b6a8339815191526020526020600160405f200154604051908152f35b60405190610973826108d5565b60405190610973826108f6565b6001600160401b0381116108f15760051b60200190565b9080601f830112156102ce576020908235610b4a81610b19565b93610b586040519586610912565b81855260208086019260051b8201019283116102ce57602001905b828210610b81575050505090565b81358152908301908301610b73565b6001600160401b0381116108f157601f01601f191660200190565b929192610bb782610b90565b91610bc56040519384610912565b8294818452818301116102ce578281602093845f960137010152565b9080601f830112156102ce57816020610bfc93359101610bab565b90565b346102ce5760a03660031901126102ce57610c186102b8565b610c206102d2565b906044356001600160401b038082116102ce57610c4260049236908401610b30565b926064358281116102ce57610c5a9036908501610b30565b916084359081116102ce57610c729036908501610be1565b93610c7d82336130f1565b6001600160a01b0386811695908615610e16578316958615610e005782518551808203610ddb5750505f5b8351811015610d4b578060051b6020808287010151918801015190610cd0876106978361086f565b54828110610d0d57610cfd8c610697859460019796610d059503610cf78d6106978461086f565b5561086f565b918254612411565b905501610ca8565b604080516303dee4c560e01b81526001600160a01b038a16818d01908152602081019390935290820193909352606081019190915281906080010390fd5b5061052292888587938a60018551145f14610da15760208581015187820151604080519283529282015233917fc3d58168c5ae7397731d063d5bbf3d657854427343f4c083240f7aacaa2d0f6291a45b33613a55565b6040517f4a39dc06d4c0dbc64b70af90fd698a233a518aa5d07e595d983b8c0526c8f7fb339180610dd38a8a836137d8565b0390a4610d9b565b60408051635b05999160e01b8152808a01938452602084019290925290918291010390fd5b604051626a0d4560e21b81525f81880152602490fd5b604051632bfa23e760e11b81525f81880152602490fd5b346102ce5760403660031901126102ce57610522600435610e4c6102d2565b90805f525f80516020613b6a833981519152602052610e71600160405f2001546130c5565b61333f565b346102ce575f3660031901126102ce576004546040516001600160a01b039091168152602090f35b346102ce5760403660031901126102ce57610eb76102d2565b336001600160a01b03821603610ed35761052290600435613375565b60405163334bd91960e11b8152600490fd5b600511156102ce57565b346102ce5760403660031901126102ce576004357f686cbb6b476fac353118f8ae6a2e3fe7540fc87f6a84c97dcfee5cab91583d81610f90602435610f3381610ee5565b835f526005602052600160405f2001610f8282825460018060a01b038160101c1633148015610f95575b610f6690612501565b610f6f82611995565b61ff00191660089190911b61ff00161790565b905560405191829182612574565b0390a2005b50335f9081527fb7db2dd08fcb62d0c9e08c51941cae53c267786a0b75803fb7960902fc8ef97d602052604090205460ff16610f5d565b9081518082526020808093019301915f5b828110610feb575050505090565b835185529381019392810192600101610fdd565b906020610bfc928181520190610fcc565b346102ce5760403660031901126102ce576004356001600160401b038082116102ce57366023830112156102ce57816004013561104c81610b19565b9261105a6040519485610912565b8184526020916024602086019160051b830101913683116102ce57602401905b8282106110b357856024358681116102ce57610828916110a16110a7923690600401610b30565b906125ac565b60405191829182610fff565b8380916110bf846102e8565b81520191019061107a565b60403660031901126102ce576110de6102b8565b6024356001600160401b0381116102ce576110fd903690600401610be1565b6001600160a01b0391907f00000000000000000000000000000000000000000000000000000000000000008316308114908115611206575b506111f457602060049361114761304a565b6040516352d1902d60e01b8152948591829086165afa5f93816111c3575b5061118b57604051634c9c8ce360e01b81526001600160a01b0383166004820152602490fd5b905f80516020613b2a83398151915283036111aa576105229250613705565b604051632a87526960e21b815260048101849052602490fd5b6111e691945060203d6020116111ed575b6111de8183610912565b810190613407565b925f611165565b503d6111d4565b60405163703e46dd60e11b8152600490fd5b9050835f80516020613b2a833981519152541614155f611135565b346102ce575f3660031901126102ce577f00000000000000000000000000000000000000000000000000000000000000006001600160a01b031630036111f45760206040515f80516020613b2a8339815191528152f35b9181601f840112156102ce578235916001600160401b0383116102ce57602083818601950101116102ce57565b346102ce5760e03660031901126102ce576004356112c281610ee5565b6112ca6102d2565b6044359160a43591608435906064356001600160401b0385116102ce57610828956113e77f987eeeedbe1705101ce8b5adea1a89aad3fe2dba0f364350d715b7a278347c62936113216113b3983690600401611278565b989061132b612ed5565b611336851515612650565b61134186151561269c565b61134c4289116126e8565b5f54998a9861135a8a612733565b5f55611394611367610b0c565b958b87526113788d60208901612741565b5f60408801523360608801526001600160a01b03166080870152565b8660a08601528760c086015260e08501525f6101008501523691610bab565b61012082015260c4356101408201525f6101608201525f6101808201526113e2865f52600560205260405f2090565b612908565b6113fa6113f2611d1a565b838633613416565b61140b604051928392339784612a14565b0390a361142460015f80516020613b8a83398151915255565b6040519081529081906020820190565b346102ce5760203660031901126102ce57335f9081527f0b45fb0a7d123af421db170fce034e3ce3a70e5f1150428004face1400c458f26020526040902054600435905f80516020613b6a8339815191529060ff168015611528575b61149a9150612501565b6114d060016114b1835f52600560205260405f2090565b60098101805460ff1916600117905501805461ff001916610100179055565b7f686cbb6b476fac353118f8ae6a2e3fe7540fc87f6a84c97dcfee5cab91583d8160405133837f5bd81a4d257100f5fe7df72a9e528a7aaf33871f8258739a331d2627a83f0aac5f80a3600181528060208101610f90565b505f808052602091825260408082203383529092522061149a9061154e905b5460ff1690565b611490565b346102ce5760803660031901126102ce576024356004356001600160401b0382116102ce577fb59c2d823e6ca395c24829d80f43a97d9c6fd711596372c5a4663af872f4b9d26115aa611694933690600401611278565b61142460449592953591611640600a6115cb885f52600560205260405f2090565b600181015461160c9060ff906115ef33601083901c6001600160a01b03161461224f565b60081c166115fc81611995565b8015908115611699575b50612a32565b611617861515612650565b01978854986116258a612733565b905561162f610aff565b928884528960208501523691610bab565b604082015282606082015260643560808201525f60a08201525f60c08201525f60e08201525f61010082015261168f87611682885f52600660205260405f2090565b905f5260205260405f2090565b612a7e565b0390a3005b600191506116a681611995565b145f611606565b346102ce575f3660031901126102ce5760205f54604051908152f35b346102ce5760403660031901126102ce5760206116ef6116e76102d2565b600435612b1f565b604051908152f35b346102ce575f3660031901126102ce576003546040516001600160a01b039091168152602090f35b6020815281516020820152602082015160408201526040820151611751610120918260608501526101408401906107a9565b9260608101516080840152608081015160a084015261177960a082015160c085019015159052565b60c0810151151560e084015260e08101516001600160a01b031661010084810191909152905b015191015290565b346102ce576040806003193601126102ce578051610828916117c8826108d5565b5f82525f60208301526060818301525f60608301525f60808301525f60a08301525f60c08301525f60e08301525f610100809301526004355f526006602052805f206024355f52602052805f20916006611820610aff565b93805485526001810154602086015261183b60028201610933565b858501526003810154606086015260048101546080860152600581015460ff8116151560a087015261188990600881901c60ff16151560c088015260101c6001600160a01b031660e0870152565b015490830152519182918261171f565b346102ce5760403660031901126102ce57602060ff6118e76118b96102d2565b6004355f525f80516020613b6a833981519152845260405f209060018060a01b03165f5260205260405f2090565b54166040519015158152f35b346102ce5760203660031901126102ce576004355f526007602052602060405f2054604051908152f35b6001600160a01b03165f9081527f88be536d5240c274a3b1d3a1be54482fd9caa294f08c62a7cde569f49a3c45016020526040902090565b346102ce5760403660031901126102ce5760206103486119736102d2565b6004355f526008835260405f209060018060a01b03165f5260205260405f2090565b6005111561199f57565b634e487b7160e01b5f52602160045260245ffd5b906119bd82611995565b52565b60208152815160208201526119dd602083015160408301906119b3565b6119ef604083015160608301906119b3565b60608201516001600160a01b0316608082015260808201516001600160a01b031660a082015260a082015160c082015260c082015160e082015260e082015161010090818301528201516101209081830152820151916101a090611a606101409483868601526101c08501906107a9565b9381015161016090818501528101519061179f610180928386019015159052565b346102ce5760203660031901126102ce575f610180604051611aa2816108f6565b8281528260208201528260408201528260608201528260808201528260a08201528260c08201528260e082015282610100820152606061012082015282610140820152826101608201520152610828611b0d611b086004355f52600560205260405f2090565b612bce565b604051918291826119c0565b346102ce575f3660031901126102ce5760206040515f8152f35b346102ce5760403660031901126102ce57611b4c6102b8565b60243580151581036102ce573315611bde576001600160a01b038216918215611bc75781611b80611b91926106973361191d565b9060ff801983541691151516179055565b604051901515815233907f17307eab39ab6107e8899845ad3d59bd9653f200f220920489ca2b5937696c31908060208101611694565b60405162ced3e160e81b81525f6004820152602490fd5b604051631f18c42760e11b81525f6004820152602490fd5b999692946101809b9e9d9c9995611c6899959297936101a0988d52611c1a81611995565b60208d0152611c2881611995565b60408c01526001600160a01b0391821660608c01521660808a015260a089015260c088015260e087015261010086015261012085018190528401906107a9565b9561014083015215156101608201520152565b346102ce5760203660031901126102ce576004355f52600560205260405f20805490610828600182015491611cb9600282015460018060a01b031690565b90600381015460048201546005830154600684015490611cdb60078601610933565b92600886015494600a611cf2600989015460ff1690565b970154976040519b8c9b8c60018060a01b038260101c169260ff808460081c16931691611bf6565b60405190602082018281106001600160401b038211176108f1576040525f8252565b346102ce575f3660031901126102ce5760405160408101908082106001600160401b038311176108f1576108289160405260058152640352e302e360dc1b60208201526040519182916020835260208301906107a9565b346102ce575f3660031901126102ce576002546040516001600160a01b039091168152602090f35b346102ce5760603660031901126102ce577f68e79a7bf1e0bc45d0a330c573bc367f9cf464fd326078812f301165fbda4ef15f525f80516020613b6a833981519152602052602435600435611e33611547337f0b45fb0a7d123af421db170fce034e3ce3a70e5f1150428004face1400c458f2610697565b8015611f23575b8015611f00575b611e4a90612c9a565b6003611e6283611682845f52600660205260405f2090565b611ead60058201611e87611e82611e7e835460ff9060081c1690565b1590565b612cf6565b805462010000600160b01b033360101b166001600160b01b031990911617610101179055565b60443560068201550154611ecc610cfd835f52600760205260405f2090565b90556040513381527f5142be5dffcf006606e1b0e030730d45f5cd24edfb7566efc3dc188625ac3e9c908060208101611694565b50600454611e4a90611f1a906001600160a01b0316610457565b33149050611e41565b50600354611f39906001600160a01b0316610457565b3314611e3a565b346102ce5760403660031901126102ce57610522600435611f5f6102d2565b90805f525f80516020613b6a833981519152602052611f84600160405f2001546130c5565b613375565b346102ce5760603660031901126102ce576001600160401b036004358181116102ce57366023820112156102ce57611fcb903690602481600401359101610bab565b611fd36102d2565b905f80516020613baa833981519152549260ff8460401c16159316801590816120dd575b60011490816120d3575b1590816120ca575b506120b8575f80516020613baa833981519152805467ffffffffffffffff19166001179055612041918361208f575b60443591612d41565b61204757005b5f80516020613baa833981519152805460ff60401b19169055604051600181527fc7f505b2f371ae2175ee4913f4499e1f2633a7b5936321eed1cdaeb6115181d290602090a1005b5f80516020613baa833981519152805460ff60401b191668010000000000000000179055612038565b60405163f92ee8a960e01b8152600490fd5b9050155f612009565b303b159150612001565b849150611ff7565b346102ce5760403660031901126102ce57602060ff6118e76121056102b8565b6106976121106102d2565b9161191d565b346102ce5760a03660031901126102ce5761212f6102b8565b6121376102d2565b6084356001600160401b0381116102ce57612156903690600401610be1565b9061216183336130f1565b6001600160a01b03818116156121c9578316156121b257610522926121aa6064356044359160405192600184526020840152604083019160018352606084015260808301604052565b929091613549565b604051626a0d4560e21b81525f6004820152602490fd5b604051632bfa23e760e11b81525f6004820152602490fd5b346102ce575f3660031901126102ce5760206040517f189ab7a9244df0848122154315af71fe140f3db0fe014031783b0946b8c9d2e38152f35b61224b915f525f80516020613b4a83398151915260205260405f209060018060a01b03165f5260205260405f2090565b5490565b1561225657565b60405162461bcd60e51b815260206004820152601a60248201527f4173736574546f6b656e697a65723a204e6f74206973737565720000000000006044820152606490fd5b156122a257565b60405162461bcd60e51b815260206004820152601b60248201527f4173736574546f6b656e697a65723a205a65726f20616d6f756e7400000000006044820152606490fd5b156122ee57565b60405162461bcd60e51b815260206004820152601f60248201527f4173736574546f6b656e697a65723a20496e636f72726563742076616c7565006044820152606490fd5b634e487b7160e01b5f52601160045260245ffd5b8181029291811591840414171561235a57565b612333565b8115612369570490565b634e487b7160e01b5f52601260045260245ffd5b9190820391821161235a57565b3d156123b4573d9061239b82610b90565b916123a96040519384610912565b82523d5f602084013e565b606090565b156123c057565b60405162461bcd60e51b815260206004820152602360248201527f4173736574546f6b656e697a65723a20466565207472616e73666572206661696044820152621b195960ea1b6064820152608490fd5b9190820180921161235a57565b1561242557565b60405162461bcd60e51b815260206004820152601e60248201527f4173736574546f6b656e697a65723a204e6f20746f6b656e732068656c6400006044820152606490fd5b1561247157565b606460405162461bcd60e51b815260206004820152602060248201527f4173736574546f6b656e697a65723a204e6f7468696e6720746f20636c61696d6044820152fd5b156124bc57565b60405162461bcd60e51b815260206004820152601f60248201527f4173736574546f6b656e697a65723a205472616e73666572206661696c6564006044820152606490fd5b1561250857565b60405162461bcd60e51b815260206004820152601e60248201527f4173736574546f6b656e697a65723a204e6f7420617574686f72697a656400006044820152606490fd5b906125709061255b81611995565b825461ff00191660089190911b61ff00161790565b9055565b919060208301926119bd82611995565b80518210156125985760209160051b010190565b634e487b7160e01b5f52603260045260245ffd5b9190918051835180820361262e5750508051906125e16125cb83610b19565b926125d96040519485610912565b808452610b19565b60209190601f190136848401375f5b8151811015612626578061261560019260051b85808287010151918a0101519061221b565b61261f8287612584565b52016125f0565b509193505050565b604051635b05999160e01b815260048101919091526024810191909152604490fd5b1561265757565b60405162461bcd60e51b815260206004820152601a60248201527f4173736574546f6b656e697a65723a205a65726f2076616c75650000000000006044820152606490fd5b156126a357565b60405162461bcd60e51b815260206004820152601b60248201527f4173736574546f6b656e697a65723a205a65726f20737570706c7900000000006044820152606490fd5b156126ef57565b606460405162461bcd60e51b815260206004820152602060248201527f4173736574546f6b656e697a65723a20496e76616c6964206d617475726974796044820152fd5b5f19811461235a5760010190565b6119bd82611995565b9061275481611995565b60ff80198354169116179055565b601f811161276e575050565b7f88be536d5240c274a3b1d3a1be54482fd9caa294f08c62a7cde569f49a3c45025f527ff429cb5e2ec84cbb765e76b31964a56ccde03e7a6122d6cc4afb19edc55edeed906020601f840160051c830193106127e4575b601f0160051c01905b8181106127d9575050565b5f81556001016127ce565b90915081906127c5565b601f82116127fb57505050565b5f5260205f20906020601f840160051c83019310612833575b601f0160051c01905b818110612828575050565b5f815560010161281d565b9091508190612814565b91909182516001600160401b0381116108f1576128648161285e8454610889565b846127ee565b602080601f83116001146128a1575081906125709394955f92612896575b50508160011b915f199060031b1c19161790565b015190505f80612882565b90601f198316956128b5855f5260205f2090565b925f905b8882106128f0575050836001959697106128d8575b505050811b019055565b01515f1960f88460031b161c191690555f80806128ce565b806001859682949686015181550195019301906128b9565b90610180600a918051845561297b60018501612931602084015161292b81611995565b8261274a565b612948604084015161294281611995565b8261254d565b60608301516001600160a01b03165b815462010000600160b01b03191660109190911b62010000600160b01b0316179055565b60808101516002850180546001600160a01b0319166001600160a01b0390921691909117905560a0810151600385015560c0810151600485015560e0810151600585015561010081015160068501556129dc6101208201516007860161283d565b6101408101516008850155612a0d6129f8610160830151151590565b600986019060ff801983541691151516179055565b0151910155565b60608101949392604092612a2781611995565b825260208201520152565b15612a3957565b60405162461bcd60e51b815260206004820152601e60248201527f4173736574546f6b656e697a65723a20496e76616c69642073746174757300006044820152606490fd5b906101006006918051845560208101516001850155612aa460408201516002860161283d565b6060810151600385015560808101516004850155612a0d60058501612ae1612acf60a0850151151590565b829060ff801983541691151516179055565b612b0c612af160c0850151151590565b828054909161ff001990911690151560081b61ff0016179055565b60e08301516001600160a01b0316612957565b90815f52600560205260405f20905f80516020613b4a833981519152602052612b5b8160405f209060018060a01b03165f5260205260405f2090565b548015612bc657612bab926004612b81612b8a93875f52600760205260405f2054612347565b9101549061235f565b925f52600860205260405f209060018060a01b03165f5260205260405f2090565b5480821115612bc057810390811161235a5790565b50505f90565b505050505f90565b90600a612bd9610b0c565b9280548452612c1c6001820154612bf660ff821660208801612741565b612c0960ff8260081c1660408801612741565b60101c6001600160a01b03166060860152565b60028101546001600160a01b03166080850152600381015460a0850152600481015460c0850152600581015460e08501526006810154610100850152612c6460078201610933565b6101208501526008810154610140850152612c90612c86600983015460ff1690565b1515610160860152565b0154610180830152565b15612ca157565b60405162461bcd60e51b815260206004820152602760248201527f4173736574546f6b656e697a65723a204e6f7420617574686f72697a6564207660448201526632b934b334b2b960c91b6064820152608490fd5b15612cfd57565b606460405162461bcd60e51b815260206004820152602060248201527f4173736574546f6b656e697a65723a20416c72656164792076657269666965646044820152fd5b612d496137aa565b612d516137aa565b80516001600160401b0381116108f1577f88be536d5240c274a3b1d3a1be54482fd9caa294f08c62a7cde569f49a3c450291612d9682612d918554610889565b612762565b602090816001601f851114612e29575082612e20969593612e1b9593612dd0935f926128965750508160011b915f199060031b1c19161790565b90555b612ddb6137aa565b612de43361314f565b50612dee336131fa565b50612df8336132d0565b5060018060a01b03166bffffffffffffffffffffffff60a01b6002541617600255565b600155565b61097360015f55565b7f88be536d5240c274a3b1d3a1be54482fd9caa294f08c62a7cde569f49a3c45025f529190601f1984167ff429cb5e2ec84cbb765e76b31964a56ccde03e7a6122d6cc4afb19edc55edeed935f905b828210612ebd575050926001928592612e20999896612e1b989610612ea5575b505050811b019055612dd3565b01515f1960f88460031b161c191690555f8080612e98565b80600186978294978701518155019601940190612e78565b5f80516020613b8a8339815191526002815414612ef25760029055565b604051633ee5aeb560e01b8152600490fd5b6040516323b872dd60e01b5f9081526001600160a01b03938416600452938316602452604494909452909160209060648180855af160015f5114811615612f76575b836040525f60605215612f5857505050565b635274afe760e01b8352166001600160a01b03166004820152602490fd5b6001811516612f8c57813b15153d151616612f46565b833d5f823e3d90fd5b60405163a9059cbb60e01b5f9081526001600160a01b039384166004526024949094529260209060448180855af160015f5114811615612fde575b8360405215612f5857505050565b6001811516612f8c57813b15153d151616612fd0565b335f9081527fb7db2dd08fcb62d0c9e08c51941cae53c267786a0b75803fb7960902fc8ef97d602052604090205460ff161561302c57565b60405163e2517d3f60e01b81523360048201525f6024820152604490fd5b335f9081527fab71e3f32666744d246edff3f96e4bdafee2e9867098cdd118a979a7464786a8602052604090207f189ab7a9244df0848122154315af71fe140f3db0fe014031783b0946b8c9d2e39060ff905b5416156130a75750565b6044906040519063e2517d3f60e01b82523360048301526024820152fd5b5f8181525f80516020613b6a83398151915260209081526040808320338452909152902060ff9061309d565b6001600160a01b038181169290811691828414159182613134575b5050613116575050565b604492506040519163711bec9160e11b835260048301526024820152fd5b60ff9250906106976131459261191d565b5416155f8061310c565b6001600160a01b0381165f9081527fb7db2dd08fcb62d0c9e08c51941cae53c267786a0b75803fb7960902fc8ef97d60205260409020545f80516020613b6a8339815191529060ff16612bc0575f808052602091825260408082206001600160a01b038516835290925220805460ff1916600117905533906001600160a01b03165f7f2f8788117e7eff1d82e926ec794901d17c78024a50270940304540a733656f0d8180a4600190565b6001600160a01b0381165f9081527f76b45e76085c801b52caf05392fe308220b3b246578d4e97c9037bed151bb162602052604090207fe70d28ebd9d7d9a3dd77d46ae2481f301c80806f395b08de31d8e095b1c46cee905f80516020613b6a8339815191529060ff905b54166132c9575f828152602091825260408082206001600160a01b038616835290925220805460ff1916600117905533916001600160a01b0316907f2f8788117e7eff1d82e926ec794901d17c78024a50270940304540a733656f0d5f80a4600190565b5050505f90565b6001600160a01b0381165f9081527fab71e3f32666744d246edff3f96e4bdafee2e9867098cdd118a979a7464786a8602052604090207f189ab7a9244df0848122154315af71fe140f3db0fe014031783b0946b8c9d2e3905f80516020613b6a8339815191529060ff90613265565b5f8181525f80516020613b6a833981519152602081815260408084206001600160a01b038716855290915290912060ff90613265565b5f8181525f80516020613b6a833981519152602081815260408084206001600160a01b03871685529091529091205460ff16156132c9575f828152602091825260408082206001600160a01b038616835290925220805460ff1916905533916001600160a01b0316907ff6391f5c32d9c69d2a47ea670b442974b53935d1edc7fd64eb21e047a839171b5f80a4600190565b908160209103126102ce575190565b92936001600160a01b03841693909290919084156121c95761345560405192600184526020840152604083019160018352606084015260808301604052565b929094855184519081810361262e5750505f5b865181101561349f578060019160051b613497610cfd87610697848d6020918291010151958c0101519461086f565b905501613468565b50929094602080916109739660018251145f1461350e575f838301517fc3d58168c5ae7397731d063d5bbf3d657854427343f4c083240f7aacaa2d0f626134fe8689015160405191829133958360209093929193604081019481520152565b0390a45b01519101519133613875565b5f6040517f4a39dc06d4c0dbc64b70af90fd698a233a518aa5d07e595d983b8c0526c8f7fb3391806135418a88836137d8565b0390a4613502565b94919091815184519081810361262e5750505f5b825181101561362a57600581901b83810160209081015191870101516001600160a01b03929186908a85166135ba575b60019482166135a0575b5050500161355d565b6135b091610697610cfd9261086f565b90555f8581613597565b91929390506135cc8a6106978461086f565b548381106135f357918791846001969594036135eb8d6106978561086f565b55945061358d565b6040516303dee4c560e01b81526001600160a01b038c16600482015260248101919091526044810184905260648101839052608490fd5b5094919392909360018551145f146136ba576020858101518382015160408051928352928201526001600160a01b03838116929086169133917fc3d58168c5ae7397731d063d5bbf3d657854427343f4c083240f7aacaa2d0f6291a45b6001600160a01b03811661369d575b5050505050565b6020806136b0960151920151923361396e565b5f80808080613696565b6040516001600160a01b03828116919085169033907f4a39dc06d4c0dbc64b70af90fd698a233a518aa5d07e595d983b8c0526c8f7fb90806136fd888c836137d8565b0390a4613687565b90813b15613789575f80516020613b2a83398151915280546001600160a01b0319166001600160a01b0384169081179091557fbc7cd75a20ee27fd9adebab32041f755214dbc6bffa90cc0225b39da2e5c2d3b5f80a280511561376e5761376b91613a8c565b50565b50503461377757565b60405163b398979f60e01b8152600490fd5b604051634c9c8ce360e01b81526001600160a01b0383166004820152602490fd5b60ff5f80516020613baa8339815191525460401c16156137c657565b604051631afcd79f60e31b8152600490fd5b90916137ef610bfc93604084526040840190610fcc565b916020818403910152610fcc565b908160209103126102ce5751610bfc81610351565b909260a092610bfc9594600180861b031683525f60208401526040830152606082015281608082015201906107a9565b9192610bfc95949160a094600180871b0380921685521660208401526040830152606082015281608082015201906107a9565b9293919093843b613887575050505050565b6020916138aa604051948593849363f23a6e6160e01b9889865260048601613812565b03815f6001600160a01b0388165af15f918161393d575b5061390057826138cf61238a565b80519190826138f957604051632bfa23e760e11b81526001600160a01b0383166004820152602490fd5b6020915001fd5b6001600160e01b0319160361391a57505f80808080613696565b604051632bfa23e760e11b81526001600160a01b03919091166004820152602490fd5b61396091925060203d602011613967575b6139588183610912565b8101906137fd565b905f6138c1565b503d61394e565b939290949194853b613983575b505050505050565b6139a6602093604051958694859463f23a6e6160e01b998a875260048701613842565b03815f6001600160a01b0388165af15f91816139e6575b506139cb57826138cf61238a565b6001600160e01b0319160361391a57505f808080808061397b565b613a0091925060203d602011613967576139588183610912565b905f6139bd565b9390610bfc9593613a3991613a479460018060a01b03809216885216602087015260a0604087015260a0860190610fcc565b908482036060860152610fcc565b9160808184039101526107a9565b939290949194853b613a6957505050505050565b6139a6602093604051958694859463bc197c8160e01b998a875260048701613a07565b905f8091602081519101845af48080613af2575b15613aaf575050610bfc613b10565b15613ad757604051639996b31560e01b81526001600160a01b03919091166004820152602490fd5b3d15155f03613b055760405163d6bda27560e01b8152600490fd5b503d151580613aa05750813b1515613aa0565b6040513d5f823e3d90fd5b604051903d82523d5f602084013e60203d83010160405256fe360894a13ba1a3210667c828492db98dca3e2076cc3735a920a3ca505d382bbc88be536d5240c274a3b1d3a1be54482fd9caa294f08c62a7cde569f49a3c450002dd7bc7dec4dceedda775e58dd541e08a116c6c53815c0bd028192f7b6268009b779b17422d0df92223018b32b4d1fa46e071723d6817e2486d003becc55f00f0c57e16840df040f15088dc2f81fe391c3923bec73e23a9662efc9c229c6a00a2646970667358221220ab9d4770bf770904df1d8deefa9d8997346bdb7728e3757a2a21b71fe8a6279c64736f6c63430008180033",
  "linkReferences": {},
  "deployedLinkReferences": {}
}