{
  "_format": "hh-sol-artifact-1",
  "contractName": "FreelanceGovernance",
  "sourceName": "contracts/FreelanceGovernance.sol",
  "abi": [
    {
      "inputs": [
        {
          "internalType": "address",
          "name": "_sbtContract",
          "type": "address"
        }
      ],
      "stateMutability": "nonpayable",
      "type": "constructor"
    },
    {
      "inputs": [
        {
          "internalType": "address",
          "name": "owner",
          "type": "address"
        }
      ],
      "name": "OwnableInvalidOwner",
      "type": "error"
    },
    {
      "inputs": [
        {
          "internalType": "address",
          "name": "account",
          "type": "address"
        }
      ],
      "name": "OwnableUnauthorizedAccount",
      "type": "error"
    },
    {
      "anonymous": false,
      "inputs": [
        {
          "indexed": true,
          "internalType": "address",
          "name": "delegator",
          "type": "address"
        },
        {
          "indexed": true,
          "internalType": "address",
          "name": "delegatee",
          "type": "address"
        }
      ],
      "name": "DelegationUpdated",
      "type": "event"
    },
    {
      "anonymous": false,
      "inputs": [
        {
          "indexed": true,
          "internalType": "address",
          "name": "previousOwner",
          "type": "address"
        },
        {
          "indexed": true,
          "internalType": "address",
          "name": "newOwner",
          "type": "address"
        }
      ],
      "name": "OwnershipTransferred",
      "type": "event"
    },
    {
      "anonymous": false,
      "inputs": [
        {
          "indexed": true,
          "internalType": "uint256",
          "name": "proposalId",
          "type": "uint256"
        },
        {
          "indexed": true,
          "internalType": "address",
          "name": "proposer",
          "type": "address"
        },
        {
          "indexed": false,
          "internalType": "string",
          "name": "description",
          "type": "string"
        },
        {
          "indexed": false,
          "internalType": "bool",
          "name": "quadratic",
          "type": "bool"
        }
      ],
      "name": "ProposalCreated",
      "type": "event"
    },
    {
      "anonymous": false,
      "inputs": [
        {
          "indexed": false,
          "internalType": "uint256",
          "name": "proposalId",
          "type": "uint256"
        },
        {
          "indexed": false,
          "internalType": "uint256",
          "name": "disputeId",
          "type": "uint256"
        }
      ],
      "name": "ProposalDisputed",
      "type": "event"
    },
    {
      "anonymous": false,
      "inputs": [
        {
          "indexed": false,
          "internalType": "uint256",
          "name": "proposalId",
          "type": "uint256"
        }
      ],
      "name": "ProposalExecuted",
      "type": "event"
    },
    {
      "anonymous": false,
      "inputs": [
        {
          "indexed": true,
          "internalType": "uint256",
          "name": "proposalId",
          "type": "uint256"
        },
        {
          "indexed": false,
          "internalType": "uint256",
          "name": "eta",
          "type": "uint256"
        }
      ],
      "name": "ProposalsQueued",
      "type": "event"
    },
    {
      "anonymous": false,
      "inputs": [
        {
          "indexed": true,
          "internalType": "address",
          "name": "timelockAddress",
          "type": "address"
        }
      ],
      "name": "TimelockSet",
      "type": "event"
    },
    {
      "anonymous": false,
      "inputs": [
        {
          "indexed": true,
          "internalType": "uint256",
          "name": "proposalId",
          "type": "uint256"
        },
        {
          "indexed": true,
          "internalType": "address",
          "name": "voter",
          "type": "address"
        },
        {
          "indexed": false,
          "internalType": "bool",
          "name": "support",
          "type": "bool"
        },
        {
          "indexed": false,
          "internalType": "uint256",
          "name": "weight",
          "type": "uint256"
        }
      ],
      "name": "Voted",
      "type": "event"
    },
    {
      "inputs": [],
      "name": "MIN_REPUTATION_FOR_PROPOSAL",
      "outputs": [
        {
          "internalType": "uint256",
          "name": "",
          "type": "uint256"
        }
      ],
      "stateMutability": "view",
      "type": "function"
    },
    {
      "inputs": [],
      "name": "PENALTY_AMOUNT",
      "outputs": [
        {
          "internalType": "uint256",
          "name": "",
          "type": "uint256"
        }
      ],
      "stateMutability": "view",
      "type": "function"
    },
    {
      "inputs": [],
      "name": "VOTING_PERIOD",
      "outputs": [
        {
          "internalType": "uint256",
          "name": "",
          "type": "uint256"
        }
      ],
      "stateMutability": "view",
      "type": "function"
    },
    {
      "inputs": [
        {
          "internalType": "uint256",
          "name": "proposalId",
          "type": "uint256"
        },
        {
          "internalType": "bool",
          "name": "support",
          "type": "bool"
        },
        {
          "internalType": "bytes32",
          "name": "nullifier",
          "type": "bytes32"
        },
        {
          "internalType": "bytes",
          "name": "zkProof",
          "type": "bytes"
        }
      ],
      "name": "anonymousVote",
      "outputs": [],
      "stateMutability": "nonpayable",
      "type": "function"
    },
    {
      "inputs": [
        {
          "internalType": "uint256",
          "name": "proposalId",
          "type": "uint256"
        },
        {
          "internalType": "bytes32",
          "name": "hashedVote",
          "type": "bytes32"
        }
      ],
      "name": "commitVote",
      "outputs": [],
      "stateMutability": "nonpayable",
      "type": "function"
    },
    {
      "inputs": [
        {
          "internalType": "string",
          "name": "description",
          "type": "string"
        },
        {
          "internalType": "bool",
          "name": "useQuadratic",
          "type": "bool"
        },
        {
          "internalType": "bool",
          "name": "isOptimistic",
          "type": "bool"
        },
        {
          "internalType": "bool",
          "name": "isSecret",
          "type": "bool"
        },
        {
          "internalType": "bool",
          "name": "isConviction",
          "type": "bool"
        },
        {
          "internalType": "bool",
          "name": "isZK",
          "type": "bool"
        },
        {
          "internalType": "uint256",
          "name": "threshold",
          "type": "uint256"
        },
        {
          "internalType": "address",
          "name": "target",
          "type": "address"
        },
        {
          "internalType": "bytes",
          "name": "data",
          "type": "bytes"
        }
      ],
      "name": "createProposal",
      "outputs": [],
      "stateMutability": "nonpayable",
      "type": "function"
    },
    {
      "inputs": [
        {
          "internalType": "address",
          "name": "delegatee",
          "type": "address"
        }
      ],
      "name": "delegate",
      "outputs": [],
      "stateMutability": "nonpayable",
      "type": "function"
    },
    {
      "inputs": [
        {
          "internalType": "address",
          "name": "",
          "type": "address"
        }
      ],
      "name": "delegates",
      "outputs": [
        {
          "internalType": "address",
          "name": "",
          "type": "address"
        }
      ],
      "stateMutability": "view",
      "type": "function"
    },
    {
      "inputs": [
        {
          "internalType": "uint256",
          "name": "proposalId",
          "type": "uint256"
        }
      ],
      "name": "disputeProposal",
      "outputs": [],
      "stateMutability": "nonpayable",
      "type": "function"
    },
    {
      "inputs": [
        {
          "internalType": "uint256",
          "name": "proposalId",
          "type": "uint256"
        }
      ],
      "name": "executeProposal",
      "outputs": [],
      "stateMutability": "nonpayable",
      "type": "function"
    },
    {
      "inputs": [
        {
          "internalType": "uint256",
          "name": "proposalId",
          "type": "uint256"
        }
      ],
      "name": "getConviction",
      "outputs": [
        {
          "internalType": "uint256",
          "name": "",
          "type": "uint256"
        }
      ],
      "stateMutability": "view",
      "type": "function"
    },
    {
      "inputs": [
        {
          "internalType": "address",
          "name": "account",
          "type": "address"
        }
      ],
      "name": "getVotingPower",
      "outputs": [
        {
          "internalType": "uint256",
          "name": "",
          "type": "uint256"
        }
      ],
      "stateMutability": "view",
      "type": "function"
    },
    {
      "inputs": [
        {
          "internalType": "address",
          "name": "",
          "type": "address"
        }
      ],
      "name": "notificationChannels",
      "outputs": [
        {
          "internalType": "string",
          "name": "",
          "type": "string"
        }
      ],
      "stateMutability": "view",
      "type": "function"
    },
    {
      "inputs": [],
      "name": "owner",
      "outputs": [
        {
          "internalType": "address",
          "name": "",
          "type": "address"
        }
      ],
      "stateMutability": "view",
      "type": "function"
    },
    {
      "inputs": [],
      "name": "proposalCount",
      "outputs": [
        {
          "internalType": "uint256",
          "name": "",
          "type": "uint256"
        }
      ],
      "stateMutability": "view",
      "type": "function"
    },
    {
      "inputs": [
        {
          "internalType": "uint256",
          "name": "id",
          "type": "uint256"
        }
      ],
      "name": "proposalExists",
      "outputs": [
        {
          "internalType": "bool",
          "name": "",
          "type": "bool"
        }
      ],
      "stateMutability": "view",
      "type": "function"
    },
    {
      "inputs": [
        {
          "internalType": "uint256",
          "name": "",
          "type": "uint256"
        }
      ],
      "name": "proposals",
      "outputs": [
        {
          "internalType": "uint256",
          "name": "id",
          "type": "uint256"
        },
        {
          "internalType": "address",
          "name": "proposer",
          "type": "address"
        },
        {
          "internalType": "string",
          "name": "description",
          "type": "string"
        },
        {
          "internalType": "uint256",
          "name": "forVotes",
          "type": "uint256"
        },
        {
          "internalType": "uint256",
          "name": "againstVotes",
          "type": "uint256"
        },
        {
          "internalType": "uint256",
          "name": "startTime",
          "type": "uint256"
        },
        {
          "internalType": "uint256",
          "name": "endTime",
          "type": "uint256"
        },
        {
          "internalType": "bool",
          "name": "executed",
          "type": "bool"
        },
        {
          "internalType": "bool",
          "name": "quadratic",
          "type": "bool"
        },
        {
          "internalType": "bool",
          "name": "optimistic",
          "type": "bool"
        },
        {
          "internalType": "bool",
          "name": "isSecret",
          "type": "bool"
        },
        {
          "internalType": "bool",
          "name": "isConviction",
          "type": "bool"
        },
        {
          "internalType": "bool",
          "name": "isZK",
          "type": "bool"
        },
        {
          "internalType": "bool",
          "name": "isDisputed",
          "type": "bool"
        },
        {
          "internalType": "uint256",
          "name": "disputeId",
          "type": "uint256"
        },
        {
          "internalType": "uint256",
          "name": "convictionThreshold",
          "type": "uint256"
        },
        {
          "internalType": "address",
          "name": "target",
          "type": "address"
        },
        {
          "internalType": "bytes",
          "name": "data",
          "type": "bytes"
        },
        {
          "internalType": "bool",
          "name": "queued",
          "type": "bool"
        }
      ],
      "stateMutability": "view",
      "type": "function"
    },
    {
      "inputs": [
        {
          "internalType": "uint256",
          "name": "proposalId",
          "type": "uint256"
        }
      ],
      "name": "queueProposal",
      "outputs": [],
      "stateMutability": "nonpayable",
      "type": "function"
    },
    {
      "inputs": [
        {
          "internalType": "address",
          "name": "agent",
          "type": "address"
        },
        {
          "internalType": "bytes32",
          "name": "modelHash",
          "type": "bytes32"
        }
      ],
      "name": "registerAgent",
      "outputs": [],
      "stateMutability": "nonpayable",
      "type": "function"
    },
    {
      "inputs": [
        {
          "internalType": "string",
          "name": "channelId",
          "type": "string"
        }
      ],
      "name": "registerNotificationChannel",
      "outputs": [],
      "stateMutability": "nonpayable",
      "type": "function"
    },
    {
      "inputs": [
        {
          "internalType": "address",
          "name": "",
          "type": "address"
        }
      ],
      "name": "registeredAgents",
      "outputs": [
        {
          "internalType": "bytes32",
          "name": "",
          "type": "bytes32"
        }
      ],
      "stateMutability": "view",
      "type": "function"
    },
    {
      "inputs": [],
      "name": "renounceOwnership",
      "outputs": [],
      "stateMutability": "nonpayable",
      "type": "function"
    },
    {
      "inputs": [
        {
          "internalType": "uint256",
          "name": "proposalId",
          "type": "uint256"
        },
        {
          "internalType": "bool",
          "name": "support",
          "type": "bool"
        },
        {
          "internalType": "string",
          "name": "salt",
          "type": "string"
        }
      ],
      "name": "revealVote",
      "outputs": [],
      "stateMutability": "nonpayable",
      "type": "function"
    },
    {
      "inputs": [],
      "name": "sbtContract",
      "outputs": [
        {
          "internalType": "contract IFreelanceSBT",
          "name": "",
          "type": "address"
        }
      ],
      "stateMutability": "view",
      "type": "function"
    },
    {
      "inputs": [
        {
          "internalType": "address",
          "name": "_timelock",
          "type": "address"
        }
      ],
      "name": "setTimelock",
      "outputs": [],
      "stateMutability": "nonpayable",
      "type": "function"
    },
    {
      "inputs": [
        {
          "internalType": "uint256",
          "name": "proposalId",
          "type": "uint256"
        },
        {
          "internalType": "bool",
          "name": "support",
          "type": "bool"
        }
      ],
      "name": "stakeConviction",
      "outputs": [],
      "stateMutability": "nonpayable",
      "type": "function"
    },
    {
      "inputs": [],
      "name": "timelock",
      "outputs": [
        {
          "internalType": "contract TimelockController",
          "name": "",
          "type": "address"
        }
      ],
      "stateMutability": "view",
      "type": "function"
    },
    {
      "inputs": [],
      "name": "timelockAddress",
      "outputs": [
        {
          "internalType": "address",
          "name": "",
          "type": "address"
        }
      ],
      "stateMutability": "view",
      "type": "function"
    },
    {
      "inputs": [
        {
          "internalType": "address",
          "name": "newOwner",
          "type": "address"
        }
      ],
      "name": "transferOwnership",
      "outputs": [],
      "stateMutability": "nonpayable",
      "type": "function"
    },
    {
      "inputs": [
        {
          "internalType": "uint256",
          "name": "proposalId",
          "type": "uint256"
        },
        {
          "internalType": "bool",
          "name": "support",
          "type": "bool"
        }
      ],
      "name": "vote",
      "outputs": [],
      "stateMutability": "nonpayable",
      "type": "function"
    }
  ],
  "bytecode": "0x6080346100c257601f61247838819003918201601f19168301916001600160401b038311848410176100c6578084926020946040528339810103126100c257516001600160a01b0390818116908190036100c25733156100aa575f5460018060a01b03199033828216175f55604051933391167f8be0079c531659141344cd1fd0a4f28419497f9722a3daafe3b4186f6b6457e05f80a3600154161760015561239d90816100db8239f35b604051631e4fbdf760e01b81525f6004820152602490fd5b5f80fd5b634e487b7160e01b5f52604160045260245ffdfe6080806040526004361015610012575f80fd5b5f905f3560e01c908163013cf08b14611aea575080630615836014611ac45780630d61b519146118215780631374b22d146117e8578063201c41b1146117865780633ffd65cc1461176a5780634bc66f32146117435780634d1b883f14611274578063529e4b601461115e578063587cde1e146111235780635c19a95c146110ba578063682e42631461109b5780636af3f74114610fd3578063715018a614610f7a57806374ee82fc14610f425780638da5cb5b14610f1c57806394a14a3414610ab157806394d7f82614610a955780639da691801461097c578063a00724ff1461080d578063af528c4214610768578063b1610d7e1461074a578063bb4d44361461071e578063bdacb30314610616578063c5ea12aa14610446578063c9d27afe1461028a578063d33219b414610263578063da35c66414610245578063db24d4ba146102085763f2fde38b14610168575f80fd5b3461020557602036600319011261020557610181611dc2565b610189612044565b6001600160a01b038091169081156101d4575f54826001600160a01b03198216175f55167f8be0079c531659141344cd1fd0a4f28419497f9722a3daafe3b4186f6b6457e05f80a380f35b602483604051907f1e4fbdf70000000000000000000000000000000000000000000000000000000082526004820152fd5b80fd5b5034610205576040366003190112610205576001600160a01b0361022a611dc2565b610232612044565b1681526003602052602435604082205580f35b50346102055780600319360112610205576020600454604051908152f35b503461020557806003193601126102055760206001600160a01b0360075416604051908152f35b5034610205576040366003190112610205576004356102a7611e06565b908083526020916005835260408420600781015460ff8160181c166103dc5760ff8160281c1661037257841c60ff16156103605750508252600581526040822060ff6007820154831c161561031c5760119061030233611fb6565b335f5260108201845260405f20550190524260405f205580f35b6064826040519062461bcd60e51b82526004820152601960248201527f4e6f74206120636f6e76696374696f6e2070726f706f73616c000000000000006044820152fd5b90915061036f92503390612087565b80f35b6084856040519062461bcd60e51b82526004820152602260248201527f55736520616e6f6e796d6f7573566f746520666f72205a4b2070726f706f736160448201527f6c730000000000000000000000000000000000000000000000000000000000006064820152fd5b6084856040519062461bcd60e51b82526004820152602360248201527f5573652072657665616c566f746520666f72207365637265742070726f706f7360448201527f616c7300000000000000000000000000000000000000000000000000000000006064820152fd5b50346102055760803660031901126102055760043590610464611e06565b916044359260643567ffffffffffffffff811161061257610489903690600401611dd8565b9050828452602094600586526040852060ff600782015460281c16156105ce57600e81019282875283885260ff60408820541661058a571561054657859660409385936001937f7c2de587c00d75474a0c6c6fa96fd3b45dc974cd4e8a75f712bb84c950dce1b5975f146105315761050f6003610505836122b5565b9201918254611ef7565b90555b88528152838720805460ff19168317905583519215158352820152a380f35b61053f6004610505836122b5565b9055610512565b6064876040519062461bcd60e51b82526004820152600d60248201527f496e76616c69642070726f6f66000000000000000000000000000000000000006044820152fd5b6064886040519062461bcd60e51b82526004820152601960248201527f416c726561647920766f74656420616e6f6e796d6f75736c79000000000000006044820152fd5b6064876040519062461bcd60e51b82526004820152601160248201527f4e6f742061205a4b2070726f706f73616c0000000000000000000000000000006044820152fd5b8380fd5b503461020557602036600319011261020557610630611dc2565b610638612044565b600854906001600160a01b03908183166106da5716908115610696578190816001600160a01b03198092161760085560075416176007557f7e7ee4175d63f671fac3401d5f401ed18d1f48a586e756f404d5696fc77a70588280a280f35b606460405162461bcd60e51b815260206004820152601860248201527f476f7665726e616e63653a205a65726f206164647265737300000000000000006044820152fd5b606460405162461bcd60e51b815260206004820152602060248201527f476f7665726e616e63653a2054696d656c6f636b20616c7265616479207365746044820152fd5b503461020557602036600319011261020557602061074261073d611dc2565b611fb6565b604051908152f35b503461020557806003193601126102055760206040516203f4808152f35b503461020557604036600319011261020557610782611e06565b50600435815260056020526040812060ff600782015460201c16156107c9576011906107ad33611fb6565b335f526010820160205260405f2055016020524260405f205580f35b606460405162461bcd60e51b815260206004820152601960248201527f4e6f74206120636f6e76696374696f6e2070726f706f73616c000000000000006044820152fd5b503461020557606036600319011261020557610827611e06565b60443567ffffffffffffffff811161097857610847903690600401611dd8565b919060043584526005602052604084209261086b60ff600786015460181c16611f6b565b600684015442111561090e576108a86021604051838194602083019688151560f81b88528484013781018883820152036001810184520182611d62565b519020335f52600f830160205260405f2054036108ca5761036f913390612087565b606460405162461bcd60e51b815260206004820152601360248201527f496e76616c69642072657665616c2f68617368000000000000000000000000006044820152fd5b608460405162461bcd60e51b815260206004820152602660248201527f566f74696e67207374696c6c20616374697665202852657665616c206166746560448201527f7220656e642900000000000000000000000000000000000000000000000000006064820152fd5b8280fd5b503461020557604036600319011261020557600435815260206005815260408220906109b160ff600784015460181c16611f6b565b600582015442101580610a87575b15610a4357600d820191335f5282825260ff60405f2054166109ff57600f90335f5201815260243560405f20555260405f20600160ff1982541617905580f35b6064826040519062461bcd60e51b82526004820152601760248201527f416c726561647920636f6d6d69747465642f766f7465640000000000000000006044820152fd5b6064906040519062461bcd60e51b82526004820152601160248201527f566f74696e67206e6f74206163746976650000000000000000000000000000006044820152fd5b5060068201544211156109bf565b5034610205578060031936011261020557602060405160058152f35b503461020557602080600319360112610f185760043590818352600581526040832090600782015460ff8160301c16610eae576006830154421115610e6a5760ff8116610e2657600c8301805460ff8116610de2576001600160a01b0392836008541615610d9e5760101c60ff1615610d8e576004850154600386015410155b15610d245760ff1916600117905560405182810185815283825290610b5581611d46565b519020908581600754169282600a87015416604051947ff27a0c9200000000000000000000000000000000000000000000000000000000978887528787600481855afa968715610d19578597610ce6575b50813b15610cd55784610c01938195604051998a96879586947f01d5062a000000000000000000000000000000000000000000000000000000008652600486015285602486015260c06044860152600b60c486019101611e15565b91846064850152608484015260a483015203925af1928315610cd9578493610cbc575b5050600754169260046040518095819382525afa918215610cb1578492610c7c575b50610c727fc6a6bfbc8458195c64bb968c637b0e2546b06ae5b2d281e84595b3d86bd5f26c9242611ef7565b604051908152a280f35b91508082813d8311610caa575b610c938183611d62565b81010312610ca657905190610c72610c46565b5f80fd5b503d610c89565b6040513d86823e3d90fd5b610cc891929350611d1e565b610cd5578190855f610c24565b8480fd5b50604051903d90823e3d90fd5b88809298508196503d8311610d12575b610d008183611d62565b81010312610ca657899351955f610ba6565b503d610cf6565b6040513d87823e3d90fd5b6084846040519062461bcd60e51b82526004820152602160248201527f476f7665726e616e63653a2050726f706f73616c20646964206e6f742070617360448201527f73000000000000000000000000000000000000000000000000000000000000006064820152fd5b6003850154600486015410610b31565b6064856040519062461bcd60e51b82526004820152601c60248201527f476f7665726e616e63653a2054696d656c6f636b206e6f7420736574000000006044820152fd5b6064846040519062461bcd60e51b82526004820152601a60248201527f476f7665726e616e63653a20416c7265616479207175657565640000000000006044820152fd5b6064826040519062461bcd60e51b82526004820152601c60248201527f476f7665726e616e63653a20416c7265616479206578656375746564000000006044820152fd5b6064826040519062461bcd60e51b82526004820152601f60248201527f476f7665726e616e63653a20566f74696e67207374696c6c20616374697665006044820152fd5b6084826040519062461bcd60e51b82526004820152603060248201527f476f7665726e616e63653a2050726f706f73616c2069732073757370656e646560448201527f64206279206172626974726174696f6e000000000000000000000000000000006064820152fd5b5080fd5b50346102055780600319360112610205576001600160a01b036020915416604051908152f35b50346102055760203660031901126102055760406020916001600160a01b03610f69611dc2565b168152600383522054604051908152f35b5034610205578060031936011261020557610f93612044565b5f6001600160a01b0381546001600160a01b031981168355167f8be0079c531659141344cd1fd0a4f28419497f9722a3daafe3b4186f6b6457e08280a380f35b503461020557602036600319011261020557600435808252600560205260408220906007820190815460ff8116611057577fe80aa9ff8276668f96be74a02eb3bf8ae9b2a2721532a947322f0d3903a2432593604093660100000000000060089366ff0000000000001916179055613039918291015582519182526020820152a180f35b606460405162461bcd60e51b815260206004820152601360248201527f546f6f206c61746520746f2064697370757465000000000000000000000000006044820152fd5b5034610205576020366003190112610205576020610742600435611f04565b5034610205576020366003190112610205576110d4611dc2565b33825260066020526001600160a01b0360408320911690816001600160a01b0319825416179055337ffebe6a843a6e8619caefe34ed9eb795fe2aeea18f53ee8191b29d86ae96cb20c8380a380f35b50346102055760203660031901126102055760209060406001600160a01b03918261114c611dc2565b16815260068452205416604051908152f35b50346102055760209060206003193601126102055767ffffffffffffffff60043581811161097857611194903690600401611dd8565b90338452600260205260408420928211611260576111bc826111b68554611c55565b85611ea8565b8394601f83116001146111fd5750839482916111ed9495926111f2575b50508160011b915f199060031b1c19161790565b905580f35b013590505f806111d9565b90601f19831695848652602086209286905b8882106112485750508360019596971061122f575b505050811b01905580f35b01355f19600384901b60f8161c191690555f8080611224565b8060018496829495870135815501950192019061120f565b602484634e487b7160e01b81526041600452fd5b5034610205576101203660031901126102055760043567ffffffffffffffff8111610f18576112a7903690600401611dd8565b6112b2929192611e06565b92604435938415158503610ca657606435908115158203610ca657608435151560843503610ca65760a435908115158203610ca65760e435906001600160a01b03908183168303610ca6576101043567ffffffffffffffff811161173f5761131e903690600401611dd8565b949095602460208560015416604051928380926370a0823160e01b82523360048301525afa8015611734578b90611701575b600591501061169757611364600454611e86565b9a8b6004558b8b52600560205260408b209b8c5560018c01336001600160a01b031982541617905567ffffffffffffffff8a11611683576113b58a8d60026113ae81830154611c55565b9101611ea8565b8a8a8c601f8211600114611617576113e0928261160c575b508160011b915f199060031b1c19161790565b60028d01555b4260058d0155608435156115e5576301e1338042018042116115d1579163ff00000062ff00009b9c9d969492600b9896945b6006890155600788019415159c8d9461ff0065ff0000000000885492151560281b169660081b169065ffffffffff0019161791151560101b161791151560181b161764ff00000000608435151560201b161717905560c4356009840155600a830191166001600160a01b0319825416179055019167ffffffffffffffff82116115bd576114a9826111b68554611c55565b8690601f83116001146115375791806114fa927f858151aa03c0b4c7da666b070628ac88b978482fd9c505d93c1a5becaf063d399695948a926111f25750508160011b915f199060031b1c19161790565b90555b600454928460405192604084528160408501526060840137856060868401015260208201526060813395601f80199101168101030190a380f35b8388526020882091601f198416895b8181106115a557509160019391857f858151aa03c0b4c7da666b070628ac88b978482fd9c505d93c1a5becaf063d39989796941061158c575b505050811b0190556114fd565b01355f19600384901b60f8161c191690555f808061157f565b91936020600181928787013581550195019201611546565b602487634e487b7160e01b81526041600452fd5b60248c634e487b7160e01b81526011600452fd5b6203f48042018042116115d1579163ff00000062ff00009b9c9d969492600b989694611418565b90508b01355f6113cd565b505060028d018c5260208c20908c5b8b601f198e16821061166b5750508b601f19811610611652575b505060018a811b0160028d01556113e6565b8a01355f1960038d901b60f8161c191690555f80611640565b60018394602093948493013581550193019101611626565b60248b634e487b7160e01b81526041600452fd5b608460405162461bcd60e51b815260206004820152602f60248201527f476f7665726e616e63653a2050726f706f7365722072657075746174696f6e2060448201527f62656c6f77207468726573686f6c6400000000000000000000000000000000006064820152fd5b506020813d60201161172c575b8161171b60209383611d62565b81010312610ca65760059051611350565b3d915061170e565b6040513d8d823e3d90fd5b8880fd5b503461020557806003193601126102055760206001600160a01b0360085416604051908152f35b5034610205578060031936011261020557602060405160028152f35b5034610205576020366003190112610205576117c96117d060406117e4936001600160a01b036117b4611dc2565b16815260026020522060405192838092611c8d565b0382611d62565b604051918291602083526020830190611d84565b0390f35b50346102055760203660031901126102055760206004358015159081611814575b506040519015158152f35b9050600454101582611809565b5034610ca65760209081600319360112610ca65760043591825f526005815260405f2060078101805460ff8160301c16611a5b5760ff600c8401541615611a175760068301544211156119d35760ff811661198f5760ff191660011790556040518281018581528382529061189581611d46565b519020906001600160a01b03806007541690600a8301541690803b15610ca6575f928361190893604051968795869485937f134008d3000000000000000000000000000000000000000000000000000000008552600485015284602485015260a06044850152600b60a485019101611e15565b90836064840152608483015203925af1801561198457611951575b507f712ae1383f79ac853f8d882153778e0260ef8f03b504e2866e0593e04d2b291f9192604051908152a180f35b7f712ae1383f79ac853f8d882153778e0260ef8f03b504e2866e0593e04d2b291f925061197d90611d1e565b5f91611923565b6040513d5f823e3d90fd5b6064846040519062461bcd60e51b82526004820152601060248201527f416c7265616479206578656375746564000000000000000000000000000000006044820152fd5b6064846040519062461bcd60e51b82526004820152601360248201527f566f74696e67207374696c6c20616374697665000000000000000000000000006044820152fd5b6064846040519062461bcd60e51b82526004820152601c60248201527f476f7665726e616e63653a204d757374207175657565206669727374000000006044820152fd5b6084846040519062461bcd60e51b825260048201526024808201527f50726f706f73616c2069732073757370656e646564206279206172626974726160448201527f74696f6e000000000000000000000000000000000000000000000000000000006064820152fd5b34610ca6575f366003190112610ca65760206001600160a01b0360015416604051908152f35b34610ca6576020366003190112610ca6576004355f52600560205260405f20908154906001600160a01b0392836001820154169382806002840190611b2e91611c8d565b03611b399084611d62565b60038201549060048301549060058401546006850154600786015460ff91600888015493600989015495600a8a01541696846040519a8b80600b830190611b7f91611c8d565b03611b8a908d611d62565b600c0154169a6040519d8e9d8e61026092839282526020820152604001528d01611bb391611d84565b9860608d015260808c015260a08b015260c08a0152818116151560e08a0152818160081c1615156101008a0152818160101c1615156101208a0152818160181c1615156101408a0152818160201c1615156101608a0152818160281c1615156101808a015260301c1615156101a08801526101c08701526101e0860152610200850152838103610220850152611c4891611d84565b9015156102408301520390f35b90600182811c92168015611c83575b6020831014611c6f57565b634e487b7160e01b5f52602260045260245ffd5b91607f1691611c64565b80545f9392611c9b82611c55565b918282526020936001916001811690815f14611cff5750600114611cc1575b5050505050565b90939495505f92919252835f2092845f945b838610611ceb57505050500101905f80808080611cba565b805485870183015294019385908201611cd3565b60ff19168685015250505090151560051b010191505f80808080611cba565b67ffffffffffffffff8111611d3257604052565b634e487b7160e01b5f52604160045260245ffd5b6040810190811067ffffffffffffffff821117611d3257604052565b90601f8019910116810190811067ffffffffffffffff821117611d3257604052565b91908251928382525f5b848110611dae575050825f602080949584010152601f8019910116010190565b602081830181015184830182015201611d8e565b600435906001600160a01b0382168203610ca657565b9181601f84011215610ca65782359167ffffffffffffffff8311610ca65760208381860195010111610ca657565b602435908115158203610ca657565b80545f9392611e2382611c55565b918282526020936001916001811690815f14611cff5750600114611e48575050505050565b90939495505f92919252835f2092845f945b838610611e7257505050500101905f80808080611cba565b805485870183015294019385908201611e5a565b5f198114611e945760010190565b634e487b7160e01b5f52601160045260245ffd5b601f8211611eb557505050565b5f5260205f20906020601f840160051c83019310611eed575b601f0160051c01905b818110611ee2575050565b5f8155600101611ed7565b9091508190611ece565b91908201809211611e9457565b5f52600560205260405f2060ff600782015460201c1615611f6657600381015490335f5260108101602052601160405f2054910160205260405f2054420390428211611e9457818102918183041490151715611e9457611f6391611ef7565b90565b505f90565b15611f7257565b606460405162461bcd60e51b815260206004820152601560248201527f4e6f742061207365637265742070726f706f73616c00000000000000000000006044820152fd5b60206001600160a01b03602481600154169360405194859384926370a0823160e01b84521660048301525afa908115611984575f91612012575b5060045460015b8181111561200457505090565b61200d90611e86565b611ff7565b90506020813d60201161203c575b8161202d60209383611d62565b81010312610ca657515f611ff0565b3d9150612020565b6001600160a01b035f5416330361205757565b60246040517f118cdaa7000000000000000000000000000000000000000000000000000000008152336004820152fd5b9060058201544210158061227f575b1561223b57600782019160ff835460181c16156121b2575b6120b782611fb6565b92831561216e577f7c2de587c00d75474a0c6c6fa96fd3b45dc974cd4e8a75f712bb84c950dce1b59260409260ff6001600160a01b0393885f1461214e576120ff88846122ce565b61210e60038501918254611ef7565b90555b5460181c161561212f575b54948351961515875260208701521693a3565b8282165f52600d8101602052835f20600160ff1982541617905561211c565b61215888846122ce565b61216760048501918254611ef7565b9055612111565b606460405162461bcd60e51b815260206004820152601d60248201527f476f7665726e616e63653a205a65726f20766f74696e6720706f7765720000006044820152fd5b6001600160a01b0382165f52600d810160205260ff60405f205416156120ae57608460405162461bcd60e51b8152602060048201526024808201527f476f7665726e616e63653a20446f75626c6520766f74696e6720646973616c6c60448201527f6f776564000000000000000000000000000000000000000000000000000000006064820152fd5b606460405162461bcd60e51b815260206004820152600d60248201527f57696e646f7720636c6f736564000000000000000000000000000000000000006044820152fd5b50600782015460181c60ff16156122ab5760068201546202a3008101809111611e94575b421115612096565b60068201546122a3565b6007015460081c60ff16156122c957600190565b600190565b6007015460081c60ff1615611f6357606481101561236157605181101561235b57604081101561235557603181101561234f57602481101561234957601981101561234357601081101561233d576009811015612337576004111561233257600190565b600290565b50600390565b50600490565b50600590565b50600690565b50600790565b50600890565b50600990565b50600a9056fea26469706673582212200b70d7f042b5436c2465a15ea46f3c366fbdae64be48a44367f13285f4e2bdad64736f6c63430008180033",
  "linkReferences": {},
  "deployedLinkReferences": {}
}