{
  "_format": "hh-sol-artifact-1",
  "contractName": "FreelanceSBT",
  "sourceName": "contracts/FreelanceSBT.sol",
  "abi": [
    {
      "inputs": [
        {
          "internalType": "address",
          "name": "defaultAdmin",
          "type": "address"
        },
        {
          "internalType": "address",
          "name": "minter",
          "type": "address"
        }
      ],
      "stateMutability": "nonpayable",
      "type": "constructor"
    },
    {
      "inputs": [],
      "name": "AccessControlBadConfirmation",
      "type": "error"
    },
    {
      "inputs": [
        {
          "internalType": "address",
          "name": "account",
          "type": "address"
        },
        {
          "internalType": "bytes32",
          "name": "neededRole",
          "type": "bytes32"
        }
      ],
      "name": "AccessControlUnauthorizedAccount",
      "type": "error"
    },
    {
      "inputs": [
        {
          "internalType": "address",
          "name": "sender",
          "type": "address"
        },
        {
          "internalType": "uint256",
          "name": "tokenId",
          "type": "uint256"
        },
        {
          "internalType": "address",
          "name": "owner",
          "type": "address"
        }
      ],
      "name": "ERC721IncorrectOwner",
      "type": "error"
    },
    {
      "inputs": [
        {
          "internalType": "address",
          "name": "operator",
          "type": "address"
        },
        {
          "internalType": "uint256",
          "name": "tokenId",
          "type": "uint256"
        }
      ],
      "name": "ERC721InsufficientApproval",
      "type": "error"
    },
    {
      "inputs": [
        {
          "internalType": "address",
          "name": "approver",
          "type": "address"
        }
      ],
      "name": "ERC721InvalidApprover",
      "type": "error"
    },
    {
      "inputs": [
        {
          "internalType": "address",
          "name": "operator",
          "type": "address"
        }
      ],
      "name": "ERC721InvalidOperator",
      "type": "error"
    },
    {
      "inputs": [
        {
          "internalType": "address",
          "name": "owner",
          "type": "address"
        }
      ],
      "name": "ERC721InvalidOwner",
      "type": "error"
    },
    {
      "inputs": [
        {
          "internalType": "address",
          "name": "receiver",
          "type": "address"
        }
      ],
      "name": "ERC721InvalidReceiver",
      "type": "error"
    },
    {
      "inputs": [
        {
          "internalType": "address",
          "name": "sender",
          "type": "address"
        }
      ],
      "name": "ERC721InvalidSender",
      "type": "error"
    },
    {
      "inputs": [
        {
          "internalType": "uint256",
          "name": "tokenId",
          "type": "uint256"
        }
      ],
      "name": "ERC721NonexistentToken",
      "type": "error"
    },
    {
      "inputs": [],
      "name": "SoulboundTokenNonTransferable",
      "type": "error"
    },
    {
      "anonymous": false,
      "inputs": [
        {
          "indexed": true,
          "internalType": "address",
          "name": "owner",
          "type": "address"
        },
        {
          "indexed": true,
          "internalType": "address",
          "name": "approved",
          "type": "address"
        },
        {
          "indexed": true,
          "internalType": "uint256",
          "name": "tokenId",
          "type": "uint256"
        }
      ],
      "name": "Approval",
      "type": "event"
    },
    {
      "anonymous": false,
      "inputs": [
        {
          "indexed": true,
          "internalType": "address",
          "name": "owner",
          "type": "address"
        },
        {
          "indexed": true,
          "internalType": "address",
          "name": "operator",
          "type": "address"
        },
        {
          "indexed": false,
          "internalType": "bool",
          "name": "approved",
          "type": "bool"
        }
      ],
      "name": "ApprovalForAll",
      "type": "event"
    },
    {
      "anonymous": false,
      "inputs": [
        {
          "indexed": false,
          "internalType": "uint256",
          "name": "_fromTokenId",
          "type": "uint256"
        },
        {
          "indexed": false,
          "internalType": "uint256",
          "name": "_toTokenId",
          "type": "uint256"
        }
      ],
      "name": "BatchMetadataUpdate",
      "type": "event"
    },
    {
      "anonymous": false,
      "inputs": [
        {
          "indexed": false,
          "internalType": "uint256",
          "name": "tokenId",
          "type": "uint256"
        }
      ],
      "name": "Locked",
      "type": "event"
    },
    {
      "anonymous": false,
      "inputs": [
        {
          "indexed": false,
          "internalType": "uint256",
          "name": "_tokenId",
          "type": "uint256"
        }
      ],
      "name": "MetadataUpdate",
      "type": "event"
    },
    {
      "anonymous": false,
      "inputs": [
        {
          "indexed": true,
          "internalType": "bytes32",
          "name": "role",
          "type": "bytes32"
        },
        {
          "indexed": true,
          "internalType": "bytes32",
          "name": "previousAdminRole",
          "type": "bytes32"
        },
        {
          "indexed": true,
          "internalType": "bytes32",
          "name": "newAdminRole",
          "type": "bytes32"
        }
      ],
      "name": "RoleAdminChanged",
      "type": "event"
    },
    {
      "anonymous": false,
      "inputs": [
        {
          "indexed": true,
          "internalType": "bytes32",
          "name": "role",
          "type": "bytes32"
        },
        {
          "indexed": true,
          "internalType": "address",
          "name": "account",
          "type": "address"
        },
        {
          "indexed": true,
          "internalType": "address",
          "name": "sender",
          "type": "address"
        }
      ],
      "name": "RoleGranted",
      "type": "event"
    },
    {
      "anonymous": false,
      "inputs": [
        {
          "indexed": true,
          "internalType": "bytes32",
          "name": "role",
          "type": "bytes32"
        },
        {
          "indexed": true,
          "internalType": "address",
          "name": "account",
          "type": "address"
        },
        {
          "indexed": true,
          "internalType": "address",
          "name": "sender",
          "type": "address"
        }
      ],
      "name": "RoleRevoked",
      "type": "event"
    },
    {
      "anonymous": false,
      "inputs": [
        {
          "indexed": true,
          "internalType": "address",
          "name": "from",
          "type": "address"
        },
        {
          "indexed": true,
          "internalType": "address",
          "name": "to",
          "type": "address"
        },
        {
          "indexed": true,
          "internalType": "uint256",
          "name": "tokenId",
          "type": "uint256"
        }
      ],
      "name": "Transfer",
      "type": "event"
    },
    {
      "anonymous": false,
      "inputs": [
        {
          "indexed": false,
          "internalType": "uint256",
          "name": "tokenId",
          "type": "uint256"
        }
      ],
      "name": "Unlocked",
      "type": "event"
    },
    {
      "inputs": [],
      "name": "DEFAULT_ADMIN_ROLE",
      "outputs": [
        {
          "internalType": "bytes32",
          "name": "",
          "type": "bytes32"
        }
      ],
      "stateMutability": "view",
      "type": "function"
    },
    {
      "inputs": [],
      "name": "MINTER_ROLE",
      "outputs": [
        {
          "internalType": "bytes32",
          "name": "",
          "type": "bytes32"
        }
      ],
      "stateMutability": "view",
      "type": "function"
    },
    {
      "inputs": [
        {
          "internalType": "address",
          "name": "to",
          "type": "address"
        },
        {
          "internalType": "uint256",
          "name": "tokenId",
          "type": "uint256"
        }
      ],
      "name": "approve",
      "outputs": [],
      "stateMutability": "nonpayable",
      "type": "function"
    },
    {
      "inputs": [
        {
          "internalType": "address",
          "name": "owner",
          "type": "address"
        }
      ],
      "name": "balanceOf",
      "outputs": [
        {
          "internalType": "uint256",
          "name": "",
          "type": "uint256"
        }
      ],
      "stateMutability": "view",
      "type": "function"
    },
    {
      "inputs": [
        {
          "internalType": "uint256",
          "name": "tokenId",
          "type": "uint256"
        }
      ],
      "name": "getApproved",
      "outputs": [
        {
          "internalType": "address",
          "name": "",
          "type": "address"
        }
      ],
      "stateMutability": "view",
      "type": "function"
    },
    {
      "inputs": [
        {
          "internalType": "bytes32",
          "name": "role",
          "type": "bytes32"
        }
      ],
      "name": "getRoleAdmin",
      "outputs": [
        {
          "internalType": "bytes32",
          "name": "",
          "type": "bytes32"
        }
      ],
      "stateMutability": "view",
      "type": "function"
    },
    {
      "inputs": [
        {
          "internalType": "bytes32",
          "name": "role",
          "type": "bytes32"
        },
        {
          "internalType": "address",
          "name": "account",
          "type": "address"
        }
      ],
      "name": "grantRole",
      "outputs": [],
      "stateMutability": "nonpayable",
      "type": "function"
    },
    {
      "inputs": [
        {
          "internalType": "bytes32",
          "name": "role",
          "type": "bytes32"
        },
        {
          "internalType": "address",
          "name": "account",
          "type": "address"
        }
      ],
      "name": "hasRole",
      "outputs": [
        {
          "internalType": "bool",
          "name": "",
          "type": "bool"
        }
      ],
      "stateMutability": "view",
      "type": "function"
    },
    {
      "inputs": [
        {
          "internalType": "address",
          "name": "owner",
          "type": "address"
        },
        {
          "internalType": "address",
          "name": "operator",
          "type": "address"
        }
      ],
      "name": "isApprovedForAll",
      "outputs": [
        {
          "internalType": "bool",
          "name": "",
          "type": "bool"
        }
      ],
      "stateMutability": "view",
      "type": "function"
    },
    {
      "inputs": [
        {
          "internalType": "uint256",
          "name": "tokenId",
          "type": "uint256"
        }
      ],
      "name": "locked",
      "outputs": [
        {
          "internalType": "bool",
          "name": "",
          "type": "bool"
        }
      ],
      "stateMutability": "view",
      "type": "function"
    },
    {
      "inputs": [],
      "name": "name",
      "outputs": [
        {
          "internalType": "string",
          "name": "",
          "type": "string"
        }
      ],
      "stateMutability": "view",
      "type": "function"
    },
    {
      "inputs": [
        {
          "internalType": "uint256",
          "name": "tokenId",
          "type": "uint256"
        }
      ],
      "name": "ownerOf",
      "outputs": [
        {
          "internalType": "address",
          "name": "",
          "type": "address"
        }
      ],
      "stateMutability": "view",
      "type": "function"
    },
    {
      "inputs": [
        {
          "internalType": "bytes32",
          "name": "role",
          "type": "bytes32"
        },
        {
          "internalType": "address",
          "name": "callerConfirmation",
          "type": "address"
        }
      ],
      "name": "renounceRole",
      "outputs": [],
      "stateMutability": "nonpayable",
      "type": "function"
    },
    {
      "inputs": [
        {
          "internalType": "bytes32",
          "name": "role",
          "type": "bytes32"
        },
        {
          "internalType": "address",
          "name": "account",
          "type": "address"
        }
      ],
      "name": "revokeRole",
      "outputs": [],
      "stateMutability": "nonpayable",
      "type": "function"
    },
    {
      "inputs": [
        {
          "internalType": "address",
          "name": "to",
          "type": "address"
        },
        {
          "internalType": "string",
          "name": "uri",
          "type": "string"
        }
      ],
      "name": "safeMint",
      "outputs": [],
      "stateMutability": "nonpayable",
      "type": "function"
    },
    {
      "inputs": [
        {
          "internalType": "address",
          "name": "from",
          "type": "address"
        },
        {
          "internalType": "address",
          "name": "to",
          "type": "address"
        },
        {
          "internalType": "uint256",
          "name": "tokenId",
          "type": "uint256"
        }
      ],
      "name": "safeTransferFrom",
      "outputs": [],
      "stateMutability": "nonpayable",
      "type": "function"
    },
    {
      "inputs": [
        {
          "internalType": "address",
          "name": "from",
          "type": "address"
        },
        {
          "internalType": "address",
          "name": "to",
          "type": "address"
        },
        {
          "internalType": "uint256",
          "name": "tokenId",
          "type": "uint256"
        },
        {
          "internalType": "bytes",
          "name": "data",
          "type": "bytes"
        }
      ],
      "name": "safeTransferFrom",
      "outputs": [],
      "stateMutability": "nonpayable",
      "type": "function"
    },
    {
      "inputs": [
        {
          "internalType": "address",
          "name": "operator",
          "type": "address"
        },
        {
          "internalType": "bool",
          "name": "approved",
          "type": "bool"
        }
      ],
      "name": "setApprovalForAll",
      "outputs": [],
      "stateMutability": "nonpayable",
      "type": "function"
    },
    {
      "inputs": [
        {
          "internalType": "bytes4",
          "name": "interfaceId",
          "type": "bytes4"
        }
      ],
      "name": "supportsInterface",
      "outputs": [
        {
          "internalType": "bool",
          "name": "",
          "type": "bool"
        }
      ],
      "stateMutability": "view",
      "type": "function"
    },
    {
      "inputs": [],
      "name": "symbol",
      "outputs": [
        {
          "internalType": "string",
          "name": "",
          "type": "string"
        }
      ],
      "stateMutability": "view",
      "type": "function"
    },
    {
      "inputs": [
        {
          "internalType": "uint256",
          "name": "tokenId",
          "type": "uint256"
        }
      ],
      "name": "tokenURI",
      "outputs": [
        {
          "internalType": "string",
          "name": "",
          "type": "string"
        }
      ],
      "stateMutability": "view",
      "type": "function"
    },
    {
      "inputs": [
        {
          "internalType": "address",
          "name": "from",
          "type": "address"
        },
        {
          "internalType": "address",
          "name": "to",
          "type": "address"
        },
        {
          "internalType": "uint256",
          "name": "tokenId",
          "type": "uint256"
        }
      ],
      "name": "transferFrom",
      "outputs": [],
      "stateMutability": "nonpayable",
      "type": "function"
    }
  ],
  "bytecode": "0x6080346200034f57601f90601f19906001600160401b039062001af73881900385810185168301919084831184841017620002715780849260409485528339810103126200034f57620000528162000373565b9162000062602080930162000373565b936200006d62000353565b92601484527f467265656c616e63652052657075746174696f6e00000000000000000000000081850152620000a162000353565b9160048352630465245560e41b82840152845184811162000271575f546001968782811c9216801562000344575b858310146200025257818b849311620002f1575b5084908b831160011462000291575f9262000285575b50505f19600383901b1c191690861b175f555b8251938411620002715784548581811c9116801562000266575b8382101462000252578881116200020a575b50819784116001146200019957505090806200017c96620001759594935f926200018d575b50505f19600383901b1c191690821b17905562000388565b50620003f8565b5060405161161d90816200049a8239f35b015190505f806200015d565b5f858152828120989392918516915b828210620001f2575050968493919262000175969593836200017c9a10620001d9575b505050811b01905562000388565b01515f1960f88460031b161c191690555f8080620001cb565b838501518a55988601989384019390810190620001a8565b855f52825f208980870160051c82019285881062000248575b0160051c019086905b8281106200023c57505062000138565b5f81550186906200022c565b9250819262000223565b634e487b7160e01b5f52602260045260245ffd5b90607f169062000126565b634e487b7160e01b5f52604160045260245ffd5b015190505f80620000f9565b9084899416915f8052865f20925f5b88828210620002da5750508411620002c1575b505050811b015f556200010c565b01515f1960f88460031b161c191690555f8080620002b3565b8385015186558c97909501949384019301620002a0565b9091505f8052845f208b80850160051c8201928786106200033a575b918a91869594930160051c01915b8281106200032b575050620000e3565b5f81558594508a91016200031b565b925081926200030d565b91607f1691620000cf565b5f80fd5b60408051919082016001600160401b038111838210176200027157604052565b51906001600160a01b03821682036200034f57565b6001600160a01b03165f8181525f8051602062001ad7833981519152602052604090205460ff16620003f3575f8181525f8051602062001ad783398151915260205260408120805460ff191660011790553391905f8051602062001ab78339815191528180a4600190565b505f90565b6001600160a01b03165f8181527fa4bfd7afe708e2e87e7f0e2ad9b4d545417e0f795f57b5c5ab5d799c565a04f460205260409020547f9f2df0fed2c77648de5860a4cc508cd0818c85b8b8a1ab4ceeef8d981c8956a6919060ff166200049357815f52600760205260405f20815f5260205260405f20600160ff1982541617905533915f8051602062001ab78339815191525f80a4600190565b50505f9056fe6080604090808252600480361015610015575f80fd5b5f3560e01c91826301ffc9a714610d215750816306fdde0314610c74578163081812fc14610c3b578163095ea7b314610b6157816323b872dd14610b4a578163248a9ca314610b205781632f2ff15d14610af857816336568abe14610a9b57816342842e0e14610a6d5781636352211e14610a3f57816370a08231146109d257816391d148541461098d57816395d89b41146108aa578163a217fddf14610890578163a22cb465146107c0578163b45a3c0e1461072c578163b88d4fde146106c2578163c87b56dd1461068c578163d204c45e146101da578163d5391393146101a0578163d547741f14610164575063e985e9c514610112575f80fd5b3461016057806003193601126101605760209061012d610eb6565b610135610ecc565b906001600160a01b038091165f5260058452825f2091165f52825260ff815f20541690519015158152f35b5f80fd5b823461016057806003193601126101605761019e91356101996001610187610ecc565b93835f5260076020525f200154611227565b6112e6565b005b8234610160575f36600319011261016057602090517f9f2df0fed2c77648de5860a4cc508cd0818c85b8b8a1ab4ceeef8d981c8956a68152f35b82346101605780600319360112610160576101f3610eb6565b67ffffffffffffffff916024803584811161016057366023820112156101605761022590369083818901359101610f85565b947f9f2df0fed2c77648de5860a4cc508cd0818c85b8b8a1ab4ceeef8d981c8956a694855f5260209560078752845f20335f52875260ff855f205416156106705750600854945f199788871461065e57600192838801600855875f5260068952865f2091805191821161064c57819061029e8454610fbb565b601f81116105fc575b508a90601f831160011461059c575f92610591575b50508a82861b9260031b1c19161790555b7ff8e1a15aba9398e019f0b49df1a4fde98ee17ae345cb5f6b5e2c27f5033e8ce7878651888152a184519761030189610f17565b5f89526001600160a01b039283831693841561057c57885f5260028a5280885f205416151580610575575b6105665788918591835f5260028c52895f205416908115159485610531575b50825f5260038c52895f20908154019055825f5260028b52885f20826001600160a01b03198254161790557fddf252ad1be2c89b69c2b068fc378daa952ba7f163c4a11628f55a4df523b3ef5f80a4610503573b6103cf575b7f032bc66be43dbccb7487781d168eb7bda224628a3b2c3388bdf69b532a3a161186868651908152a1005b93909491958351838180610409630a85bd0160e11b95868352338c8401525f8d840152876044840152608060648401526084830190610e91565b03815f8a5af15f91816104c3575b5061046e575050503d5f14610466573d9061043182610f69565b9161043e84519384610f47565b82523d5f8284013e5b81519182610463575050505191633250574960e11b8352820152fd5b01fd5b606090610447565b9295919491926001600160e01b031916036104b05750507f032bc66be43dbccb7487781d168eb7bda224628a3b2c3388bdf69b532a3a161193508480806103a4565b85925191633250574960e11b8352820152fd5b9091508481813d83116104fc575b6104db8183610f47565b8101031261016057516001600160e01b031981168103610160579089610417565b503d6104d1565b50505f8351917f73c6ac6e000000000000000000000000000000000000000000000000000000008352820152fd5b610550855f52600460205260405f206001600160a01b03198154169055565b825f5260038d528a5f209081540190558d61034b565b85885163216dcda760e01b8152fd5b508161032c565b86865f8a5191633250574960e11b8352820152fd5b015190508b806102bc565b5f8581528c8120889550929190601f198516908e5b8282106105e557505084116105ce575b505050811b0190556102cd565b01518c60f88460031b161c191690558b80806105c1565b8385015186558a979095019493840193018e6105b1565b909150835f528a5f20601f840160051c8101918c8510610642575b84939291601f89920160051c01915b8281106106345750506102a7565b5f8155859450889101610626565b9091508190610617565b86604187634e487b7160e01b5f52525ffd5b84601185634e487b7160e01b5f52525ffd5b905060449284519263e2517d3f60e01b84523390840152820152fd5b8234610160576020366003190112610160576106ab6106be923561149e565b9051918291602083526020830190610e91565b0390f35b34610160576080366003190112610160576106db610eb6565b6106e3610ecc565b6044359060643567ffffffffffffffff811161016057366023820112156101605761019e9481602461071a93369301359101610f85565b92610726838383610ff3565b3361135b565b9050346101605760203660031901126101605780355f5260026020526001600160a01b03825f20541615610764576020825160018152f35b602060649251917f08c379a0000000000000000000000000000000000000000000000000000000008352820152601160248201527f4e6f6e6578697374656e7420746f6b656e0000000000000000000000000000006044820152fd5b82346101605780600319360112610160576107d9610eb6565b906024359182151580930361016057331561087a576001600160a01b031692831561084c5750335f526005602052805f20835f52602052805f2060ff1981541660ff8416179055519081527f17307eab39ab6107e8899845ad3d59bd9653f200f220920489ca2b5937696c3160203392a3005b8360249251917f5b08ba18000000000000000000000000000000000000000000000000000000008352820152fd5b6024845f84519163a9fbf51f60e01b8352820152fd5b8234610160575f36600319011261016057602090515f8152f35b8234610160575f366003190112610160578051905f9082600192600154936108d185610fbb565b90818452602095866001821691825f1461096b575050600114610910575b50506106be9291610901910385610f47565b51928284938452830190610e91565b9085925060015f527fb10e2d527612073b26eecdfd717e6a320cf44b4afac2b0732d9fcbe2b7fa0cf6915f925b82841061095357505050820101816109016108ef565b8054848a01860152889550879490930192810161093d565b60ff19168682015292151560051b8501909201925083915061090190506108ef565b82346101605780600319360112610160576020916109a9610ecc565b90355f52600783526001600160a01b03825f2091165f52825260ff815f20541690519015158152f35b8234610160576020366003190112610160576001600160a01b036109f4610eb6565b168015610a1057602092505f5260038252805f20549051908152f35b6024835f8451917f89c62b64000000000000000000000000000000000000000000000000000000008352820152fd5b8234610160576020366003190112610160576001600160a01b03610a65602093356111ee565b915191168152f35b82346101605761019e90610a8036610ee2565b91925192610a8d84610f17565b5f8452610726838383610ff3565b8234610160578060031936011261016057610ab4610ecc565b90336001600160a01b03831603610ad0575061019e91356112e6565b9050517f6697b232000000000000000000000000000000000000000000000000000000008152fd5b823461016057806003193601126101605761019e9135610b1b6001610187610ecc565b611267565b823461016057602036600319011261016057602091355f52600782526001815f2001549051908152f35b346101605761019e610b5b36610ee2565b91610ff3565b8234610160578060031936011261016057610b7a610eb6565b91602435610b87816111ee565b33151580610c28575b80610c00575b610bea5781906001600160a01b03809616958691167f8c5be1e5ebec7d5bd14f71427d1e84f3dd0314c0f7b2291e5b200ac8c7c3b9255f80a45f526020525f20906001600160a01b03198254161790555f80f35b835163a9fbf51f60e01b81523381850152602490fd5b506001600160a01b0381165f526005602052835f20335f5260205260ff845f20541615610b96565b50336001600160a01b0382161415610b90565b8234610160576020366003190112610160578160209235610c5b816111ee565b505f5282526001600160a01b03815f2054169051908152f35b8234610160575f366003190112610160578051905f90825f5492610c9784610fbb565b808352602094600190866001821691825f1461096b575050600114610cc85750506106be9291610901910385610f47565b5f80805286935091907f290decd9548b62a8d60345a988386fc84ba6bc95484008f6362f93160ef3e5635b828410610d0957505050820101816109016108ef565b8054848a018601528895508794909301928101610cf3565b90346101605760203660031901126101605735906001600160e01b0319821680920361016057817fb45a3c0e0000000000000000000000000000000000000000000000000000000060209314908115610d7c575b5015158152f35b7f7965db0b00000000000000000000000000000000000000000000000000000000811491508115610daf575b5083610d75565b7f4906490600000000000000000000000000000000000000000000000000000000811491508115610de2575b5083610da8565b7f80ac58cd00000000000000000000000000000000000000000000000000000000811491508115610e46575b8115610e1c575b5083610ddb565b7f01ffc9a70000000000000000000000000000000000000000000000000000000091501483610e15565b7f5b5e139f0000000000000000000000000000000000000000000000000000000081149150610e0e565b5f5b838110610e815750505f910152565b8181015183820152602001610e72565b90602091610eaa81518092818552858086019101610e70565b601f01601f1916010190565b600435906001600160a01b038216820361016057565b602435906001600160a01b038216820361016057565b6060906003190112610160576001600160a01b0390600435828116810361016057916024359081168103610160579060443590565b6020810190811067ffffffffffffffff821117610f3357604052565b634e487b7160e01b5f52604160045260245ffd5b90601f8019910116810190811067ffffffffffffffff821117610f3357604052565b67ffffffffffffffff8111610f3357601f01601f191660200190565b929192610f9182610f69565b91610f9f6040519384610f47565b829481845281830111610160578281602093845f960137010152565b90600182811c92168015610fe9575b6020831014610fd557565b634e487b7160e01b5f52602260045260245ffd5b91607f1691610fca565b90916001600160a01b038093169283156111d757815f526020926002845260409482865f2054161515806111cf575b6111bf578390815f526002865283875f2054169533151580611114575b50600290876110df575b825f5260038152885f2060018154019055835f5252865f20816001600160a01b0319825416179055857fddf252ad1be2c89b69c2b068fc378daa952ba7f163c4a11628f55a4df523b3ef5f80a416928383036110a55750505050565b6064945051927f64283d7b000000000000000000000000000000000000000000000000000000008452600484015260248301526044820152fd5b6110fe845f52600460205260405f206001600160a01b03198154169055565b875f5260038152885f205f198154019055611049565b919250908061117e575b1561112c579084915f61103f565b868587611149576024915190637e27328960e01b82526004820152fd5b60449151907f177e802f0000000000000000000000000000000000000000000000000000000082523360048301526024820152fd5b5033861480156111a3575b8061111e5750845f52600481523384885f2054161461111e565b50855f5260058152865f20335f52815260ff875f205416611189565b6004865163216dcda760e01b8152fd5b506001611022565b6024604051633250574960e11b81525f6004820152fd5b805f5260026020526001600160a01b0360405f20541690811561120f575090565b60249060405190637e27328960e01b82526004820152fd5b805f52600760205260405f20335f5260205260ff60405f205416156112495750565b6044906040519063e2517d3f60e01b82523360048301526024820152fd5b90815f5260076020526001600160a01b0360405f20911690815f5260205260ff60405f205416155f146112e057815f52600760205260405f20815f5260205260405f20600160ff1982541617905533917f2f8788117e7eff1d82e926ec794901d17c78024a50270940304540a733656f0d5f80a4600190565b50505f90565b90815f5260076020526001600160a01b0360405f20911690815f5260205260ff60405f2054165f146112e057815f52600760205260405f20815f5260205260405f2060ff19815416905533917ff6391f5c32d9c69d2a47ea670b442974b53935d1edc7fd64eb21e047a839171b5f80a4600190565b9293909193843b61136e575b5050505050565b906113bc959392916001600160a01b03809616956040519381630a85bd0160e11b96878752166004860152166024840152604483015260806064830152818060209788936084830190610e91565b03815f885af15f918161145e575b50611428575050503d5f14611420573d916113e483610f69565b926113f26040519485610f47565b83523d5f8285013e5b8251928361141b5760248360405190633250574960e11b82526004820152fd5b019050fd5b6060916113fb565b6001600160e01b031991929450160361144657505f80808080611367565b60249060405190633250574960e11b82526004820152fd5b9091508581813d8311611497575b6114768183610f47565b8101031261016057516001600160e01b03198116810361016057905f6113ca565b503d61146c565b6114a7816111ee565b5060408051916114b683610f17565b5f8352805f52602060068152825f20938351945f868254916114d783610fbb565b9283835286830194600191886001821691825f146115c757505060011461158a575b505061150792500387610f47565b815195861561158057805161154357505050506115259192506111ee565b505f815161153281610f17565b525161153d81610f17565b5f815290565b90919293506115718661156261157d9751988996888089019101610e70565b84019151809386840190610e70565b01038084520182610f47565b90565b9550505050505090565b8792505f52815f20905f915b8583106115ae57505061150793508201015f806114f9565b8194848483969596549201015201910189928792611596565b925093505061150794915060ff19168552151560051b8201015f806114f956fea2646970667358221220b7a056e01c3e5e827d0b41b2c0b48c07ec59346cf7df1e9145403f9ebc3b8f3764736f6c634300081800332f8788117e7eff1d82e926ec794901d17c78024a50270940304540a733656f0d6d5257204ebe7d88fd91ae87941cb2dd9d8062b64ae5a2bd2d28ec40b9fbf6df",
  "linkReferences": {},
  "deployedLinkReferences": {}
}