{
  "_format": "hh-sol-artifact-1",
  "contractName": "InsurancePool",
  "sourceName": "contracts/InsurancePool.sol",
  "abi": [
    {
      "inputs": [
        {
          "internalType": "address",
          "name": "initialOwner",
          "type": "address"
        }
      ],
      "stateMutability": "nonpayable",
      "type": "constructor"
    },
    {
      "inputs": [],
      "name": "EnforcedPause",
      "type": "error"
    },
    {
      "inputs": [],
      "name": "ExpectedPause",
      "type": "error"
    },
    {
      "inputs": [],
      "name": "InsufficientFunds",
      "type": "error"
    },
    {
      "inputs": [],
      "name": "InvalidAddress",
      "type": "error"
    },
    {
      "inputs": [
        {
          "internalType": "address",
          "name": "owner",
          "type": "address"
        }
      ],
      "name": "OwnableInvalidOwner",
      "type": "error"
    },
    {
      "inputs": [
        {
          "internalType": "address",
          "name": "account",
          "type": "address"
        }
      ],
      "name": "OwnableUnauthorizedAccount",
      "type": "error"
    },
    {
      "inputs": [],
      "name": "ReentrancyGuardReentrantCall",
      "type": "error"
    },
    {
      "inputs": [
        {
          "internalType": "address",
          "name": "token",
          "type": "address"
        }
      ],
      "name": "SafeERC20FailedOperation",
      "type": "error"
    },
    {
      "inputs": [],
      "name": "TransferFailed",
      "type": "error"
    },
    {
      "inputs": [],
      "name": "UseDepositNative",
      "type": "error"
    },
    {
      "anonymous": false,
      "inputs": [
        {
          "indexed": true,
          "internalType": "address",
          "name": "token",
          "type": "address"
        },
        {
          "indexed": false,
          "internalType": "uint256",
          "name": "amount",
          "type": "uint256"
        }
      ],
      "name": "FundsAdded",
      "type": "event"
    },
    {
      "anonymous": false,
      "inputs": [
        {
          "indexed": true,
          "internalType": "address",
          "name": "previousOwner",
          "type": "address"
        },
        {
          "indexed": true,
          "internalType": "address",
          "name": "newOwner",
          "type": "address"
        }
      ],
      "name": "OwnershipTransferred",
      "type": "event"
    },
    {
      "anonymous": false,
      "inputs": [
        {
          "indexed": false,
          "internalType": "address",
          "name": "account",
          "type": "address"
        }
      ],
      "name": "Paused",
      "type": "event"
    },
    {
      "anonymous": false,
      "inputs": [
        {
          "indexed": true,
          "internalType": "address",
          "name": "token",
          "type": "address"
        },
        {
          "indexed": true,
          "internalType": "address",
          "name": "recipient",
          "type": "address"
        },
        {
          "indexed": false,
          "internalType": "uint256",
          "name": "amount",
          "type": "uint256"
        }
      ],
      "name": "PayoutExecuted",
      "type": "event"
    },
    {
      "anonymous": false,
      "inputs": [
        {
          "indexed": false,
          "internalType": "address",
          "name": "account",
          "type": "address"
        }
      ],
      "name": "Unpaused",
      "type": "event"
    },
    {
      "inputs": [
        {
          "internalType": "address",
          "name": "",
          "type": "address"
        }
      ],
      "name": "balances",
      "outputs": [
        {
          "internalType": "uint256",
          "name": "",
          "type": "uint256"
        }
      ],
      "stateMutability": "view",
      "type": "function"
    },
    {
      "inputs": [
        {
          "internalType": "address",
          "name": "token",
          "type": "address"
        },
        {
          "internalType": "uint256",
          "name": "amount",
          "type": "uint256"
        }
      ],
      "name": "deposit",
      "outputs": [],
      "stateMutability": "nonpayable",
      "type": "function"
    },
    {
      "inputs": [],
      "name": "depositNative",
      "outputs": [],
      "stateMutability": "payable",
      "type": "function"
    },
    {
      "inputs": [],
      "name": "owner",
      "outputs": [
        {
          "internalType": "address",
          "name": "",
          "type": "address"
        }
      ],
      "stateMutability": "view",
      "type": "function"
    },
    {
      "inputs": [],
      "name": "pause",
      "outputs": [],
      "stateMutability": "nonpayable",
      "type": "function"
    },
    {
      "inputs": [],
      "name": "paused",
      "outputs": [
        {
          "internalType": "bool",
          "name": "",
          "type": "bool"
        }
      ],
      "stateMutability": "view",
      "type": "function"
    },
    {
      "inputs": [
        {
          "internalType": "address",
          "name": "token",
          "type": "address"
        },
        {
          "internalType": "address",
          "name": "to",
          "type": "address"
        },
        {
          "internalType": "uint256",
          "name": "amount",
          "type": "uint256"
        }
      ],
      "name": "payout",
      "outputs": [],
      "stateMutability": "nonpayable",
      "type": "function"
    },
    {
      "inputs": [],
      "name": "renounceOwnership",
      "outputs": [],
      "stateMutability": "nonpayable",
      "type": "function"
    },
    {
      "inputs": [
        {
          "internalType": "address",
          "name": "",
          "type": "address"
        }
      ],
      "name": "totalInsurancePool",
      "outputs": [
        {
          "internalType": "uint256",
          "name": "",
          "type": "uint256"
        }
      ],
      "stateMutability": "view",
      "type": "function"
    },
    {
      "inputs": [
        {
          "internalType": "address",
          "name": "newOwner",
          "type": "address"
        }
      ],
      "name": "transferOwnership",
      "outputs": [],
      "stateMutability": "nonpayable",
      "type": "function"
    },
    {
      "inputs": [],
      "name": "unpause",
      "outputs": [],
      "stateMutability": "nonpayable",
      "type": "function"
    },
    {
      "stateMutability": "payable",
      "type": "receive"
    }
  ],
  "bytecode": "0x6080346100d857601f6109ba38819003918201601f19168301916001600160401b038311848410176100dc578084926020946040528339810103126100d857516001600160a01b03808216918290036100d85781156100c0575f548260018060a01b03198216175f55167f8be0079c531659141344cd1fd0a4f28419497f9722a3daafe3b4186f6b6457e05f80a360017f9b779b17422d0df92223018b32b4d1fa46e071723d6817e2486d003becc55f00556040516108c990816100f18239f35b604051631e4fbdf760e01b81525f6004820152602490fd5b5f80fd5b634e487b7160e01b5f52604160045260245ffdfe60406080815260048036101561004c575b50361561001b575f80fd5b5f80526001602052805f206100313482546107f7565b90555f805260026020525f206100483482546107f7565b9055005b5f3560e01c806320f801d41461053557806327e235e3146104fe5780633f4ba83a1461047957806347e7ef24146103395780635c975abb14610314578063715018a6146102b05780638456cb59146102425780638da5cb5b1461021c578063ad2786fb146101e5578063db6b5246146101775763f2fde38b036100105734610173576020366003190112610173576100e26107e1565b906100eb610818565b6001600160a01b038092169283156101445750505f548273ffffffffffffffffffffffffffffffffffffffff198216175f55167f8be0079c531659141344cd1fd0a4f28419497f9722a3daafe3b4186f6b6457e05f80a3005b905f60249251917f1e4fbdf7000000000000000000000000000000000000000000000000000000008352820152fd5b5f80fd5b825f366003190112610173577f8fe10ae416f22f5e5220b0018a6c1d4ff534d6aa3a471f2a20cb7747fe63e5b960205f926101b061085b565b838052600182528084206101c53482546107f7565b9055838052600282528084206101dc3482546107f7565b905551348152a2005b8234610173576020366003190112610173576020906001600160a01b0361020a6107e1565b165f5260028252805f20549051908152f35b8234610173575f366003190112610173576020906001600160a01b035f54169051908152f35b8234610173575f3660031901126101735760207f62e78cea01bee320cd4e420270b5ea74000d11b0c9f74754ebdbfc544b05a2589161027f610818565b61028761085b565b7401000000000000000000000000000000000000000060ff60a01b195f5416175f5551338152a1005b34610173575f366003190112610173576102c8610818565b5f6001600160a01b03815473ffffffffffffffffffffffffffffffffffffffff1981168355167f8be0079c531659141344cd1fd0a4f28419497f9722a3daafe3b4186f6b6457e08280a3005b8234610173575f3660031901126101735760209060ff5f5460a01c1690519015158152f35b5090346101735780600319360112610173576103536107e1565b906001600160a01b036024359261036861085b565b16928315610452578151907f23b872dd000000000000000000000000000000000000000000000000000000005f52338152306024528360445260205f60648180895af160015f5114811615610433575b8284525f6060521561041f57847f8fe10ae416f22f5e5220b0018a6c1d4ff534d6aa3a471f2a20cb7747fe63e5b960208686845f5260018352805f206103ff8382546107f7565b9055845f5260028352805f206104168382546107f7565b905551908152a2005b9084602492635274afe760e01b8352820152fd5b600181151661044957853b15153d1516166103b8565b823d5f823e3d90fd5b90517f890a6062000000000000000000000000000000000000000000000000000000008152fd5b509034610173575f36600319011261017357610493610818565b5f549160ff8360a01c16156104d7577f5db9ee0a495bf2e6ff9c91a7834c1ba4fdd244a5e8aa4e537bd38aeae4b073aa60208360ff60a01b1986165f5551338152a1005b90517f8dfc202b000000000000000000000000000000000000000000000000000000008152fd5b8234610173576020366003190112610173576020906001600160a01b036105236107e1565b165f5260018252805f20549051908152f35b509034610173576060366003190112610173576105506107e1565b9060248035916001600160a01b03948584168094036101735760443595610575610818565b61057d61085b565b7f9b779b17422d0df92223018b32b4d1fa46e071723d6817e2486d003becc55f009560028754146107b957600287558515610791571692835f52600160205286835f20541061076957835f526001602052825f208054908882039182116107575755836106b5575f8080808a895af1903d156106af573d67ffffffffffffffff80821161069d57855192601f8301601f19908116603f011684019182118483101761068c5750855281525f60203d92013e5b15610665575060206001957fcc6eae3cf0f69352b4080ee10f3e7dfd913526040cca03344acc0a6ee6348bf9925b51908152a355005b90517f90b8ec18000000000000000000000000000000000000000000000000000000008152fd5b604186634e487b7160e01b5f52525ffd5b82604186634e487b7160e01b5f52525ffd5b5061062f565b908251907fa9059cbb000000000000000000000000000000000000000000000000000000005f5285815287835260205f60448180895af160015f5114811615610741575b828552156107305750505060206001957fcc6eae3cf0f69352b4080ee10f3e7dfd913526040cca03344acc0a6ee6348bf99261065d565b8490635274afe760e01b8352820152fd5b600181151661044957853b15153d1516166106f9565b82601185634e487b7160e01b5f52525ffd5b5090517f356680b7000000000000000000000000000000000000000000000000000000008152fd5b8284517fe6c4247b000000000000000000000000000000000000000000000000000000008152fd5b8284517f3ee5aeb5000000000000000000000000000000000000000000000000000000008152fd5b600435906001600160a01b038216820361017357565b9190820180921161080457565b634e487b7160e01b5f52601160045260245ffd5b6001600160a01b035f5416330361082b57565b60246040517f118cdaa7000000000000000000000000000000000000000000000000000000008152336004820152fd5b60ff5f5460a01c1661086957565b60046040517fd93c0665000000000000000000000000000000000000000000000000000000008152fdfea2646970667358221220d10fe76040de3324875b76d772a08ba22decd9c322cc48108ffc2b860d74392964736f6c63430008180033",
  "linkReferences": {},
  "deployedLinkReferences": {}
}