{
  "_format": "hh-sol-artifact-1",
  "contractName": "ZenithSecurityOracle",
  "sourceName": "contracts/ZenithSecurityOracle.sol",
  "abi": [
    {
      "inputs": [],
      "stateMutability": "nonpayable",
      "type": "constructor"
    },
    {
      "inputs": [],
      "name": "AccessControlBadConfirmation",
      "type": "error"
    },
    {
      "inputs": [
        {
          "internalType": "address",
          "name": "account",
          "type": "address"
        },
        {
          "internalType": "bytes32",
          "name": "neededRole",
          "type": "bytes32"
        }
      ],
      "name": "AccessControlUnauthorizedAccount",
      "type": "error"
    },
    {
      "inputs": [
        {
          "internalType": "address",
          "name": "target",
          "type": "address"
        }
      ],
      "name": "AddressEmptyCode",
      "type": "error"
    },
    {
      "inputs": [
        {
          "internalType": "address",
          "name": "implementation",
          "type": "address"
        }
      ],
      "name": "ERC1967InvalidImplementation",
      "type": "error"
    },
    {
      "inputs": [],
      "name": "ERC1967NonPayable",
      "type": "error"
    },
    {
      "inputs": [],
      "name": "FailedCall",
      "type": "error"
    },
    {
      "inputs": [],
      "name": "InvalidInitialization",
      "type": "error"
    },
    {
      "inputs": [],
      "name": "NotInitializing",
      "type": "error"
    },
    {
      "inputs": [],
      "name": "ReentrancyGuardReentrantCall",
      "type": "error"
    },
    {
      "inputs": [],
      "name": "UUPSUnauthorizedCallContext",
      "type": "error"
    },
    {
      "inputs": [
        {
          "internalType": "bytes32",
          "name": "slot",
          "type": "bytes32"
        }
      ],
      "name": "UUPSUnsupportedProxiableUUID",
      "type": "error"
    },
    {
      "anonymous": false,
      "inputs": [
        {
          "indexed": false,
          "internalType": "uint64",
          "name": "version",
          "type": "uint64"
        }
      ],
      "name": "Initialized",
      "type": "event"
    },
    {
      "anonymous": false,
      "inputs": [
        {
          "indexed": true,
          "internalType": "uint256",
          "name": "jobId",
          "type": "uint256"
        },
        {
          "indexed": true,
          "internalType": "uint256",
          "name": "milestoneId",
          "type": "uint256"
        },
        {
          "indexed": false,
          "internalType": "enum ZenithSecurityOracle.ReportType",
          "name": "rType",
          "type": "uint8"
        },
        {
          "indexed": false,
          "internalType": "bool",
          "name": "passed",
          "type": "bool"
        }
      ],
      "name": "ReportSubmitted",
      "type": "event"
    },
    {
      "anonymous": false,
      "inputs": [
        {
          "indexed": true,
          "internalType": "bytes32",
          "name": "role",
          "type": "bytes32"
        },
        {
          "indexed": true,
          "internalType": "bytes32",
          "name": "previousAdminRole",
          "type": "bytes32"
        },
        {
          "indexed": true,
          "internalType": "bytes32",
          "name": "newAdminRole",
          "type": "bytes32"
        }
      ],
      "name": "RoleAdminChanged",
      "type": "event"
    },
    {
      "anonymous": false,
      "inputs": [
        {
          "indexed": true,
          "internalType": "bytes32",
          "name": "role",
          "type": "bytes32"
        },
        {
          "indexed": true,
          "internalType": "address",
          "name": "account",
          "type": "address"
        },
        {
          "indexed": true,
          "internalType": "address",
          "name": "sender",
          "type": "address"
        }
      ],
      "name": "RoleGranted",
      "type": "event"
    },
    {
      "anonymous": false,
      "inputs": [
        {
          "indexed": true,
          "internalType": "bytes32",
          "name": "role",
          "type": "bytes32"
        },
        {
          "indexed": true,
          "internalType": "address",
          "name": "account",
          "type": "address"
        },
        {
          "indexed": true,
          "internalType": "address",
          "name": "sender",
          "type": "address"
        }
      ],
      "name": "RoleRevoked",
      "type": "event"
    },
    {
      "anonymous": false,
      "inputs": [
        {
          "indexed": false,
          "internalType": "uint8",
          "name": "maxHigh",
          "type": "uint8"
        },
        {
          "indexed": false,
          "internalType": "uint8",
          "name": "maxMedium",
          "type": "uint8"
        }
      ],
      "name": "ThresholdsUpdated",
      "type": "event"
    },
    {
      "anonymous": false,
      "inputs": [
        {
          "indexed": true,
          "internalType": "address",
          "name": "implementation",
          "type": "address"
        }
      ],
      "name": "Upgraded",
      "type": "event"
    },
    {
      "inputs": [],
      "name": "DEFAULT_ADMIN_ROLE",
      "outputs": [
        {
          "internalType": "bytes32",
          "name": "",
          "type": "bytes32"
        }
      ],
      "stateMutability": "view",
      "type": "function"
    },
    {
      "inputs": [],
      "name": "SECURITY_AGENT_ROLE",
      "outputs": [
        {
          "internalType": "bytes32",
          "name": "",
          "type": "bytes32"
        }
      ],
      "stateMutability": "view",
      "type": "function"
    },
    {
      "inputs": [],
      "name": "UPGRADER_ROLE",
      "outputs": [
        {
          "internalType": "bytes32",
          "name": "",
          "type": "bytes32"
        }
      ],
      "stateMutability": "view",
      "type": "function"
    },
    {
      "inputs": [],
      "name": "UPGRADE_INTERFACE_VERSION",
      "outputs": [
        {
          "internalType": "string",
          "name": "",
          "type": "string"
        }
      ],
      "stateMutability": "view",
      "type": "function"
    },
    {
      "inputs": [
        {
          "internalType": "bytes32",
          "name": "role",
          "type": "bytes32"
        }
      ],
      "name": "getRoleAdmin",
      "outputs": [
        {
          "internalType": "bytes32",
          "name": "",
          "type": "bytes32"
        }
      ],
      "stateMutability": "view",
      "type": "function"
    },
    {
      "inputs": [
        {
          "internalType": "bytes32",
          "name": "role",
          "type": "bytes32"
        },
        {
          "internalType": "address",
          "name": "account",
          "type": "address"
        }
      ],
      "name": "grantRole",
      "outputs": [],
      "stateMutability": "nonpayable",
      "type": "function"
    },
    {
      "inputs": [
        {
          "internalType": "bytes32",
          "name": "role",
          "type": "bytes32"
        },
        {
          "internalType": "address",
          "name": "account",
          "type": "address"
        }
      ],
      "name": "hasRole",
      "outputs": [
        {
          "internalType": "bool",
          "name": "",
          "type": "bool"
        }
      ],
      "stateMutability": "view",
      "type": "function"
    },
    {
      "inputs": [
        {
          "internalType": "address",
          "name": "admin",
          "type": "address"
        }
      ],
      "name": "initialize",
      "outputs": [],
      "stateMutability": "nonpayable",
      "type": "function"
    },
    {
      "inputs": [
        {
          "internalType": "uint256",
          "name": "jobId",
          "type": "uint256"
        },
        {
          "internalType": "uint256",
          "name": "milestoneId",
          "type": "uint256"
        }
      ],
      "name": "isMilestoneSecure",
      "outputs": [
        {
          "internalType": "bool",
          "name": "",
          "type": "bool"
        }
      ],
      "stateMutability": "view",
      "type": "function"
    },
    {
      "inputs": [],
      "name": "maxHighIssuesAllowed",
      "outputs": [
        {
          "internalType": "uint8",
          "name": "",
          "type": "uint8"
        }
      ],
      "stateMutability": "view",
      "type": "function"
    },
    {
      "inputs": [],
      "name": "maxMediumIssuesAllowed",
      "outputs": [
        {
          "internalType": "uint8",
          "name": "",
          "type": "uint8"
        }
      ],
      "stateMutability": "view",
      "type": "function"
    },
    {
      "inputs": [
        {
          "internalType": "uint256",
          "name": "",
          "type": "uint256"
        },
        {
          "internalType": "uint256",
          "name": "",
          "type": "uint256"
        },
        {
          "internalType": "uint256",
          "name": "",
          "type": "uint256"
        }
      ],
      "name": "milestoneReports",
      "outputs": [
        {
          "internalType": "bytes32",
          "name": "reportHash",
          "type": "bytes32"
        },
        {
          "internalType": "enum ZenithSecurityOracle.ReportType",
          "name": "rType",
          "type": "uint8"
        },
        {
          "internalType": "uint8",
          "name": "highIssues",
          "type": "uint8"
        },
        {
          "internalType": "uint8",
          "name": "mediumIssues",
          "type": "uint8"
        },
        {
          "internalType": "bool",
          "name": "passed",
          "type": "bool"
        },
        {
          "internalType": "uint256",
          "name": "timestamp",
          "type": "uint256"
        },
        {
          "internalType": "address",
          "name": "verifiedBy",
          "type": "address"
        }
      ],
      "stateMutability": "view",
      "type": "function"
    },
    {
      "inputs": [],
      "name": "proxiableUUID",
      "outputs": [
        {
          "internalType": "bytes32",
          "name": "",
          "type": "bytes32"
        }
      ],
      "stateMutability": "view",
      "type": "function"
    },
    {
      "inputs": [
        {
          "internalType": "bytes32",
          "name": "role",
          "type": "bytes32"
        },
        {
          "internalType": "address",
          "name": "callerConfirmation",
          "type": "address"
        }
      ],
      "name": "renounceRole",
      "outputs": [],
      "stateMutability": "nonpayable",
      "type": "function"
    },
    {
      "inputs": [
        {
          "internalType": "bytes32",
          "name": "role",
          "type": "bytes32"
        },
        {
          "internalType": "address",
          "name": "account",
          "type": "address"
        }
      ],
      "name": "revokeRole",
      "outputs": [],
      "stateMutability": "nonpayable",
      "type": "function"
    },
    {
      "inputs": [
        {
          "internalType": "uint8",
          "name": "_maxHigh",
          "type": "uint8"
        },
        {
          "internalType": "uint8",
          "name": "_maxMedium",
          "type": "uint8"
        }
      ],
      "name": "setThresholds",
      "outputs": [],
      "stateMutability": "nonpayable",
      "type": "function"
    },
    {
      "inputs": [
        {
          "internalType": "uint256",
          "name": "jobId",
          "type": "uint256"
        },
        {
          "internalType": "uint256",
          "name": "milestoneId",
          "type": "uint256"
        },
        {
          "internalType": "bytes32",
          "name": "reportHash",
          "type": "bytes32"
        },
        {
          "internalType": "enum ZenithSecurityOracle.ReportType",
          "name": "rType",
          "type": "uint8"
        },
        {
          "internalType": "uint8",
          "name": "highIssues",
          "type": "uint8"
        },
        {
          "internalType": "uint8",
          "name": "mediumIssues",
          "type": "uint8"
        }
      ],
      "name": "submitReport",
      "outputs": [],
      "stateMutability": "nonpayable",
      "type": "function"
    },
    {
      "inputs": [
        {
          "internalType": "bytes4",
          "name": "interfaceId",
          "type": "bytes4"
        }
      ],
      "name": "supportsInterface",
      "outputs": [
        {
          "internalType": "bool",
          "name": "",
          "type": "bool"
        }
      ],
      "stateMutability": "view",
      "type": "function"
    },
    {
      "inputs": [
        {
          "internalType": "address",
          "name": "newImplementation",
          "type": "address"
        },
        {
          "internalType": "bytes",
          "name": "data",
          "type": "bytes"
        }
      ],
      "name": "upgradeToAndCall",
      "outputs": [],
      "stateMutability": "payable",
      "type": "function"
    }
  ],
  "bytecode": "0x60a080604052346100cc57306080527ff0c57e16840df040f15088dc2f81fe391c3923bec73e23a9662efc9c229c6a009081549060ff8260401c166100bd57506001600160401b036002600160401b031982821601610078575b6040516113e490816100d182396080518181816108f701526109f40152f35b6001600160401b031990911681179091556040519081527fc7f505b2f371ae2175ee4913f4499e1f2633a7b5936321eed1cdaeb6115181d290602090a15f8080610059565b63f92ee8a960e01b8152600490fd5b5f80fdfe6080806040526004361015610012575f80fd5b5f3560e01c90816301ffc9a714610d3657508063248a9ca314610cfd5780632f2ff15d14610cb457806336568abe14610c555780634f1ef2861461097157806352d1902d146108dd57806355f24fbf146108b25780636237ccf7146108785780639161d6d1146107d457806391d148541461077e578063a217fddf14610764578063ad3cb1cc146106a6578063bf80cd3a14610683578063bfce86b3146105b9578063c4d66de814610412578063d547741f146103c7578063dc1a686b1461014b578063df4869ee1461012b5763f72c0d8b146100ed575f80fd5b34610127575f3660031901126101275760206040517f189ab7a9244df0848122154315af71fe140f3db0fe014031783b0946b8c9d2e38152f35b5f80fd5b34610127575f36600319011261012757602060ff60015416604051908152f35b346101275760c03660031901126101275760043560249060046064351015610127576084359160ff8084168094036101275760a4359381851680950361012757335f9081527f27eab830446744afc41e68878d486d74ca3de1cd73d85e7929ad17743dd7924760209081526040909120549092907f6d1501c52ea7b381560310e11e4d72c775a88a76c5c81d68f0715e10f57335a9908216156103aa575060015495818716831115968761039a575b506040519260e0840184811067ffffffffffffffff821117610387576040526044358452606435858501526040840152606083015285151560808301524260a08301523360c0830152845f525f835260405f2084355f52835260405f2080549068010000000000000000821015610374579061027b91600182018155610e22565b9190916103625782518255838301516001830191600482101561034f57600360409694846001600160a01b039460c0947f5d9737cef821fc55519a208042d73cd50128852a5b36df74802901a6686195179b99975461ff008c8a015160081b169062ff000060608b015160101b169263ff00000060808c0151151560181b1694169063ffffffff191617171717905560a08501516002820155019201511673ffffffffffffffffffffffffffffffffffffffff1982541617905582519561034487606435610e4f565b1515908601523593a3005b86634e487b7160e01b5f5260216004525ffd5b84634e487b7160e01b5f525f6004525ffd5b85634e487b7160e01b5f5260416004525ffd5b86634e487b7160e01b5f5260416004525ffd5b60081c82168111159650876101fa565b846044916040519163e2517d3f60e01b8352336004840152820152fd5b34610127576040366003190112610127576104106004356103e6610dd4565b90805f525f8051602061138f83398151915260205261040b600160405f200154610f14565b6111f4565b005b346101275760203660031901126101275761042b610dea565b7ff0c57e16840df040f15088dc2f81fe391c3923bec73e23a9662efc9c229c6a00805460ff8160401c16159067ffffffffffffffff8116938415806105b2575b600180961490816105a8575b15908161059f575b506105755767ffffffffffffffff198216851784556104fc9183610556575b506104a7611274565b6104af611274565b6104b7611274565b847f9b779b17422d0df92223018b32b4d1fa46e071723d6817e2486d003becc55f0080541561054e575b50506104ec81610f60565b506104f681610ff7565b506110b7565b50825461ffff191661030017835561051057005b805468ff0000000000000000191690556040519081527fc7f505b2f371ae2175ee4913f4499e1f2633a7b5936321eed1cdaeb6115181d290602090a1005b5584866104e1565b68ffffffffffffffffff1916680100000000000000011784558561049e565b60046040517ff92ee8a9000000000000000000000000000000000000000000000000000000008152fd5b9050158661047f565b303b159150610477565b508261046b565b346101275760403660031901126101275760043560ff81168091036101275760243560ff81169182820361012757335f9081527fb7db2dd08fcb62d0c9e08c51941cae53c267786a0b75803fb7960902fc8ef97d602052604090205460ff1615610666577f3fd6bba74537aa094f8a76e08d4476e6e1b7db911efdda62bf2904b8ef4779f9926040928261ff006001549260081b169161ffff1916171760015582519182526020820152a1005b604460405163e2517d3f60e01b81523360048201525f6024820152fd5b34610127575f36600319011261012757602060ff60015460081c16604051908152f35b34610127575f366003190112610127576040516040810181811067ffffffffffffffff82111761075057604052600581526020907f352e302e3000000000000000000000000000000000000000000000000000000060208201526040518092602082528251908160208401525f935b828510610737575050604092505f838284010152601f80199101168101030190f35b8481018201518686016040015293810193859350610715565b634e487b7160e01b5f52604160045260245ffd5b34610127575f3660031901126101275760206040515f8152f35b3461012757604036600319011261012757610797610dd4565b6004355f525f8051602061138f8339815191526020526001600160a01b0360405f2091165f52602052602060ff60405f2054166040519015158152f35b34610127576060366003190112610127576044356004355f525f60205260405f206024355f5260205260405f2080548210156101275760e09161081691610e22565b5080549060018101549060ff6001600160a01b0360036002840154930154169260405194855261084b60208601838316610e4f565b818160081c166040860152818160101c16606086015260181c161515608084015260a083015260c0820152f35b34610127575f3660031901126101275760206040517f6d1501c52ea7b381560310e11e4d72c775a88a76c5c81d68f0715e10f57335a98152f35b346101275760403660031901126101275760206108d3602435600435610e70565b6040519015158152f35b34610127575f366003190112610127576001600160a01b037f00000000000000000000000000000000000000000000000000000000000000001630036109475760206040517f360894a13ba1a3210667c828492db98dca3e2076cc3735a920a3ca505d382bbc8152f35b60046040517fe07c8dba000000000000000000000000000000000000000000000000000000008152fd5b604036600319011261012757610985610dea565b602490813567ffffffffffffffff918282116101275736602383011215610127578160040135928311610c4257602092604051926109cc85601f19601f8501160185610e00565b8184523686838301011161012757815f928787930183870137840101526001600160a01b03807f000000000000000000000000000000000000000000000000000000000000000016803014908115610c14575b50610947577f189ab7a9244df0848122154315af71fe140f3db0fe014031783b0946b8c9d2e3805f525f8051602061138f833981519152855260405f20335f52855260ff60405f20541615610bf75750811692604051907f52d1902d0000000000000000000000000000000000000000000000000000000082528082600481885afa9182915f93610bc7575b5050610ac95750505060405190634c9c8ce360e01b82526004820152fd5b847f360894a13ba1a3210667c828492db98dca3e2076cc3735a920a3ca505d382bbc91828103610b995750823b15610b8357508373ffffffffffffffffffffffffffffffffffffffff19825416179055604051927fbc7cd75a20ee27fd9adebab32041f755214dbc6bffa90cc0225b39da2e5c2d3b5f80a2815115610b525761041092506112cd565b505034610b5b57005b807fb398979f0000000000000000000000000000000000000000000000000000000060049252fd5b8460405190634c9c8ce360e01b82526004820152fd5b604051907faa1d49a40000000000000000000000000000000000000000000000000000000082526004820152fd5b9080929350813d8311610bf0575b610bdf8183610e00565b810103126101275751908680610aab565b503d610bd5565b856044916040519163e2517d3f60e01b8352336004840152820152fd5b9050817f360894a13ba1a3210667c828492db98dca3e2076cc3735a920a3ca505d382bbc5416141586610a1f565b83634e487b7160e01b5f5260416004525ffd5b3461012757604036600319011261012757610c6e610dd4565b336001600160a01b03821603610c8a57610410906004356111f4565b60046040517f6697b232000000000000000000000000000000000000000000000000000000008152fd5b3461012757604036600319011261012757610410600435610cd3610dd4565b90805f525f8051602061138f833981519152602052610cf8600160405f200154610f14565b611170565b34610127576020366003190112610127576004355f525f8051602061138f8339815191526020526020600160405f200154604051908152f35b3461012757602036600319011261012757600435907fffffffff00000000000000000000000000000000000000000000000000000000821680920361012757817f7965db0b0000000000000000000000000000000000000000000000000000000060209314908115610daa575b5015158152f35b7f01ffc9a70000000000000000000000000000000000000000000000000000000091501483610da3565b602435906001600160a01b038216820361012757565b600435906001600160a01b038216820361012757565b90601f8019910116810190811067ffffffffffffffff82111761075057604052565b8054821015610e3b575f5260205f209060021b01905f90565b634e487b7160e01b5f52603260045260245ffd5b906004821015610e5c5752565b634e487b7160e01b5f52602160045260245ffd5b5f525f60205260405f20905f5260205260405f2080548015610f0e575f915f5b828110610e9e575b50505090565b610ea88183610e22565b5060ff8060018093015416600480821015610efb5750159081610ee1575b50610ed45750600101610e90565b93505050505f8080610e98565b905081610eee8486610e22565b50015460181c165f610ec6565b602190634e487b7160e01b5f525260245ffd5b50505f90565b805f525f8051602061138f83398151915260205260405f20335f5260205260ff60405f20541615610f425750565b6044906040519063e2517d3f60e01b82523360048301526024820152fd5b6001600160a01b03165f8181527fb7db2dd08fcb62d0c9e08c51941cae53c267786a0b75803fb7960902fc8ef97d60205260409020545f8051602061138f8339815191529060ff16610f0e575f805260205260405f20815f5260205260405f20600160ff1982541617905533905f7f2f8788117e7eff1d82e926ec794901d17c78024a50270940304540a733656f0d8180a4600190565b6001600160a01b03165f8181527f27eab830446744afc41e68878d486d74ca3de1cd73d85e7929ad17743dd7924760205260409020547f6d1501c52ea7b381560310e11e4d72c775a88a76c5c81d68f0715e10f57335a991905f8051602061138f8339815191529060ff166110b057825f5260205260405f20815f5260205260405f20600160ff1982541617905533917f2f8788117e7eff1d82e926ec794901d17c78024a50270940304540a733656f0d5f80a4600190565b5050505f90565b6001600160a01b03165f8181527fab71e3f32666744d246edff3f96e4bdafee2e9867098cdd118a979a7464786a860205260409020547f189ab7a9244df0848122154315af71fe140f3db0fe014031783b0946b8c9d2e391905f8051602061138f8339815191529060ff166110b057825f5260205260405f20815f5260205260405f20600160ff1982541617905533917f2f8788117e7eff1d82e926ec794901d17c78024a50270940304540a733656f0d5f80a4600190565b90815f525f8051602061138f833981519152806020526001600160a01b0360405f20921691825f5260205260ff60405f205416155f146110b057825f5260205260405f20815f5260205260405f20600160ff1982541617905533917f2f8788117e7eff1d82e926ec794901d17c78024a50270940304540a733656f0d5f80a4600190565b90815f525f8051602061138f833981519152806020526001600160a01b0360405f20921691825f5260205260ff60405f2054165f146110b057825f5260205260405f20815f5260205260405f2060ff19815416905533917ff6391f5c32d9c69d2a47ea670b442974b53935d1edc7fd64eb21e047a839171b5f80a4600190565b60ff7ff0c57e16840df040f15088dc2f81fe391c3923bec73e23a9662efc9c229c6a005460401c16156112a357565b60046040517fd7e6bcf8000000000000000000000000000000000000000000000000000000008152fd5b905f8091602081519101845af4808061137b575b156113015750506040513d81523d5f602083013e60203d82010160405290565b15611340576024906001600160a01b03604051917f9996b315000000000000000000000000000000000000000000000000000000008352166004820152fd5b3d15611351576040513d5f823e3d90fd5b60046040517fd6bda275000000000000000000000000000000000000000000000000000000008152fd5b503d1515806112e15750813b15156112e156fe02dd7bc7dec4dceedda775e58dd541e08a116c6c53815c0bd028192f7b626800a264697066735822122017f2f01d9f320f67087894c8104f39ae97e55bba20c310af38b52ba4b70ac00964736f6c63430008180033",
  "linkReferences": {},
  "deployedLinkReferences": {}
}