{
  "_format": "hh-sol-artifact-1",
  "contractName": "FreelancerReputation",
  "sourceName": "contracts/FreelancerReputation.sol",
  "abi": [
    {
      "inputs": [],
      "stateMutability": "nonpayable",
      "type": "constructor"
    },
    {
      "inputs": [],
      "name": "AccessControlBadConfirmation",
      "type": "error"
    },
    {
      "inputs": [
        {
          "internalType": "address",
          "name": "account",
          "type": "address"
        },
        {
          "internalType": "bytes32",
          "name": "neededRole",
          "type": "bytes32"
        }
      ],
      "name": "AccessControlUnauthorizedAccount",
      "type": "error"
    },
    {
      "inputs": [
        {
          "internalType": "address",
          "name": "target",
          "type": "address"
        }
      ],
      "name": "AddressEmptyCode",
      "type": "error"
    },
    {
      "inputs": [
        {
          "internalType": "address",
          "name": "sender",
          "type": "address"
        },
        {
          "internalType": "uint256",
          "name": "balance",
          "type": "uint256"
        },
        {
          "internalType": "uint256",
          "name": "needed",
          "type": "uint256"
        },
        {
          "internalType": "uint256",
          "name": "tokenId",
          "type": "uint256"
        }
      ],
      "name": "ERC1155InsufficientBalance",
      "type": "error"
    },
    {
      "inputs": [
        {
          "internalType": "address",
          "name": "approver",
          "type": "address"
        }
      ],
      "name": "ERC1155InvalidApprover",
      "type": "error"
    },
    {
      "inputs": [
        {
          "internalType": "uint256",
          "name": "idsLength",
          "type": "uint256"
        },
        {
          "internalType": "uint256",
          "name": "valuesLength",
          "type": "uint256"
        }
      ],
      "name": "ERC1155InvalidArrayLength",
      "type": "error"
    },
    {
      "inputs": [
        {
          "internalType": "address",
          "name": "operator",
          "type": "address"
        }
      ],
      "name": "ERC1155InvalidOperator",
      "type": "error"
    },
    {
      "inputs": [
        {
          "internalType": "address",
          "name": "receiver",
          "type": "address"
        }
      ],
      "name": "ERC1155InvalidReceiver",
      "type": "error"
    },
    {
      "inputs": [
        {
          "internalType": "address",
          "name": "sender",
          "type": "address"
        }
      ],
      "name": "ERC1155InvalidSender",
      "type": "error"
    },
    {
      "inputs": [
        {
          "internalType": "address",
          "name": "operator",
          "type": "address"
        },
        {
          "internalType": "address",
          "name": "owner",
          "type": "address"
        }
      ],
      "name": "ERC1155MissingApprovalForAll",
      "type": "error"
    },
    {
      "inputs": [
        {
          "internalType": "address",
          "name": "implementation",
          "type": "address"
        }
      ],
      "name": "ERC1967InvalidImplementation",
      "type": "error"
    },
    {
      "inputs": [],
      "name": "ERC1967NonPayable",
      "type": "error"
    },
    {
      "inputs": [],
      "name": "EnforcedPause",
      "type": "error"
    },
    {
      "inputs": [],
      "name": "ExpectedPause",
      "type": "error"
    },
    {
      "inputs": [],
      "name": "FailedCall",
      "type": "error"
    },
    {
      "inputs": [],
      "name": "InvalidInitialization",
      "type": "error"
    },
    {
      "inputs": [],
      "name": "NotInitializing",
      "type": "error"
    },
    {
      "inputs": [],
      "name": "RatingOutOfBounds",
      "type": "error"
    },
    {
      "inputs": [],
      "name": "UUPSUnauthorizedCallContext",
      "type": "error"
    },
    {
      "inputs": [
        {
          "internalType": "bytes32",
          "name": "slot",
          "type": "bytes32"
        }
      ],
      "name": "UUPSUnsupportedProxiableUUID",
      "type": "error"
    },
    {
      "inputs": [],
      "name": "ZeroAddress",
      "type": "error"
    },
    {
      "anonymous": false,
      "inputs": [
        {
          "indexed": true,
          "internalType": "address",
          "name": "account",
          "type": "address"
        },
        {
          "indexed": true,
          "internalType": "address",
          "name": "operator",
          "type": "address"
        },
        {
          "indexed": false,
          "internalType": "bool",
          "name": "approved",
          "type": "bool"
        }
      ],
      "name": "ApprovalForAll",
      "type": "event"
    },
    {
      "anonymous": false,
      "inputs": [
        {
          "indexed": true,
          "internalType": "address",
          "name": "sovereign",
          "type": "address"
        },
        {
          "indexed": false,
          "internalType": "uint16",
          "name": "completionRate",
          "type": "uint16"
        },
        {
          "indexed": false,
          "internalType": "uint16",
          "name": "gravityScore",
          "type": "uint16"
        }
      ],
      "name": "GravityCalibrated",
      "type": "event"
    },
    {
      "anonymous": false,
      "inputs": [
        {
          "indexed": false,
          "internalType": "uint64",
          "name": "version",
          "type": "uint64"
        }
      ],
      "name": "Initialized",
      "type": "event"
    },
    {
      "anonymous": false,
      "inputs": [
        {
          "indexed": false,
          "internalType": "address",
          "name": "account",
          "type": "address"
        }
      ],
      "name": "Paused",
      "type": "event"
    },
    {
      "anonymous": false,
      "inputs": [
        {
          "indexed": true,
          "internalType": "address",
          "name": "freelancer",
          "type": "address"
        },
        {
          "indexed": false,
          "internalType": "string",
          "name": "cid",
          "type": "string"
        }
      ],
      "name": "PortfolioUpdated",
      "type": "event"
    },
    {
      "anonymous": false,
      "inputs": [
        {
          "indexed": true,
          "internalType": "address",
          "name": "freelancer",
          "type": "address"
        },
        {
          "indexed": false,
          "internalType": "uint256",
          "name": "averageRating",
          "type": "uint256"
        },
        {
          "indexed": false,
          "internalType": "uint256",
          "name": "totalJobs",
          "type": "uint256"
        }
      ],
      "name": "RatingUpdated",
      "type": "event"
    },
    {
      "anonymous": false,
      "inputs": [
        {
          "indexed": true,
          "internalType": "bytes32",
          "name": "role",
          "type": "bytes32"
        },
        {
          "indexed": true,
          "internalType": "bytes32",
          "name": "previousAdminRole",
          "type": "bytes32"
        },
        {
          "indexed": true,
          "internalType": "bytes32",
          "name": "newAdminRole",
          "type": "bytes32"
        }
      ],
      "name": "RoleAdminChanged",
      "type": "event"
    },
    {
      "anonymous": false,
      "inputs": [
        {
          "indexed": true,
          "internalType": "bytes32",
          "name": "role",
          "type": "bytes32"
        },
        {
          "indexed": true,
          "internalType": "address",
          "name": "account",
          "type": "address"
        },
        {
          "indexed": true,
          "internalType": "address",
          "name": "sender",
          "type": "address"
        }
      ],
      "name": "RoleGranted",
      "type": "event"
    },
    {
      "anonymous": false,
      "inputs": [
        {
          "indexed": true,
          "internalType": "bytes32",
          "name": "role",
          "type": "bytes32"
        },
        {
          "indexed": true,
          "internalType": "address",
          "name": "account",
          "type": "address"
        },
        {
          "indexed": true,
          "internalType": "address",
          "name": "sender",
          "type": "address"
        }
      ],
      "name": "RoleRevoked",
      "type": "event"
    },
    {
      "anonymous": false,
      "inputs": [
        {
          "indexed": true,
          "internalType": "address",
          "name": "operator",
          "type": "address"
        },
        {
          "indexed": true,
          "internalType": "address",
          "name": "from",
          "type": "address"
        },
        {
          "indexed": true,
          "internalType": "address",
          "name": "to",
          "type": "address"
        },
        {
          "indexed": false,
          "internalType": "uint256[]",
          "name": "ids",
          "type": "uint256[]"
        },
        {
          "indexed": false,
          "internalType": "uint256[]",
          "name": "values",
          "type": "uint256[]"
        }
      ],
      "name": "TransferBatch",
      "type": "event"
    },
    {
      "anonymous": false,
      "inputs": [
        {
          "indexed": true,
          "internalType": "address",
          "name": "operator",
          "type": "address"
        },
        {
          "indexed": true,
          "internalType": "address",
          "name": "from",
          "type": "address"
        },
        {
          "indexed": true,
          "internalType": "address",
          "name": "to",
          "type": "address"
        },
        {
          "indexed": false,
          "internalType": "uint256",
          "name": "id",
          "type": "uint256"
        },
        {
          "indexed": false,
          "internalType": "uint256",
          "name": "value",
          "type": "uint256"
        }
      ],
      "name": "TransferSingle",
      "type": "event"
    },
    {
      "anonymous": false,
      "inputs": [
        {
          "indexed": false,
          "internalType": "string",
          "name": "value",
          "type": "string"
        },
        {
          "indexed": true,
          "internalType": "uint256",
          "name": "id",
          "type": "uint256"
        }
      ],
      "name": "URI",
      "type": "event"
    },
    {
      "anonymous": false,
      "inputs": [
        {
          "indexed": false,
          "internalType": "address",
          "name": "account",
          "type": "address"
        }
      ],
      "name": "Unpaused",
      "type": "event"
    },
    {
      "anonymous": false,
      "inputs": [
        {
          "indexed": true,
          "internalType": "address",
          "name": "implementation",
          "type": "address"
        }
      ],
      "name": "Upgraded",
      "type": "event"
    },
    {
      "inputs": [],
      "name": "DEFAULT_ADMIN_ROLE",
      "outputs": [
        {
          "internalType": "bytes32",
          "name": "",
          "type": "bytes32"
        }
      ],
      "stateMutability": "view",
      "type": "function"
    },
    {
      "inputs": [],
      "name": "KARMA_ID",
      "outputs": [
        {
          "internalType": "uint256",
          "name": "",
          "type": "uint256"
        }
      ],
      "stateMutability": "view",
      "type": "function"
    },
    {
      "inputs": [],
      "name": "MINTER_ROLE",
      "outputs": [
        {
          "internalType": "bytes32",
          "name": "",
          "type": "bytes32"
        }
      ],
      "stateMutability": "view",
      "type": "function"
    },
    {
      "inputs": [],
      "name": "UPGRADER_ROLE",
      "outputs": [
        {
          "internalType": "bytes32",
          "name": "",
          "type": "bytes32"
        }
      ],
      "stateMutability": "view",
      "type": "function"
    },
    {
      "inputs": [],
      "name": "UPGRADE_INTERFACE_VERSION",
      "outputs": [
        {
          "internalType": "string",
          "name": "",
          "type": "string"
        }
      ],
      "stateMutability": "view",
      "type": "function"
    },
    {
      "inputs": [
        {
          "internalType": "address",
          "name": "sovereign",
          "type": "address"
        },
        {
          "internalType": "uint8",
          "name": "rating",
          "type": "uint8"
        }
      ],
      "name": "actuateRating",
      "outputs": [],
      "stateMutability": "nonpayable",
      "type": "function"
    },
    {
      "inputs": [
        {
          "internalType": "address",
          "name": "sovereign",
          "type": "address"
        },
        {
          "internalType": "uint256",
          "name": "skillId",
          "type": "uint256"
        },
        {
          "internalType": "uint256",
          "name": "xp",
          "type": "uint256"
        }
      ],
      "name": "actuateSovereignXP",
      "outputs": [],
      "stateMutability": "nonpayable",
      "type": "function"
    },
    {
      "inputs": [
        {
          "internalType": "string",
          "name": "cid",
          "type": "string"
        }
      ],
      "name": "anchorPortfolio",
      "outputs": [],
      "stateMutability": "nonpayable",
      "type": "function"
    },
    {
      "inputs": [
        {
          "internalType": "address",
          "name": "",
          "type": "address"
        }
      ],
      "name": "averageRating",
      "outputs": [
        {
          "internalType": "uint256",
          "name": "",
          "type": "uint256"
        }
      ],
      "stateMutability": "view",
      "type": "function"
    },
    {
      "inputs": [
        {
          "internalType": "address",
          "name": "account",
          "type": "address"
        },
        {
          "internalType": "uint256",
          "name": "id",
          "type": "uint256"
        }
      ],
      "name": "balanceOf",
      "outputs": [
        {
          "internalType": "uint256",
          "name": "",
          "type": "uint256"
        }
      ],
      "stateMutability": "view",
      "type": "function"
    },
    {
      "inputs": [
        {
          "internalType": "address[]",
          "name": "accounts",
          "type": "address[]"
        },
        {
          "internalType": "uint256[]",
          "name": "ids",
          "type": "uint256[]"
        }
      ],
      "name": "balanceOfBatch",
      "outputs": [
        {
          "internalType": "uint256[]",
          "name": "",
          "type": "uint256[]"
        }
      ],
      "stateMutability": "view",
      "type": "function"
    },
    {
      "inputs": [
        {
          "internalType": "address",
          "name": "sovereign",
          "type": "address"
        },
        {
          "internalType": "uint16",
          "name": "_completionRate",
          "type": "uint16"
        },
        {
          "internalType": "uint16",
          "name": "_gravityScore",
          "type": "uint16"
        }
      ],
      "name": "calibrateGravity",
      "outputs": [],
      "stateMutability": "nonpayable",
      "type": "function"
    },
    {
      "inputs": [
        {
          "internalType": "address",
          "name": "",
          "type": "address"
        }
      ],
      "name": "completionRate",
      "outputs": [
        {
          "internalType": "uint16",
          "name": "",
          "type": "uint16"
        }
      ],
      "stateMutability": "view",
      "type": "function"
    },
    {
      "inputs": [
        {
          "internalType": "bytes32",
          "name": "role",
          "type": "bytes32"
        }
      ],
      "name": "getRoleAdmin",
      "outputs": [
        {
          "internalType": "bytes32",
          "name": "",
          "type": "bytes32"
        }
      ],
      "stateMutability": "view",
      "type": "function"
    },
    {
      "inputs": [
        {
          "internalType": "bytes32",
          "name": "role",
          "type": "bytes32"
        },
        {
          "internalType": "address",
          "name": "account",
          "type": "address"
        }
      ],
      "name": "grantRole",
      "outputs": [],
      "stateMutability": "nonpayable",
      "type": "function"
    },
    {
      "inputs": [
        {
          "internalType": "address",
          "name": "",
          "type": "address"
        }
      ],
      "name": "gravityScores",
      "outputs": [
        {
          "internalType": "uint16",
          "name": "",
          "type": "uint16"
        }
      ],
      "stateMutability": "view",
      "type": "function"
    },
    {
      "inputs": [
        {
          "internalType": "bytes32",
          "name": "role",
          "type": "bytes32"
        },
        {
          "internalType": "address",
          "name": "account",
          "type": "address"
        }
      ],
      "name": "hasRole",
      "outputs": [
        {
          "internalType": "bool",
          "name": "",
          "type": "bool"
        }
      ],
      "stateMutability": "view",
      "type": "function"
    },
    {
      "inputs": [
        {
          "internalType": "address",
          "name": "admin",
          "type": "address"
        },
        {
          "internalType": "string",
          "name": "uri",
          "type": "string"
        }
      ],
      "name": "initialize",
      "outputs": [],
      "stateMutability": "nonpayable",
      "type": "function"
    },
    {
      "inputs": [
        {
          "internalType": "address",
          "name": "account",
          "type": "address"
        },
        {
          "internalType": "address",
          "name": "operator",
          "type": "address"
        }
      ],
      "name": "isApprovedForAll",
      "outputs": [
        {
          "internalType": "bool",
          "name": "",
          "type": "bool"
        }
      ],
      "stateMutability": "view",
      "type": "function"
    },
    {
      "inputs": [],
      "name": "pause",
      "outputs": [],
      "stateMutability": "nonpayable",
      "type": "function"
    },
    {
      "inputs": [],
      "name": "paused",
      "outputs": [
        {
          "internalType": "bool",
          "name": "",
          "type": "bool"
        }
      ],
      "stateMutability": "view",
      "type": "function"
    },
    {
      "inputs": [],
      "name": "polThreshold",
      "outputs": [
        {
          "internalType": "uint256",
          "name": "",
          "type": "uint256"
        }
      ],
      "stateMutability": "view",
      "type": "function"
    },
    {
      "inputs": [],
      "name": "polToken",
      "outputs": [
        {
          "internalType": "address",
          "name": "",
          "type": "address"
        }
      ],
      "stateMutability": "view",
      "type": "function"
    },
    {
      "inputs": [
        {
          "internalType": "address",
          "name": "",
          "type": "address"
        }
      ],
      "name": "portfolioCID",
      "outputs": [
        {
          "internalType": "string",
          "name": "",
          "type": "string"
        }
      ],
      "stateMutability": "view",
      "type": "function"
    },
    {
      "inputs": [],
      "name": "proxiableUUID",
      "outputs": [
        {
          "internalType": "bytes32",
          "name": "",
          "type": "bytes32"
        }
      ],
      "stateMutability": "view",
      "type": "function"
    },
    {
      "inputs": [
        {
          "internalType": "bytes32",
          "name": "role",
          "type": "bytes32"
        },
        {
          "internalType": "address",
          "name": "callerConfirmation",
          "type": "address"
        }
      ],
      "name": "renounceRole",
      "outputs": [],
      "stateMutability": "nonpayable",
      "type": "function"
    },
    {
      "inputs": [
        {
          "internalType": "bytes32",
          "name": "role",
          "type": "bytes32"
        },
        {
          "internalType": "address",
          "name": "account",
          "type": "address"
        }
      ],
      "name": "revokeRole",
      "outputs": [],
      "stateMutability": "nonpayable",
      "type": "function"
    },
    {
      "inputs": [
        {
          "internalType": "address",
          "name": "from",
          "type": "address"
        },
        {
          "internalType": "address",
          "name": "to",
          "type": "address"
        },
        {
          "internalType": "uint256[]",
          "name": "ids",
          "type": "uint256[]"
        },
        {
          "internalType": "uint256[]",
          "name": "values",
          "type": "uint256[]"
        },
        {
          "internalType": "bytes",
          "name": "data",
          "type": "bytes"
        }
      ],
      "name": "safeBatchTransferFrom",
      "outputs": [],
      "stateMutability": "nonpayable",
      "type": "function"
    },
    {
      "inputs": [
        {
          "internalType": "address",
          "name": "from",
          "type": "address"
        },
        {
          "internalType": "address",
          "name": "to",
          "type": "address"
        },
        {
          "internalType": "uint256",
          "name": "id",
          "type": "uint256"
        },
        {
          "internalType": "uint256",
          "name": "value",
          "type": "uint256"
        },
        {
          "internalType": "bytes",
          "name": "data",
          "type": "bytes"
        }
      ],
      "name": "safeTransferFrom",
      "outputs": [],
      "stateMutability": "nonpayable",
      "type": "function"
    },
    {
      "inputs": [
        {
          "internalType": "address",
          "name": "operator",
          "type": "address"
        },
        {
          "internalType": "bool",
          "name": "approved",
          "type": "bool"
        }
      ],
      "name": "setApprovalForAll",
      "outputs": [],
      "stateMutability": "nonpayable",
      "type": "function"
    },
    {
      "inputs": [
        {
          "internalType": "address",
          "name": "_token",
          "type": "address"
        },
        {
          "internalType": "uint256",
          "name": "_threshold",
          "type": "uint256"
        }
      ],
      "name": "setPOLConfig",
      "outputs": [],
      "stateMutability": "nonpayable",
      "type": "function"
    },
    {
      "inputs": [
        {
          "internalType": "string",
          "name": "newuri",
          "type": "string"
        }
      ],
      "name": "setURI",
      "outputs": [],
      "stateMutability": "nonpayable",
      "type": "function"
    },
    {
      "inputs": [
        {
          "internalType": "bytes4",
          "name": "interfaceId",
          "type": "bytes4"
        }
      ],
      "name": "supportsInterface",
      "outputs": [
        {
          "internalType": "bool",
          "name": "",
          "type": "bool"
        }
      ],
      "stateMutability": "view",
      "type": "function"
    },
    {
      "inputs": [
        {
          "internalType": "address",
          "name": "",
          "type": "address"
        }
      ],
      "name": "totalEngagements",
      "outputs": [
        {
          "internalType": "uint256",
          "name": "",
          "type": "uint256"
        }
      ],
      "stateMutability": "view",
      "type": "function"
    },
    {
      "inputs": [
        {
          "internalType": "address",
          "name": "",
          "type": "address"
        }
      ],
      "name": "totalStars",
      "outputs": [
        {
          "internalType": "uint256",
          "name": "",
          "type": "uint256"
        }
      ],
      "stateMutability": "view",
      "type": "function"
    },
    {
      "inputs": [],
      "name": "unpause",
      "outputs": [],
      "stateMutability": "nonpayable",
      "type": "function"
    },
    {
      "inputs": [
        {
          "internalType": "address",
          "name": "newImplementation",
          "type": "address"
        },
        {
          "internalType": "bytes",
          "name": "data",
          "type": "bytes"
        }
      ],
      "name": "upgradeToAndCall",
      "outputs": [],
      "stateMutability": "payable",
      "type": "function"
    },
    {
      "inputs": [
        {
          "internalType": "uint256",
          "name": "",
          "type": "uint256"
        }
      ],
      "name": "uri",
      "outputs": [
        {
          "internalType": "string",
          "name": "",
          "type": "string"
        }
      ],
      "stateMutability": "view",
      "type": "function"
    }
  ],
  "bytecode": "0x60a080604052346100cc57306080527ff0c57e16840df040f15088dc2f81fe391c3923bec73e23a9662efc9c229c6a009081549060ff8260401c166100bd57506001600160401b036002600160401b031982821601610078575b6040516128a890816100d18239608051818181610efd01526110210152f35b6001600160401b031990911681179091556040519081527fc7f505b2f371ae2175ee4913f4499e1f2633a7b5936321eed1cdaeb6115181d290602090a15f8080610059565b63f92ee8a960e01b8152600490fd5b5f80fdfe60806040526004361015610011575f80fd5b5f3560e01c8062fdd58e1461026e57806301ffc9a71461026957806302fe5305146102645780630e89341c1461025f578063121c248c1461025a5780631c305d6b14610255578063222c607014610250578063248a9ca31461024b5780632a633ca7146102465780632eb2c2d6146102415780632f2ff15d1461023c57806336568abe146102375780633f4ba83a1461023257806347a1622a1461022d5780634b854cfb146102285780634e1273f4146102235780634f1ef2861461021e57806352d1902d146102195780635c975abb146102145780635d9c6b2d1461020f57806383acf7f51461020a5780638456cb591461020557806389544b4a1461020057806391d14854146101fb578063a217fddf146101ce578063a22cb465146101f6578063ad3cb1cc146101f1578063b6658d07146101ec578063be65a678146101e7578063d5391393146101e2578063d547741f146101dd578063d97d44b1146101d8578063e985e9c5146101d3578063ed48993d146101ce578063f242432a146101c9578063f399e22e146101c4578063f4f98eab146101bf5763f72c0d8b146101ba575f80fd5b61188e565b611856565b611716565b61166b565b6113ca565b61163a565b6115fe565b6115b5565b61158e565b611557565b61152f565b6114c5565b6113e4565b611380565b6112cb565b611266565b611176565b611094565b611066565b61100f565b610ebe565b610e04565b610d77565b610cd3565b610bf2565b610bab565b610b62565b610971565b6108c2565b610889565b610739565b6106fd565b610648565b610580565b610433565b61030e565b6102b7565b600435906001600160a01b038216820361028957565b5f80fd5b602435906001600160a01b038216820361028957565b35906001600160a01b038216820361028957565b346102895760403660031901126102895760206102f36102d5610273565b6024355f525f80516020612793833981519152835260405f206106e8565b54604051908152f35b6001600160e01b031981160361028957565b3461028957602036600319011261028957602060043561032d816102fc565b63ffffffff60e01b16637965db0b60e01b8114908115610353575b506040519015158152f35b636cdb3d1360e11b811491508115610385575b8115610374575b505f610348565b6301ffc9a760e01b1490505f61036d565b6303a24d0760e21b81149150610366565b634e487b7160e01b5f52604160045260245ffd5b601f909101601f19168101906001600160401b038211908210176103cd57604052565b610396565b6001600160401b0381116103cd57601f01601f191660200190565b81601f8201121561028957803590610404826103d2565b9261041260405194856103aa565b8284526020838301011161028957815f926020809301838601378301015290565b3461028957602080600319360112610289576001600160401b0390600435828111610289576104669036906004016103ed565b9161046f611c55565b82519081116103cd575f805160206128538339815191529161049a826104958554610c67565b6118f3565b602090601f83116001146104cd575081906104be93945f926104c2575b505061199e565b9055005b015190505f806104b7565b90601f198316946104dc610c9f565b925f905b8782106105165750508360019596106104fe575b505050811b019055005b01515f1960f88460031b161c191690555f80806104f4565b806001859682949686015181550195019301906104e0565b91908251928382525f5b848110610558575050825f602080949584010152601f8019910116010190565b602081830181015184830182015201610538565b90602061057d92818152019061052e565b90565b3461028957602080600319360112610289576040515f915f8051602061285383398151915280546105b081610c67565b8085529160019180831690811561062657506001146105ea575b6105e6856105da818903826103aa565b6040519182918261056c565b0390f35b5f908152838120939550925b82841061061357505050816105e6936105da92820101935f6105ca565b80548585018701529285019281016105f6565b60ff191686860152505050151560051b82010191506105da816105e65f6105ca565b34610289575f366003190112610289576020600754604051908152f35b6001600160a01b03165f90815260208190526040902090565b6001600160a01b03165f90815260016020526040902090565b6001600160a01b03165f90815260026020526040902090565b6001600160a01b03165f9081527f88be536d5240c274a3b1d3a1be54482fd9caa294f08c62a7cde569f49a3c45016020526040902090565b9060018060a01b03165f5260205260405f2090565b34610289576020366003190112610289576001600160a01b0361071e610273565b165f526004602052602061ffff60405f205416604051908152f35b346102895760208060031936011261028957600435906001600160401b0390818311610289573660238401121561028957826004013591821161028957602490366024848601011161028957335f52600360205260405f20916107a6846107a08554610c67565b8561194f565b5f91601f8511600114610802575050916107ef916107db82805f80516020612813833981519152965f916107f4575b5061199e565b90555b6040519182916024339601836119b0565b0390a2005b60249150880101355f6107d5565b9190601f19851690610817855f5260205f2090565b935f915b83831061086d57505050916107ef9391855f80516020612813833981519152969410610851575b5050600182811b0190556107de565b8601602401355f19600385901b60f8161c191690555f80610842565b908060018697848396988d01013581550196019401919061081b565b34610289576020366003190112610289576004355f525f805160206127d38339815191526020526020600160405f200154604051908152f35b34610289576020366003190112610289576001600160a01b036108e3610273565b165f526001602052602060405f2054604051908152f35b6001600160401b0381116103cd5760051b60200190565b9080601f8301121561028957602090823561092b816108fa565b9361093960405195866103aa565b81855260208086019260051b82010192831161028957602001905b828210610962575050505090565b81358152908301908301610954565b346102895760a03660031901126102895761098a610273565b61099261028d565b906044356001600160401b03808211610289576109b460049236908401610911565b92606435828111610289576109cc9036908501610911565b91608435908111610289576109e490369085016103ed565b936109ef8233611d92565b6001600160a01b0386811695908615610b4b578316958615610b355782518551808203610b195750505f5b8351811015610aa8578060051b6020808287010151918801015190610a4787610a42836118b5565b6106e8565b54828110610a8457610a748c610a42859460019796610a7c9503610a6e8d610a42846118b5565b556118b5565b918254612362565b905501610a1a565b6040516303dee4c560e01b8152928392610aa4929091908a858e0161233e565b0390fd5b50610af092888587938a60018551145f14610af25760208501515f80516020612713833981519152610ae660208901516040519182913395836119d7565b0390a45b3361260f565b005b6040515f805160206126d3833981519152339180610b118a8a8361236f565b0390a4610aea565b604051635b05999160e01b8152918291610aa491838b016119d7565b604051626a0d4560e21b81525f81880152602490fd5b604051632bfa23e760e11b81525f81880152602490fd5b3461028957604036600319011261028957610af0600435610b8161028d565b90805f525f805160206127d3833981519152602052610ba6600160405f200154611d6f565b611f1c565b3461028957604036600319011261028957610bc461028d565b336001600160a01b03821603610be057610af090600435611f40565b60405163334bd91960e11b8152600490fd5b34610289575f36600319011261028957610c0a611c55565b5f805160206127f3833981519152805460ff811615610c555760ff191690557f5db9ee0a495bf2e6ff9c91a7834c1ba4fdd244a5e8aa4e537bd38aeae4b073aa6020604051338152a1005b604051638dfc202b60e01b8152600490fd5b90600182811c92168015610c95575b6020831014610c8157565b634e487b7160e01b5f52602260045260245ffd5b91607f1691610c76565b5f805160206128538339815191525f527ff429cb5e2ec84cbb765e76b31964a56ccde03e7a6122d6cc4afb19edc55edeed90565b3461028957602080600319360112610289576001600160a01b03610cf5610273565b165f526003815260405f2090604051905f928054610d1281610c67565b808552916001918083169081156106265750600114610d3b576105e6856105da818903826103aa565b5f908152838120939550925b828410610d6457505050816105e6936105da92820101935f6105ca565b8054858501870152928501928101610d47565b3461028957604036600319011261028957610d90610273565b610d98611c55565b600680546001600160a01b0319166001600160a01b0392909216919091179055602435600755005b9081518082526020808093019301915f5b828110610ddf575050505090565b835185529381019392810192600101610dd1565b90602061057d928181520190610dc0565b34610289576040366003190112610289576004356001600160401b038082116102895736602383011215610289578160040135610e40816108fa565b92610e4e60405194856103aa565b8184526020916024602086019160051b8301019136831161028957602401905b828210610ea75785602435868111610289576105e691610e95610e9b923690600401610911565b90611a10565b60405191829182610df3565b838091610eb3846102a3565b815201910190610e6e565b604036600319011261028957610ed2610273565b6024356001600160401b03811161028957610ef19036906004016103ed565b6001600160a01b0391907f00000000000000000000000000000000000000000000000000000000000000008316308114908115610ff4575b50610fe2576020600493610f3b611ca9565b6040516352d1902d60e01b8152948591829086165afa5f9381610fb1575b50610f7957604051634c9c8ce360e01b815280610aa4846004830161151c565b905f805160206127738339815191528303610f9857610af09250612249565b604051632a87526960e21b815260048101849052602490fd5b610fd491945060203d602011610fdb575b610fcc81836103aa565b810190611aae565b925f610f59565b503d610fc2565b60405163703e46dd60e11b8152600490fd5b9050835f80516020612773833981519152541614155f610f29565b34610289575f366003190112610289577f00000000000000000000000000000000000000000000000000000000000000006001600160a01b03163003610fe25760206040515f805160206127738339815191528152f35b34610289575f36600319011261028957602060ff5f805160206127f383398151915254166040519015158152f35b34610289576060366003190112610289576110ad610273565b604435906110b9611d20565b6110c1611fbb565b6006546001600160a01b0316918083151580611111575b610af094506110f5575b506110eb6114a3565b9160243590611fe5565b61110b915061110390611adc565b612710900490565b5f6110e2565b50602060405180956370a0823160e01b82528180611132886004830161151c565b03915afa801561117157610af0945f91611152575b5060075411156110d8565b61116b915060203d602011610fdb57610fcc81836103aa565b5f611147565b611abd565b346102895760403660031901126102895761118f610273565b60243560ff8116809103610289576111a5611d20565b6111ad611fbb565b60058111611254576111be82610665565b9081540190556111cd8161067e565b600181540190556111f96111e96111e383610665565b54611af8565b6111f28361067e565b5490611b15565b61120282610697565b557fc12d213e7ea9f56eb3dd8261621f43832bcf7c9cb664bd596941cc587b3c9f7161122d82610697565b54916112388161067e565b546040516001600160a01b039092169382916107ef91836119d7565b60405163f90b0b3f60e01b8152600490fd5b34610289575f3660031901126102895761127e611c55565b611286611fbb565b5f805160206127f3833981519152600160ff198254161790557f62e78cea01bee320cd4e420270b5ea74000d11b0c9f74754ebdbfc544b05a2586020604051338152a1005b34610289576060366003190112610289576112e4610273565b6024359061ffff808316808403610289576044359182168083036102895761137360409361135a7ff2c29af5900acc63fc3482bcfb6108c7d5fe3d4d5d6c844031712b13c5e1f37696611335611d20565b60018060a01b031697885f526004602052865f209061ffff1661ffff19825416179055565b6005602052845f209061ffff1661ffff19825416179055565b82519182526020820152a2005b3461028957604036600319011261028957602060ff6113be6113a061028d565b6004355f525f805160206127d3833981519152845260405f206106e8565b54166040519015158152f35b34610289575f3660031901126102895760206040515f8152f35b34610289576040366003190112610289576113fd610273565b602435801515810361028957331561148b576001600160a01b038216918215611474578161143161144292610a42336106b0565b9060ff801983541691151516179055565b604051901515815233907f17307eab39ab6107e8899845ad3d59bd9653f200f220920489ca2b5937696c3190602090a3005b60405162ced3e160e81b81525f6004820152602490fd5b604051631f18c42760e11b81525f6004820152602490fd5b60405190602082016001600160401b038111838210176103cd576040525f8252565b34610289575f3660031901126102895760408051908101906001600160401b038211818310176103cd576105e69160405260058152640352e302e360dc1b602082015260405191829160208352602083019061052e565b6001600160a01b03909116815260200190565b34610289575f366003190112610289576006546040516001600160a01b039091168152602090f35b34610289576020366003190112610289576001600160a01b03611578610273565b165f525f602052602060405f2054604051908152f35b34610289575f3660031901126102895760206040515f805160206127b38339815191528152f35b3461028957604036600319011261028957610af06004356115d461028d565b90805f525f805160206127d38339815191526020526115f9600160405f200154611d6f565b611f40565b34610289576020366003190112610289576001600160a01b0361161f610273565b165f526005602052602061ffff60405f205416604051908152f35b3461028957604036600319011261028957602060ff6113be61165a610273565b610a4261166561028d565b916106b0565b346102895760a036600319011261028957611684610273565b61168c61028d565b6084356001600160401b038111610289576116ab9036906004016103ed565b906116b68333611d92565b6001600160a01b03818116156116fe578316156116e757610af0926116df6064356044356122eb565b9290916120c9565b604051626a0d4560e21b81525f6004820152602490fd5b604051632bfa23e760e11b81525f6004820152602490fd5b346102895760403660031901126102895761172f610273565b6001600160401b0390602435828111610289576117509036906004016103ed565b5f80516020612833833981519152549260ff8460401c161593168015908161184e575b6001149081611844575b15908161183b575b50611829575f8051602061283383398151915280546001600160401b03191660011790556117b7918361180557611b33565b6117bd57005b5f80516020612833833981519152805460ff60401b19169055604051600181527fc7f505b2f371ae2175ee4913f4499e1f2633a7b5936321eed1cdaeb6115181d290602090a1005b5f80516020612833833981519152805460ff60401b1916600160401b179055611b33565b60405163f92ee8a960e01b8152600490fd5b9050155f611785565b303b15915061177d565b849150611773565b34610289576020366003190112610289576001600160a01b03611877610273565b165f526002602052602060405f2054604051908152f35b34610289575f3660031901126102895760206040515f805160206127338339815191528152f35b5f525f8051602061279383398151915260205260405f2090565b6118ef915f525f8051602061279383398151915260205260405f206106e8565b5490565b601f81116118ff575050565b5f805160206128538339815191525f5260205f20906020601f840160051c83019310611945575b601f0160051c01905b81811061193a575050565b5f815560010161192f565b9091508190611926565b601f821161195c57505050565b5f5260205f20906020601f840160051c83019310611994575b601f0160051c01905b818110611989575050565b5f815560010161197e565b9091508190611975565b8160011b915f199060031b1c19161790565b90918060409360208452816020850152848401375f828201840152601f01601f1916010190565b908152602081019190915260400190565b80518210156119fc5760209160051b010190565b634e487b7160e01b5f52603260045260245ffd5b91909180518351808203611a92575050805190611a45611a2f836108fa565b92611a3d60405194856103aa565b8084526108fa565b60209190601f190136848401375f5b8151811015611a8a5780611a7960019260051b85808287010151918a010151906118cf565b611a8382876119e8565b5201611a54565b509193505050565b610aa4604051928392635b05999160e01b8452600484016119d7565b90816020910312610289575190565b6040513d5f823e3d90fd5b634e487b7160e01b5f52601160045260245ffd5b90613a9891828102928184041490151715611af357565b611ac8565b90670de0b6b3a764000091828102928184041490151715611af357565b8115611b1f570490565b634e487b7160e01b5f52601260045260245ffd5b9091906001600160a01b03811615611c4357611b4d612310565b611b55612310565b82516001600160401b0381116103cd575f8051602061285383398151915290611b82816104958454610c67565b602080601f8311600114611bd857509080611ba992611bd596975f926104c257505061199e565b90555b611bb4612310565b611bbc612310565b611bc581611df0565b50611bcf81611e6b565b50611eea565b50565b90601f19831696611be7610c9f565b925f905b898210611c2b57505090839291600194611bd5989910611c13575b505050811b019055611bac565b01515f1960f88460031b161c191690555f8080611c06565b80600185968294968601518155019501930190611beb565b60405163d92e233d60e01b8152600490fd5b5f80525f805160206127d383398151915260205260ff611c82335f805160206127538339815191526106e8565b541615611c8b57565b60405163e2517d3f60e01b81523360048201525f6024820152604490fd5b5f805160206127338339815191525f8190525f805160206127d383398151915260205260ff611cf8337fab71e3f32666744d246edff3f96e4bdafee2e9867098cdd118a979a7464786a86106e8565b541615611d025750565b6044906040519063e2517d3f60e01b82523360048301526024820152fd5b5f805160206127b38339815191525f8190525f805160206127d383398151915260205260ff611cf8337f549fe2656c81d2947b3b913f0a53b9ea86c71e049f3a1b8aa23c09a8a05cb8d46106e8565b805f525f805160206127d383398151915260205260ff611cf83360405f206106e8565b6001600160a01b038181169290811691828414159182611dd5575b5050611db7575050565b604492506040519163711bec9160e11b835260048301526024820152fd5b60ff925090610a42611de6926106b0565b5416155f80611dad565b5f80525f805160206127d3833981519152602081905260ff611e1f835f805160206127538339815191526106e8565b5416611e65575f8052602052611e388160405f206106e8565b805460ff1916600117905533906001600160a01b03165f5f805160206126f38339815191528180a4600190565b50505f90565b5f805160206127b3833981519152805f525f805160206127d38339815191528060205260ff611e9d8460405f206106e8565b5416611ee357815f52602052611eb68260405f206106e8565b805460ff1916600117905533916001600160a01b0316905f805160206126f38339815191525f80a4600190565b5050505f90565b5f80516020612733833981519152805f525f805160206127d38339815191528060205260ff611e9d8460405f206106e8565b805f525f805160206127d38339815191528060205260ff611e9d8460405f206106e8565b805f525f805160206127d38339815191528060205260ff611f648460405f206106e8565b541615611ee357815f52602052611f7e8260405f206106e8565b805460ff1916905533916001600160a01b0316907ff6391f5c32d9c69d2a47ea670b442974b53935d1edc7fd64eb21e047a839171b5f80a4600190565b60ff5f805160206127f38339815191525416611fd357565b60405163d93c066560e01b8152600490fd5b92936001600160a01b03841693909290919084156116fe57612006916122eb565b9290948551845190818103611a925750505f5b8651811015612050578060019160051b612048610a7487610a42848d6020918291010151958c010151946118b5565b905501612019565b509290946020809161209f9660018251145f146120a1575f838301515f8051602061271383398151915261208f868901516040519182913395836119d7565b0390a45b0151910151913361243b565b565b5f6040515f805160206126d38339815191523391806120c18a888361236f565b0390a4612093565b949190918151845190818103611a925750505f5b825181101561219257600581901b83810160209081015191870101516001600160a01b03929186908a851661213a575b6001948216612120575b505050016120dd565b61213091610a42610a74926118b5565b90555f8581612117565b919293905061214c8a610a42846118b5565b54838110612173579187918460019695940361216b8d610a42856118b5565b55945061210d565b8a610aa484866040519485946303dee4c560e01b86526004860161233e565b5094919392909360018551145f14612211576020850151602083015160018060a01b03915f80516020612713833981519152604051806121da868816968a16953395836119d7565b0390a45b6001600160a01b0381166121f4575b5050505050565b6020806122079601519201519233612528565b5f808080806121ed565b6040516001600160a01b03828116919085169033905f805160206126d38339815191529080612241888c8361236f565b0390a46121de565b90813b156122ca575f8051602061277383398151915280546001600160a01b0319166001600160a01b0384169081179091557fbc7cd75a20ee27fd9adebab32041f755214dbc6bffa90cc0225b39da2e5c2d3b5f80a28051156122af57611bd591612646565b5050346122b857565b60405163b398979f60e01b8152600490fd5b604051634c9c8ce360e01b81526001600160a01b0383166004820152602490fd5b9160405192600184526020840152604083019160018352606084015260808301604052565b60ff5f805160206128338339815191525460401c161561232c57565b604051631afcd79f60e31b8152600490fd5b90949392606092608083019660018060a01b03168352602083015260408201520152565b91908201809211611af357565b909161238661057d93604084526040840190610dc0565b916020818403910152610dc0565b90816020910312610289575161057d816102fc565b909260a09261057d9594600180861b031683525f602084015260408301526060820152816080820152019061052e565b919261057d95949160a094600180871b03809216855216602084015260408301526060820152816080820152019061052e565b3d15612436573d9061241d826103d2565b9161242b60405193846103aa565b82523d5f602084013e565b606090565b9293919093843b61244d575050505050565b602091612470604051948593849363f23a6e6160e01b98898652600486016123a9565b03815f6001600160a01b0388165af15f91816124f7575b506124c0578261249561240c565b80519190826124b957604051632bfa23e760e11b815280610aa4846004830161151c565b6020915001fd5b6001600160e01b031916036124da57505f808080806121ed565b604051632bfa23e760e11b8152908190610aa4906004830161151c565b61251a91925060203d602011612521575b61251281836103aa565b810190612394565b905f612487565b503d612508565b939290949194853b61253d575b505050505050565b612560602093604051958694859463f23a6e6160e01b998a8752600487016123d9565b03815f6001600160a01b0388165af15f91816125a0575b50612585578261249561240c565b6001600160e01b031916036124da57505f8080808080612535565b6125ba91925060203d6020116125215761251281836103aa565b905f612577565b939061057d95936125f3916126019460018060a01b03809216885216602087015260a0604087015260a0860190610dc0565b908482036060860152610dc0565b91608081840391015261052e565b939290949194853b61262357505050505050565b612560602093604051958694859463bc197c8160e01b998a8752600487016125c1565b905f8091602081519101845af480806126a6575b1561266957505061057d6126b9565b1561268b57604051639996b31560e01b8152908190610aa4906004830161151c565b3d15155f03611abd5760405163d6bda27560e01b8152600490fd5b503d15158061265a5750813b151561265a565b604051903d82523d5f602084013e60203d83010160405256fe4a39dc06d4c0dbc64b70af90fd698a233a518aa5d07e595d983b8c0526c8f7fb2f8788117e7eff1d82e926ec794901d17c78024a50270940304540a733656f0dc3d58168c5ae7397731d063d5bbf3d657854427343f4c083240f7aacaa2d0f62189ab7a9244df0848122154315af71fe140f3db0fe014031783b0946b8c9d2e3b7db2dd08fcb62d0c9e08c51941cae53c267786a0b75803fb7960902fc8ef97d360894a13ba1a3210667c828492db98dca3e2076cc3735a920a3ca505d382bbc88be536d5240c274a3b1d3a1be54482fd9caa294f08c62a7cde569f49a3c45009f2df0fed2c77648de5860a4cc508cd0818c85b8b8a1ab4ceeef8d981c8956a602dd7bc7dec4dceedda775e58dd541e08a116c6c53815c0bd028192f7b626800cd5ed15c6e187e77e9aee88184c21f4f2182ab5827cb3b7e07fbedcd63f03300fde9bf42e64d10f6d16dd90d35d9af49052d1ebd2128e70f6721ac42d6162274f0c57e16840df040f15088dc2f81fe391c3923bec73e23a9662efc9c229c6a0088be536d5240c274a3b1d3a1be54482fd9caa294f08c62a7cde569f49a3c4502a264697066735822122034540ef9dded18c7c02666ad6c0ae4a4fa8081f0e9113f94860ab2e6a30dc7e164736f6c63430008180033",
  "linkReferences": {},
  "deployedLinkReferences": {}
}