{
  "_format": "hh-sol-artifact-1",
  "contractName": "InvoiceNFT",
  "sourceName": "contracts/InvoiceNFT.sol",
  "abi": [
    {
      "inputs": [],
      "stateMutability": "nonpayable",
      "type": "constructor"
    },
    {
      "inputs": [],
      "name": "AccessControlBadConfirmation",
      "type": "error"
    },
    {
      "inputs": [
        {
          "internalType": "address",
          "name": "account",
          "type": "address"
        },
        {
          "internalType": "bytes32",
          "name": "neededRole",
          "type": "bytes32"
        }
      ],
      "name": "AccessControlUnauthorizedAccount",
      "type": "error"
    },
    {
      "inputs": [
        {
          "internalType": "address",
          "name": "target",
          "type": "address"
        }
      ],
      "name": "AddressEmptyCode",
      "type": "error"
    },
    {
      "inputs": [
        {
          "internalType": "address",
          "name": "implementation",
          "type": "address"
        }
      ],
      "name": "ERC1967InvalidImplementation",
      "type": "error"
    },
    {
      "inputs": [],
      "name": "ERC1967NonPayable",
      "type": "error"
    },
    {
      "inputs": [
        {
          "internalType": "address",
          "name": "sender",
          "type": "address"
        },
        {
          "internalType": "uint256",
          "name": "tokenId",
          "type": "uint256"
        },
        {
          "internalType": "address",
          "name": "owner",
          "type": "address"
        }
      ],
      "name": "ERC721IncorrectOwner",
      "type": "error"
    },
    {
      "inputs": [
        {
          "internalType": "address",
          "name": "operator",
          "type": "address"
        },
        {
          "internalType": "uint256",
          "name": "tokenId",
          "type": "uint256"
        }
      ],
      "name": "ERC721InsufficientApproval",
      "type": "error"
    },
    {
      "inputs": [
        {
          "internalType": "address",
          "name": "approver",
          "type": "address"
        }
      ],
      "name": "ERC721InvalidApprover",
      "type": "error"
    },
    {
      "inputs": [
        {
          "internalType": "address",
          "name": "operator",
          "type": "address"
        }
      ],
      "name": "ERC721InvalidOperator",
      "type": "error"
    },
    {
      "inputs": [
        {
          "internalType": "address",
          "name": "owner",
          "type": "address"
        }
      ],
      "name": "ERC721InvalidOwner",
      "type": "error"
    },
    {
      "inputs": [
        {
          "internalType": "address",
          "name": "receiver",
          "type": "address"
        }
      ],
      "name": "ERC721InvalidReceiver",
      "type": "error"
    },
    {
      "inputs": [
        {
          "internalType": "address",
          "name": "sender",
          "type": "address"
        }
      ],
      "name": "ERC721InvalidSender",
      "type": "error"
    },
    {
      "inputs": [
        {
          "internalType": "uint256",
          "name": "tokenId",
          "type": "uint256"
        }
      ],
      "name": "ERC721NonexistentToken",
      "type": "error"
    },
    {
      "inputs": [],
      "name": "FailedCall",
      "type": "error"
    },
    {
      "inputs": [],
      "name": "GravityAnomaly",
      "type": "error"
    },
    {
      "inputs": [],
      "name": "InvalidInitialization",
      "type": "error"
    },
    {
      "inputs": [],
      "name": "InvalidStateTransition",
      "type": "error"
    },
    {
      "inputs": [],
      "name": "NotInitializing",
      "type": "error"
    },
    {
      "inputs": [],
      "name": "PaymentFailed",
      "type": "error"
    },
    {
      "inputs": [],
      "name": "ReentrancyGuardReentrantCall",
      "type": "error"
    },
    {
      "inputs": [
        {
          "internalType": "address",
          "name": "token",
          "type": "address"
        }
      ],
      "name": "SafeERC20FailedOperation",
      "type": "error"
    },
    {
      "inputs": [],
      "name": "TimeHorizonInvalid",
      "type": "error"
    },
    {
      "inputs": [],
      "name": "UUPSUnauthorizedCallContext",
      "type": "error"
    },
    {
      "inputs": [
        {
          "internalType": "bytes32",
          "name": "slot",
          "type": "bytes32"
        }
      ],
      "name": "UUPSUnsupportedProxiableUUID",
      "type": "error"
    },
    {
      "inputs": [],
      "name": "UnauthorizedActor",
      "type": "error"
    },
    {
      "inputs": [],
      "name": "ZeroAddress",
      "type": "error"
    },
    {
      "inputs": [],
      "name": "ZeroValueIntent",
      "type": "error"
    },
    {
      "anonymous": false,
      "inputs": [
        {
          "indexed": true,
          "internalType": "address",
          "name": "owner",
          "type": "address"
        },
        {
          "indexed": true,
          "internalType": "address",
          "name": "approved",
          "type": "address"
        },
        {
          "indexed": true,
          "internalType": "uint256",
          "name": "tokenId",
          "type": "uint256"
        }
      ],
      "name": "Approval",
      "type": "event"
    },
    {
      "anonymous": false,
      "inputs": [
        {
          "indexed": true,
          "internalType": "address",
          "name": "owner",
          "type": "address"
        },
        {
          "indexed": true,
          "internalType": "address",
          "name": "operator",
          "type": "address"
        },
        {
          "indexed": false,
          "internalType": "bool",
          "name": "approved",
          "type": "bool"
        }
      ],
      "name": "ApprovalForAll",
      "type": "event"
    },
    {
      "anonymous": false,
      "inputs": [
        {
          "indexed": false,
          "internalType": "uint256",
          "name": "_fromTokenId",
          "type": "uint256"
        },
        {
          "indexed": false,
          "internalType": "uint256",
          "name": "_toTokenId",
          "type": "uint256"
        }
      ],
      "name": "BatchMetadataUpdate",
      "type": "event"
    },
    {
      "anonymous": false,
      "inputs": [
        {
          "indexed": true,
          "internalType": "uint256",
          "name": "invoiceId",
          "type": "uint256"
        },
        {
          "indexed": false,
          "internalType": "uint256",
          "name": "amount",
          "type": "uint256"
        }
      ],
      "name": "DebtNeutralized",
      "type": "event"
    },
    {
      "anonymous": false,
      "inputs": [
        {
          "indexed": true,
          "internalType": "uint256",
          "name": "invoiceId",
          "type": "uint256"
        }
      ],
      "name": "DefaultDeclared",
      "type": "event"
    },
    {
      "anonymous": false,
      "inputs": [
        {
          "indexed": true,
          "internalType": "uint256",
          "name": "invoiceId",
          "type": "uint256"
        },
        {
          "indexed": false,
          "internalType": "address",
          "name": "disputer",
          "type": "address"
        }
      ],
      "name": "FrictionActuated",
      "type": "event"
    },
    {
      "anonymous": false,
      "inputs": [
        {
          "indexed": false,
          "internalType": "uint64",
          "name": "version",
          "type": "uint64"
        }
      ],
      "name": "Initialized",
      "type": "event"
    },
    {
      "anonymous": false,
      "inputs": [
        {
          "indexed": true,
          "internalType": "uint256",
          "name": "invoiceId",
          "type": "uint256"
        },
        {
          "indexed": false,
          "internalType": "address",
          "name": "verifier",
          "type": "address"
        }
      ],
      "name": "InvoiceVerified",
      "type": "event"
    },
    {
      "anonymous": false,
      "inputs": [
        {
          "indexed": true,
          "internalType": "uint256",
          "name": "invoiceId",
          "type": "uint256"
        },
        {
          "indexed": true,
          "internalType": "address",
          "name": "financier",
          "type": "address"
        },
        {
          "indexed": false,
          "internalType": "uint256",
          "name": "amount",
          "type": "uint256"
        }
      ],
      "name": "LiquidityInjected",
      "type": "event"
    },
    {
      "anonymous": false,
      "inputs": [
        {
          "indexed": false,
          "internalType": "uint256",
          "name": "_tokenId",
          "type": "uint256"
        }
      ],
      "name": "MetadataUpdate",
      "type": "event"
    },
    {
      "anonymous": false,
      "inputs": [
        {
          "indexed": true,
          "internalType": "bytes32",
          "name": "role",
          "type": "bytes32"
        },
        {
          "indexed": true,
          "internalType": "bytes32",
          "name": "previousAdminRole",
          "type": "bytes32"
        },
        {
          "indexed": true,
          "internalType": "bytes32",
          "name": "newAdminRole",
          "type": "bytes32"
        }
      ],
      "name": "RoleAdminChanged",
      "type": "event"
    },
    {
      "anonymous": false,
      "inputs": [
        {
          "indexed": true,
          "internalType": "bytes32",
          "name": "role",
          "type": "bytes32"
        },
        {
          "indexed": true,
          "internalType": "address",
          "name": "account",
          "type": "address"
        },
        {
          "indexed": true,
          "internalType": "address",
          "name": "sender",
          "type": "address"
        }
      ],
      "name": "RoleGranted",
      "type": "event"
    },
    {
      "anonymous": false,
      "inputs": [
        {
          "indexed": true,
          "internalType": "bytes32",
          "name": "role",
          "type": "bytes32"
        },
        {
          "indexed": true,
          "internalType": "address",
          "name": "account",
          "type": "address"
        },
        {
          "indexed": true,
          "internalType": "address",
          "name": "sender",
          "type": "address"
        }
      ],
      "name": "RoleRevoked",
      "type": "event"
    },
    {
      "anonymous": false,
      "inputs": [
        {
          "indexed": true,
          "internalType": "uint256",
          "name": "invoiceId",
          "type": "uint256"
        },
        {
          "indexed": true,
          "internalType": "address",
          "name": "issuer",
          "type": "address"
        },
        {
          "indexed": true,
          "internalType": "address",
          "name": "debtor",
          "type": "address"
        },
        {
          "indexed": false,
          "internalType": "uint256",
          "name": "faceValue",
          "type": "uint256"
        },
        {
          "indexed": false,
          "internalType": "uint256",
          "name": "dueDate",
          "type": "uint256"
        }
      ],
      "name": "SovereignInvoiceActuated",
      "type": "event"
    },
    {
      "anonymous": false,
      "inputs": [
        {
          "indexed": true,
          "internalType": "address",
          "name": "from",
          "type": "address"
        },
        {
          "indexed": true,
          "internalType": "address",
          "name": "to",
          "type": "address"
        },
        {
          "indexed": true,
          "internalType": "uint256",
          "name": "tokenId",
          "type": "uint256"
        }
      ],
      "name": "Transfer",
      "type": "event"
    },
    {
      "anonymous": false,
      "inputs": [
        {
          "indexed": true,
          "internalType": "address",
          "name": "implementation",
          "type": "address"
        }
      ],
      "name": "Upgraded",
      "type": "event"
    },
    {
      "inputs": [],
      "name": "DEFAULT_ADMIN_ROLE",
      "outputs": [
        {
          "internalType": "bytes32",
          "name": "",
          "type": "bytes32"
        }
      ],
      "stateMutability": "view",
      "type": "function"
    },
    {
      "inputs": [],
      "name": "MINTER_ROLE",
      "outputs": [
        {
          "internalType": "bytes32",
          "name": "",
          "type": "bytes32"
        }
      ],
      "stateMutability": "view",
      "type": "function"
    },
    {
      "inputs": [],
      "name": "TREASURY_ROLE",
      "outputs": [
        {
          "internalType": "bytes32",
          "name": "",
          "type": "bytes32"
        }
      ],
      "stateMutability": "view",
      "type": "function"
    },
    {
      "inputs": [],
      "name": "UPGRADER_ROLE",
      "outputs": [
        {
          "internalType": "bytes32",
          "name": "",
          "type": "bytes32"
        }
      ],
      "stateMutability": "view",
      "type": "function"
    },
    {
      "inputs": [],
      "name": "UPGRADE_INTERFACE_VERSION",
      "outputs": [
        {
          "internalType": "string",
          "name": "",
          "type": "string"
        }
      ],
      "stateMutability": "view",
      "type": "function"
    },
    {
      "inputs": [],
      "name": "VERIFIER_ROLE",
      "outputs": [
        {
          "internalType": "bytes32",
          "name": "",
          "type": "bytes32"
        }
      ],
      "stateMutability": "view",
      "type": "function"
    },
    {
      "inputs": [],
      "name": "aiOracle",
      "outputs": [
        {
          "internalType": "address",
          "name": "",
          "type": "address"
        }
      ],
      "stateMutability": "view",
      "type": "function"
    },
    {
      "inputs": [
        {
          "internalType": "address",
          "name": "to",
          "type": "address"
        },
        {
          "internalType": "uint256",
          "name": "tokenId",
          "type": "uint256"
        }
      ],
      "name": "approve",
      "outputs": [],
      "stateMutability": "nonpayable",
      "type": "function"
    },
    {
      "inputs": [
        {
          "internalType": "address",
          "name": "owner",
          "type": "address"
        }
      ],
      "name": "balanceOf",
      "outputs": [
        {
          "internalType": "uint256",
          "name": "",
          "type": "uint256"
        }
      ],
      "stateMutability": "view",
      "type": "function"
    },
    {
      "inputs": [
        {
          "internalType": "uint256",
          "name": "invoiceId",
          "type": "uint256"
        }
      ],
      "name": "calculateDiscountRate",
      "outputs": [
        {
          "internalType": "uint256",
          "name": "discountBps",
          "type": "uint256"
        }
      ],
      "stateMutability": "view",
      "type": "function"
    },
    {
      "inputs": [
        {
          "internalType": "address",
          "name": "debtor",
          "type": "address"
        },
        {
          "internalType": "address",
          "name": "paymentToken",
          "type": "address"
        },
        {
          "internalType": "uint256",
          "name": "faceValue",
          "type": "uint256"
        },
        {
          "internalType": "uint256",
          "name": "dueDate",
          "type": "uint256"
        },
        {
          "internalType": "string",
          "name": "invoiceHash",
          "type": "string"
        },
        {
          "internalType": "bytes32",
          "name": "legalHash",
          "type": "bytes32"
        }
      ],
      "name": "createInvoice",
      "outputs": [
        {
          "internalType": "uint256",
          "name": "invoiceId",
          "type": "uint256"
        }
      ],
      "stateMutability": "nonpayable",
      "type": "function"
    },
    {
      "inputs": [
        {
          "internalType": "address",
          "name": "",
          "type": "address"
        },
        {
          "internalType": "uint256",
          "name": "",
          "type": "uint256"
        }
      ],
      "name": "debtorInvoices",
      "outputs": [
        {
          "internalType": "uint256",
          "name": "",
          "type": "uint256"
        }
      ],
      "stateMutability": "view",
      "type": "function"
    },
    {
      "inputs": [
        {
          "internalType": "uint256",
          "name": "invoiceId",
          "type": "uint256"
        }
      ],
      "name": "disputeInvoice",
      "outputs": [],
      "stateMutability": "nonpayable",
      "type": "function"
    },
    {
      "inputs": [],
      "name": "feeCollector",
      "outputs": [
        {
          "internalType": "address",
          "name": "",
          "type": "address"
        }
      ],
      "stateMutability": "view",
      "type": "function"
    },
    {
      "inputs": [
        {
          "internalType": "uint256",
          "name": "invoiceId",
          "type": "uint256"
        },
        {
          "internalType": "uint256",
          "name": "offerAmount",
          "type": "uint256"
        }
      ],
      "name": "financeInvoice",
      "outputs": [],
      "stateMutability": "payable",
      "type": "function"
    },
    {
      "inputs": [],
      "name": "frictionPenaltyBps",
      "outputs": [
        {
          "internalType": "uint256",
          "name": "",
          "type": "uint256"
        }
      ],
      "stateMutability": "view",
      "type": "function"
    },
    {
      "inputs": [
        {
          "internalType": "uint256",
          "name": "tokenId",
          "type": "uint256"
        }
      ],
      "name": "getApproved",
      "outputs": [
        {
          "internalType": "address",
          "name": "",
          "type": "address"
        }
      ],
      "stateMutability": "view",
      "type": "function"
    },
    {
      "inputs": [
        {
          "internalType": "address",
          "name": "debtor",
          "type": "address"
        }
      ],
      "name": "getDebtorInvoices",
      "outputs": [
        {
          "internalType": "uint256[]",
          "name": "",
          "type": "uint256[]"
        }
      ],
      "stateMutability": "view",
      "type": "function"
    },
    {
      "inputs": [
        {
          "internalType": "uint256",
          "name": "invoiceId",
          "type": "uint256"
        }
      ],
      "name": "getInvoiceDetails",
      "outputs": [
        {
          "components": [
            {
              "internalType": "uint256",
              "name": "invoiceId",
              "type": "uint256"
            },
            {
              "internalType": "address",
              "name": "issuer",
              "type": "address"
            },
            {
              "internalType": "address",
              "name": "debtor",
              "type": "address"
            },
            {
              "internalType": "address",
              "name": "paymentToken",
              "type": "address"
            },
            {
              "internalType": "uint256",
              "name": "faceValue",
              "type": "uint256"
            },
            {
              "internalType": "uint256",
              "name": "dueDate",
              "type": "uint256"
            },
            {
              "internalType": "uint256",
              "name": "issuedDate",
              "type": "uint256"
            },
            {
              "internalType": "enum InvoiceNFT.InvoiceStatus",
              "name": "status",
              "type": "uint8"
            },
            {
              "internalType": "string",
              "name": "invoiceHash",
              "type": "string"
            },
            {
              "internalType": "bytes32",
              "name": "legalHash",
              "type": "bytes32"
            },
            {
              "internalType": "bool",
              "name": "isVerified",
              "type": "bool"
            },
            {
              "internalType": "address",
              "name": "financier",
              "type": "address"
            },
            {
              "internalType": "uint256",
              "name": "financedAmount",
              "type": "uint256"
            },
            {
              "internalType": "uint256",
              "name": "paidAmount",
              "type": "uint256"
            }
          ],
          "internalType": "struct InvoiceNFT.Invoice",
          "name": "",
          "type": "tuple"
        }
      ],
      "stateMutability": "view",
      "type": "function"
    },
    {
      "inputs": [
        {
          "internalType": "address",
          "name": "issuer",
          "type": "address"
        }
      ],
      "name": "getIssuerInvoices",
      "outputs": [
        {
          "internalType": "uint256[]",
          "name": "",
          "type": "uint256[]"
        }
      ],
      "stateMutability": "view",
      "type": "function"
    },
    {
      "inputs": [
        {
          "internalType": "bytes32",
          "name": "role",
          "type": "bytes32"
        }
      ],
      "name": "getRoleAdmin",
      "outputs": [
        {
          "internalType": "bytes32",
          "name": "",
          "type": "bytes32"
        }
      ],
      "stateMutability": "view",
      "type": "function"
    },
    {
      "inputs": [
        {
          "internalType": "bytes32",
          "name": "role",
          "type": "bytes32"
        },
        {
          "internalType": "address",
          "name": "account",
          "type": "address"
        }
      ],
      "name": "grantRole",
      "outputs": [],
      "stateMutability": "nonpayable",
      "type": "function"
    },
    {
      "inputs": [
        {
          "internalType": "bytes32",
          "name": "role",
          "type": "bytes32"
        },
        {
          "internalType": "address",
          "name": "account",
          "type": "address"
        }
      ],
      "name": "hasRole",
      "outputs": [
        {
          "internalType": "bool",
          "name": "",
          "type": "bool"
        }
      ],
      "stateMutability": "view",
      "type": "function"
    },
    {
      "inputs": [
        {
          "internalType": "address",
          "name": "_feeCollector",
          "type": "address"
        },
        {
          "internalType": "uint256",
          "name": "_platformGravityBps",
          "type": "uint256"
        }
      ],
      "name": "initialize",
      "outputs": [],
      "stateMutability": "nonpayable",
      "type": "function"
    },
    {
      "inputs": [
        {
          "internalType": "uint256",
          "name": "",
          "type": "uint256"
        }
      ],
      "name": "invoices",
      "outputs": [
        {
          "internalType": "uint256",
          "name": "invoiceId",
          "type": "uint256"
        },
        {
          "internalType": "address",
          "name": "issuer",
          "type": "address"
        },
        {
          "internalType": "address",
          "name": "debtor",
          "type": "address"
        },
        {
          "internalType": "address",
          "name": "paymentToken",
          "type": "address"
        },
        {
          "internalType": "uint256",
          "name": "faceValue",
          "type": "uint256"
        },
        {
          "internalType": "uint256",
          "name": "dueDate",
          "type": "uint256"
        },
        {
          "internalType": "uint256",
          "name": "issuedDate",
          "type": "uint256"
        },
        {
          "internalType": "enum InvoiceNFT.InvoiceStatus",
          "name": "status",
          "type": "uint8"
        },
        {
          "internalType": "string",
          "name": "invoiceHash",
          "type": "string"
        },
        {
          "internalType": "bytes32",
          "name": "legalHash",
          "type": "bytes32"
        },
        {
          "internalType": "bool",
          "name": "isVerified",
          "type": "bool"
        },
        {
          "internalType": "address",
          "name": "financier",
          "type": "address"
        },
        {
          "internalType": "uint256",
          "name": "financedAmount",
          "type": "uint256"
        },
        {
          "internalType": "uint256",
          "name": "paidAmount",
          "type": "uint256"
        }
      ],
      "stateMutability": "view",
      "type": "function"
    },
    {
      "inputs": [
        {
          "internalType": "address",
          "name": "owner",
          "type": "address"
        },
        {
          "internalType": "address",
          "name": "operator",
          "type": "address"
        }
      ],
      "name": "isApprovedForAll",
      "outputs": [
        {
          "internalType": "bool",
          "name": "",
          "type": "bool"
        }
      ],
      "stateMutability": "view",
      "type": "function"
    },
    {
      "inputs": [
        {
          "internalType": "address",
          "name": "",
          "type": "address"
        },
        {
          "internalType": "uint256",
          "name": "",
          "type": "uint256"
        }
      ],
      "name": "issuerInvoices",
      "outputs": [
        {
          "internalType": "uint256",
          "name": "",
          "type": "uint256"
        }
      ],
      "stateMutability": "view",
      "type": "function"
    },
    {
      "inputs": [
        {
          "internalType": "uint256",
          "name": "invoiceId",
          "type": "uint256"
        }
      ],
      "name": "markAsDefaulted",
      "outputs": [],
      "stateMutability": "nonpayable",
      "type": "function"
    },
    {
      "inputs": [],
      "name": "name",
      "outputs": [
        {
          "internalType": "string",
          "name": "",
          "type": "string"
        }
      ],
      "stateMutability": "view",
      "type": "function"
    },
    {
      "inputs": [],
      "name": "originatorGravityBps",
      "outputs": [
        {
          "internalType": "uint256",
          "name": "",
          "type": "uint256"
        }
      ],
      "stateMutability": "view",
      "type": "function"
    },
    {
      "inputs": [
        {
          "internalType": "uint256",
          "name": "tokenId",
          "type": "uint256"
        }
      ],
      "name": "ownerOf",
      "outputs": [
        {
          "internalType": "address",
          "name": "",
          "type": "address"
        }
      ],
      "stateMutability": "view",
      "type": "function"
    },
    {
      "inputs": [
        {
          "internalType": "uint256",
          "name": "invoiceId",
          "type": "uint256"
        }
      ],
      "name": "payInvoice",
      "outputs": [],
      "stateMutability": "payable",
      "type": "function"
    },
    {
      "inputs": [],
      "name": "platformGravityBps",
      "outputs": [
        {
          "internalType": "uint256",
          "name": "",
          "type": "uint256"
        }
      ],
      "stateMutability": "view",
      "type": "function"
    },
    {
      "inputs": [],
      "name": "proxiableUUID",
      "outputs": [
        {
          "internalType": "bytes32",
          "name": "",
          "type": "bytes32"
        }
      ],
      "stateMutability": "view",
      "type": "function"
    },
    {
      "inputs": [
        {
          "internalType": "bytes32",
          "name": "role",
          "type": "bytes32"
        },
        {
          "internalType": "address",
          "name": "callerConfirmation",
          "type": "address"
        }
      ],
      "name": "renounceRole",
      "outputs": [],
      "stateMutability": "nonpayable",
      "type": "function"
    },
    {
      "inputs": [],
      "name": "reputationContract",
      "outputs": [
        {
          "internalType": "address",
          "name": "",
          "type": "address"
        }
      ],
      "stateMutability": "view",
      "type": "function"
    },
    {
      "inputs": [
        {
          "internalType": "bytes32",
          "name": "role",
          "type": "bytes32"
        },
        {
          "internalType": "address",
          "name": "account",
          "type": "address"
        }
      ],
      "name": "revokeRole",
      "outputs": [],
      "stateMutability": "nonpayable",
      "type": "function"
    },
    {
      "inputs": [
        {
          "internalType": "address",
          "name": "from",
          "type": "address"
        },
        {
          "internalType": "address",
          "name": "to",
          "type": "address"
        },
        {
          "internalType": "uint256",
          "name": "tokenId",
          "type": "uint256"
        }
      ],
      "name": "safeTransferFrom",
      "outputs": [],
      "stateMutability": "nonpayable",
      "type": "function"
    },
    {
      "inputs": [
        {
          "internalType": "address",
          "name": "from",
          "type": "address"
        },
        {
          "internalType": "address",
          "name": "to",
          "type": "address"
        },
        {
          "internalType": "uint256",
          "name": "tokenId",
          "type": "uint256"
        },
        {
          "internalType": "bytes",
          "name": "data",
          "type": "bytes"
        }
      ],
      "name": "safeTransferFrom",
      "outputs": [],
      "stateMutability": "nonpayable",
      "type": "function"
    },
    {
      "inputs": [
        {
          "internalType": "address",
          "name": "_oracle",
          "type": "address"
        }
      ],
      "name": "setAIOracle",
      "outputs": [],
      "stateMutability": "nonpayable",
      "type": "function"
    },
    {
      "inputs": [
        {
          "internalType": "address",
          "name": "operator",
          "type": "address"
        },
        {
          "internalType": "bool",
          "name": "approved",
          "type": "bool"
        }
      ],
      "name": "setApprovalForAll",
      "outputs": [],
      "stateMutability": "nonpayable",
      "type": "function"
    },
    {
      "inputs": [
        {
          "internalType": "address",
          "name": "_rep",
          "type": "address"
        }
      ],
      "name": "setReputationContract",
      "outputs": [],
      "stateMutability": "nonpayable",
      "type": "function"
    },
    {
      "inputs": [
        {
          "internalType": "bytes4",
          "name": "interfaceId",
          "type": "bytes4"
        }
      ],
      "name": "supportsInterface",
      "outputs": [
        {
          "internalType": "bool",
          "name": "",
          "type": "bool"
        }
      ],
      "stateMutability": "view",
      "type": "function"
    },
    {
      "inputs": [],
      "name": "symbol",
      "outputs": [
        {
          "internalType": "string",
          "name": "",
          "type": "string"
        }
      ],
      "stateMutability": "view",
      "type": "function"
    },
    {
      "inputs": [
        {
          "internalType": "uint256",
          "name": "tokenId",
          "type": "uint256"
        }
      ],
      "name": "tokenURI",
      "outputs": [
        {
          "internalType": "string",
          "name": "",
          "type": "string"
        }
      ],
      "stateMutability": "view",
      "type": "function"
    },
    {
      "inputs": [
        {
          "internalType": "address",
          "name": "from",
          "type": "address"
        },
        {
          "internalType": "address",
          "name": "to",
          "type": "address"
        },
        {
          "internalType": "uint256",
          "name": "tokenId",
          "type": "uint256"
        }
      ],
      "name": "transferFrom",
      "outputs": [],
      "stateMutability": "nonpayable",
      "type": "function"
    },
    {
      "inputs": [
        {
          "internalType": "uint256",
          "name": "invoiceId",
          "type": "uint256"
        }
      ],
      "name": "treasuryPurchase",
      "outputs": [],
      "stateMutability": "nonpayable",
      "type": "function"
    },
    {
      "inputs": [
        {
          "internalType": "address",
          "name": "newImplementation",
          "type": "address"
        },
        {
          "internalType": "bytes",
          "name": "data",
          "type": "bytes"
        }
      ],
      "name": "upgradeToAndCall",
      "outputs": [],
      "stateMutability": "payable",
      "type": "function"
    },
    {
      "inputs": [
        {
          "internalType": "uint256",
          "name": "invoiceId",
          "type": "uint256"
        }
      ],
      "name": "verifyInvoice",
      "outputs": [],
      "stateMutability": "nonpayable",
      "type": "function"
    }
  ],
  "bytecode": "0x60a08060405234620000f55760017f9b779b17422d0df92223018b32b4d1fa46e071723d6817e2486d003becc55f0055306080527ff0c57e16840df040f15088dc2f81fe391c3923bec73e23a9662efc9c229c6a009081549060ff8260401c16620000e657506001600160401b036002600160401b031982821601620000a0575b6040516137ca9081620000fa823960805181818161179f01526118480152f35b6001600160401b031990911681179091556040519081527fc7f505b2f371ae2175ee4913f4499e1f2633a7b5936321eed1cdaeb6115181d290602090a15f808062000080565b63f92ee8a960e01b8152600490fd5b5f80fdfe6080806040526004361015610012575f80fd5b5f3560e01c90816301ffc9a7146127425750806306fdde0314612679578063081812fc14612631578063095ea7b31461254f5780630a88aa3514612506578063111d927d146124605780631aa632b31461241957806323b872dd14612402578063248a9ca3146123c95780632f2ff15d1461238057806331b221cd1461235857806336568abe146123115780633e5baff514611c6757806342842e0e14611c3a5780634c1301e914611b325780634e6d140514611a3b5780634f1ef2861461180957806352d1902d1461178d5780636352211e1461175d57806370a08231146117095780638113293e1461169357806387bc14251461166b578063909a708a1461144557806391d14854146113f05780639584660f1461139757806395d89b4114611297578063a217fddf1461127d578063a22cb465146111b8578063a2b21c2214610f98578063a874302214610e93578063ac60a6cd14610cb2578063ad3cb1cc14610c6d578063b76a107714610c50578063b88d4fde14610bf5578063bd32b69d14610bd8578063c415b95c14610bb0578063c532538214610b8a578063c87b56dd14610b57578063cbb0783a14610ad1578063cd6dc6871461062a578063d07c3b1f1461060d578063d11a57ec146105d3578063d539139314610599578063d547741f1461054e578063da527882146104f7578063de6d00f7146102fb578063e7705db6146102c1578063e985e9c5146102755763f72c0d8b14610237575f80fd5b34610271575f3660031901126102715760206040517f189ab7a9244df0848122154315af71fe140f3db0fe014031783b0946b8c9d2e38152f35b5f80fd5b346102715760403660031901126102715761028e612827565b61029f61029961283d565b9161288b565b9060018060a01b03165f52602052602060ff60405f2054166040519015158152f35b34610271575f3660031901126102715760206040517f0ce23c3e399818cfee81a7ab0880f714e53d7672b08df0fa62f2843416e1ea098152f35b604036600319011261027157602435600435610315613327565b805f52600760205260405f206007810160ff81541660068110156104e3576001036104d157831580156104c3575b6104765761035083612e9e565b90600361037b612710806103666001548a612d22565b04906103746002548a612d22565b0490612d71565b936103868588612d35565b600a82018054610100600160a81b0319163360081b610100600160a81b03161790559287600b830155600260ff198254161790556103c5863386613356565b0180546001600160a01b03939190841680610488575050853403610476575f808093858294165af16103f5612d42565b50156104645781610443575b50505b6040519182527f33ecc4b293d81271523c63651b7020acc9e37b1f72354c5a536d900d4191954a60203393a360015f8051602061375583398151915255005b5f8080938193600454165af1610457612d42565b5015610464578280610401565b6040516307a4ced160e51b8152600490fd5b60405163ad41cb3360e01b8152600490fd5b9161049992959493919533906133d1565b816104a7575b505050610404565b806104bb93541690600454169033906133d1565b82808061049f565b506004820154841015610343565b6040516323e69e0360e21b8152600490fd5b634e487b7160e01b5f52602160045260245ffd5b3461027157604036600319011261027157610510612827565b6001600160a01b03165f9081526009602052604090208054602435919082101561027157602091610540916128c3565b90546040519160031b1c8152f35b346102715760403660031901126102715761059760043561056d61283d565b90805f525f80516020613735833981519152602052610592600160405f200154612f4d565b6132a8565b005b34610271575f3660031901126102715760206040517f9f2df0fed2c77648de5860a4cc508cd0818c85b8b8a1ab4ceeef8d981c8956a68152f35b34610271575f3660031901126102715760206040517fe1dcbdb91df27212a29bc27177c840cf2f819ecf2187432e1fac86c2dd5dfca98152f35b34610271575f366003190112610271576020600354604051908152f35b3461027157604036600319011261027157610643612827565b7ff0c57e16840df040f15088dc2f81fe391c3923bec73e23a9662efc9c229c6a0090815460ff8160401c161567ffffffffffffffff9283831692831580610aca575b60018095149081610ac0575b159081610ab7575b50610aa55767ffffffffffffffff1981168417865582610a86575b506040516106c181612992565b601881526020947f5a656e69746820536f7665726569676e20496e766f696365000000000000000086830152604051916106fa83612992565b60058352642d16a4a72b60d91b87840152610713613642565b61071b613642565b805182811161097c577f80bb2b638cc20bc4d0a60d66940f3ab4a00c1d7b313497ca82fb0b4ab007930090806107518354612921565b93601f94858111610a1a575b508a9085831160011461099b575f92610990575b50505f19600383901b1c191690881b1790555b825191821161097c5781907f80bb2b638cc20bc4d0a60d66940f3ab4a00c1d7b313497ca82fb0b4ab0079301936107bb8554612921565b82811161090e575b5088918311600114610891575f92610886575b50505f19600383901b1c191690851b1790555b6107f1613642565b6107f9613642565b6108023361305b565b5061080c336130e5565b5061081633613192565b5060018060a01b03166001600160601b0360a01b6004541617600455602435825560326002556101f4600355815f5561084b57005b7fc7f505b2f371ae2175ee4913f4499e1f2633a7b5936321eed1cdaeb6115181d29268ff0000000000000000198154169055604051908152a1005b0151905088806107d6565b90879350601f19831691855f527ff4bad0a69248f59680a4f2b3000328cec71a413447c96781cfe5996daa8c456e925f5b8b8282106108f857505084116108e0575b505050811b0190556107e9565b01515f1960f88460031b161c191690558880806108d3565b8385015186558b979095019493840193016108c2565b90919250845f527ff4bad0a69248f59680a4f2b3000328cec71a413447c96781cfe5996daa8c456e8380860160051c8201928b8710610973575b9186958b929594930160051c01915b8281106109655750506107c3565b5f81558695508a9101610957565b92508192610948565b634e487b7160e01b5f52604160045260245ffd5b015190508b80610771565b5f8581528b94507f37c58c799b6609234b945e882912ee9ad34948a1dfaa20a97485e1a7752bbf81929190601f198516908e5b828210610a0357505084116109eb575b505050811b019055610784565b01515f1960f88460031b161c191690558b80806109de565b8385015186558e979095019493840193018e6109ce565b909150835f527f37c58c799b6609234b945e882912ee9ad34948a1dfaa20a97485e1a7752bbf818580850160051c8201928d8610610a7d575b918c91869594930160051c01915b828110610a6f57505061075d565b5f81558594508c9101610a61565b92508192610a53565b68ffffffffffffffffff191668010000000000000001178555856106b4565b60405163f92ee8a960e01b8152600490fd5b90501587610699565b303b159150610691565b5082610685565b3461027157602080600319360112610271576001600160a01b03610af3612827565b165f52600860205260405f20906040519081602084549182815201935f5260205f20915f905b828210610b4057610b3c85610b30818903826129ae565b60405191829182612aef565b0390f35b835486529485019460019384019390910190610b19565b3461027157602036600319011261027157610b3c610b76600435613574565b604051918291602083526020830190612802565b34610271576020366003190112610271576020610ba8600435612d7e565b604051908152f35b34610271575f366003190112610271576004546040516001600160a01b039091168152602090f35b34610271575f366003190112610271576020600154604051908152f35b3461027157608036600319011261027157610c0e612827565b610c1661283d565b906044356064359267ffffffffffffffff841161027157610c3e610597943690600401612ad1565b92610c4a838383612b2a565b3361345a565b34610271575f366003190112610271576020600254604051908152f35b34610271575f36600319011261027157610b3c604051610c8c81612992565b60058152640352e302e360dc1b6020820152604051918291602083526020830190612802565b602036600319011261027157600435610cc9613327565b5f81815260076020526040902060028101546001600160a01b03919082163303610e8157600781019182549160ff831660068110156104e35760018114159081610e75575b506104d1576004810154936005820154601e8101809111610e61574211610e40575b600a8201548392600392909160081c84168015610e31578390965b600c840189905560ff191617905501541680610df95750823410610476575f80848194938294165af1610d7c612d42565b501561046457803411610dc9575b60207fa7b62bf94824de7a3a9a6c3215cf1e64f5bc7605c6c7a44302969a4d7b5c6d12915b604051908152a260015f8051602061375583398151915255005b5f808080610dd78534612d35565b335af1610de2612d42565b50610d8a576040516307a4ced160e51b8152600490fd5b837fa7b62bf94824de7a3a9a6c3215cf1e64f5bc7605c6c7a44302969a4d7b5c6d12949250602093610e2c9233906133d1565b610daf565b50828460018401541696610d4b565b938291610e57600392612710610374855483612d22565b9591509150610d30565b634e487b7160e01b5f52601160045260245ffd5b60029150141586610d0e565b60405163dd9fb7b760e01b8152600490fd5b34610271576020366003190112610271576004355f8181526007602052604090206001810154336001600160a01b0391821614159081610f84575b5080610f4c575b610e8157600581015462278d008101809111610e6157421115610f3a57600701805460ff811660068110156104e3576003146104d15760ff191660041790557fdb68ee03895a10c2f90c91bb1e7ab88ccf0133fed820f6686ee6513e313ee0765f80a2005b6040516360977f9760e01b8152600490fd5b50335f9081527fb7db2dd08fcb62d0c9e08c51941cae53c267786a0b75803fb7960902fc8ef97d602052604090205460ff1615610ed5565b9050600a82015460081c1633141583610ece565b3461027157602080600319360112610271576004357fe1dcbdb91df27212a29bc27177c840cf2f819ecf2187432e1fac86c2dd5dfca9805f525f80516020613735833981519152835260405f20335f52835260ff60405f2054161561119a5750611000613327565b805f526007825260405f2091600783019260ff84541660068110156104e3576001036104d15760405163629929c160e11b8152600481018490528281602481305afa90811561118f575f91611160575b5061107060039161271061106960048601549283612d22565b0490612d35565b94859261107c86612e9e565b91611088873385613356565b600a82018054610100600160a81b0319163360081b610100600160a81b0316179055600b8201859055805460ff1916600217905591909101546001600160a01b03919082168061112a57505f809381938293165af16110e5612d42565b5015610464577f33ecc4b293d81271523c63651b7020acc9e37b1f72354c5a536d900d4191954a905b6040519384523393a360015f8051602061375583398151915255005b61115b9250907f33ecc4b293d81271523c63651b7020acc9e37b1f72354c5a536d900d4191954a94939133906133d1565b61110e565b90508281813d8311611188575b61117781836129ae565b810103126102715751611070611050565b503d61116d565b6040513d5f823e3d90fd5b6044906040519063e2517d3f60e01b82523360048301526024820152fd5b34610271576040366003190112610271576111d1612827565b6024359081151590818303610271573315611265576001600160a01b031691821561124c5761121e906112033361288b565b845f5260205260405f209060ff801983541691151516179055565b6040519081527f17307eab39ab6107e8899845ad3d59bd9653f200f220920489ca2b5937696c3160203392a3005b604051630b61174360e31b815260048101849052602490fd5b60405163a9fbf51f60e01b81525f6004820152602490fd5b34610271575f3660031901126102715760206040515f8152f35b34610271575f366003190112610271576040517f80bb2b638cc20bc4d0a60d66940f3ab4a00c1d7b313497ca82fb0b4ab00793018054825f6112d883612921565b92838352602094600191866001821691825f1461137557505060011461131b575b5050611307925003836129ae565b610b3c604051928284938452830190612802565b8592505f527ff4bad0a69248f59680a4f2b3000328cec71a413447c96781cfe5996daa8c456e905f915b85831061135d575050611307935082010185806112f9565b80548389018501528794508693909201918101611345565b925093505061130794915060ff191682840152151560051b82010185806112f9565b34610271576020366003190112610271576113b0612827565b6113b8612ef7565b6001600160a01b031680156113de576001600160601b0360a01b60065416176006555f80f35b60405163d92e233d60e01b8152600490fd5b346102715760403660031901126102715761140961283d565b6004355f525f8051602061373583398151915260205260405f209060018060a01b03165f52602052602060ff60405f2054166040519015158152f35b34610271576020366003190112610271575f6101a060405161146681612959565b8281528260208201528260408201528260608201528260808201528260a08201528260c08201528260e082015260606101008201528261012082015282610140820152826101608201528261018082015201526004355f52600760205260405f20604051906114d482612959565b8054825260018101546001600160a01b039081166020840152600282015481166040840152600382015416606083015260048101546080830152600581015460a083015260068082015460c0840152600782015460ff1691908210156104e357600c9160e0840152611548600882016129d0565b6101008401526009810154610120840152600a81015460ff8116151561014085015260018060a01b039060081c16610160840152600b81015461018084015201546101a08201526040518091602082528051602083015260018060a01b03602082015116604083015260018060a01b03604082015116606083015260018060a01b036060820151166080830152608081015160a083015260a081015160c083015260c081015160e083015261160660e0820151610100840190612a72565b6101008101516101a06116286101c092836101208701526101e0860190612802565b92610120810151610140860152610140810151151561016086015260018060a01b0361016082015116610180860152610180810151828601520151908301520390f35b34610271575f366003190112610271576006546040516001600160a01b039091168152602090f35b3461027157602080600319360112610271576001600160a01b036116b5612827565b165f52600960205260405f20906040519081602084549182815201935f5260205f20915f905b8282106116f257610b3c85610b30818903826129ae565b8354865294850194600193840193909101906116db565b3461027157602036600319011261027157611722612827565b6001600160a01b038116156117455761173c602091612853565b54604051908152f35b6040516322718ad960e21b81525f6004820152602490fd5b3461027157602036600319011261027157602061177b600435612e9e565b6040516001600160a01b039091168152f35b34610271575f366003190112610271577f00000000000000000000000000000000000000000000000000000000000000006001600160a01b031630036117f75760206040517f360894a13ba1a3210667c828492db98dca3e2076cc3735a920a3ca505d382bbc8152f35b60405163703e46dd60e11b8152600490fd5b60403660031901126102715761181d612827565b60243567ffffffffffffffff81116102715761183d903690600401612ad1565b6001600160a01b03917f00000000000000000000000000000000000000000000000000000000000000008316308114908115611a0d575b506117f757335f9081527fab71e3f32666744d246edff3f96e4bdafee2e9867098cdd118a979a7464786a860209081526040909120549093907f189ab7a9244df0848122154315af71fe140f3db0fe014031783b0946b8c9d2e39060ff161561119a57506040516352d1902d60e01b8152908216938082600481885afa9182915f936119dd575b505061191a57604051634c9c8ce360e01b815260048101859052602490fd5b7f360894a13ba1a3210667c828492db98dca3e2076cc3735a920a3ca505d382bbc908181036119c55750813b156119ac5780546001600160a01b03191684179055604051927fbc7cd75a20ee27fd9adebab32041f755214dbc6bffa90cc0225b39da2e5c2d3b5f80a2815115611994576105979250613683565b50503461199d57005b63b398979f60e01b8152600490fd5b604051634c9c8ce360e01b815260048101859052602490fd5b60249060405190632a87526960e21b82526004820152fd5b9080929350813d8311611a06575b6119f581836129ae565b8101031261027157519085806118fb565b503d6119eb565b9050837f360894a13ba1a3210667c828492db98dca3e2076cc3735a920a3ca505d382bbc5416141584611874565b34610271576020366003190112610271576004355f52600760205260405f208054600160a01b60019003908160018401541691806002850154169381600382015416916004820154600583015494600684015490600785015460ff1660088601611aa4906129d0565b92600987015498600a88015495600b89015498600c0154996040519d8e809e6101c098825260208201526040015260608d015260808c015260a08b015260c08a015260e08901611af391612a72565b806101008901528701611b0591612802565b9461012087015260ff8116151561014087015260081c166101608501526101808401526101a08301520390f35b346102715760208060031936011261027157600435907f0ce23c3e399818cfee81a7ab0880f714e53d7672b08df0fa62f2843416e1ea095f525f8051602061373583398151915280825260405f20335f52825260ff60405f205416159081611c1b575b5080611c06575b610e8157815f526007815260405f20906007820180549260ff841660068110156104e3576104d1577f5f335aeb90296421c78d3bdc1af9043846ad4773cee0a0d0d909915726b30a5893600a600192019060ff1991838382541617905516179055604051338152a2005b506005546001600160a01b0316331415611b9c565b90505f8052815260405f20335f52815260ff60405f2054161583611b95565b3461027157610597611c4b366128ec565b9060405192611c5984612976565b5f8452610c4a838383612b2a565b346102715760c036600319011261027157611c80612827565b611c8861283d565b60843567ffffffffffffffff811161027157366023820112156102715767ffffffffffffffff8160040135116102715736602482600401358301011161027157611cd0613327565b6001600160a01b038316156113de57604435156122ff57426064351115610f3a575f54915f198314610e6157600183015f5560405190611d0f82612959565b8382523360208301526001600160a01b038581166040840152166060820152604435608082015260643560a08201524260c08201525f60e0820152611d5c36600484013560248501612a9b565b61010082015260a4356101208201525f6101408201525f6101608201525f6101808201525f6101a0820152825f52600760205260405f2090805182556001820160018060a01b03602083015116906001600160601b0360a01b91828254161790556002830160018060a01b0360408401511682825416179055600383019060018060a01b03606084015116908254161790556080810151600483015560a0810151600583015560c081015160068301556007820160e082015160068110156104e35760ff8019835416911617905561010081015180519067ffffffffffffffff821161097c57611e4f6008850154612921565b601f81116122bb575b50602090601f8311600114612249579180600c94926101a0945f9261223e575b50508160011b915f199060031b1c19161760088501555b6101208101516009850155611ee6600a8501611ebe6101408401511515829060ff801983541691151516179055565b6101608301518154610100600160a81b03191660089190911b610100600160a81b0316179055565b610180810151600b8501550151910155335f526008602052611f0b8260405f20612ce9565b60018060a01b0383165f526009602052611f288260405f20612ce9565b604051611f3481612976565b5f81523315612226576001600160a01b03611f4f8433612f7b565b1661220e57333b612121575b50611f70903690602481600401359101612a9b565b91815f527f0542a41881ee128a365a727b282c86fa859579490b9bb45aab8503648c8e790060205260405f20835167ffffffffffffffff811161097c57611fb78254612921565b601f81116120dc575b50806020958690601f831160011461207a575f9261206f575b50508160011b915f199060031b1c19161790555b7ff8e1a15aba9398e019f0b49df1a4fde98ee17ae345cb5f6b5e2c27f5033e8ce783604051848152a16040519060443582526064358483015260018060a01b031690827fd24190ace0e5172713f8cd9786c438db27cead82d75be9b7633be169eb0d0a9e60403393a460015f8051602061375583398151915255604051908152f35b015190508680611fd9565b5f8581528881209350601f198516905b8181106120c557509084600195949392106120ad575b505050811b019055611fed565b01515f1960f88460031b161c191690558680806120a0565b92938960018192878601518155019501930161208a565b825f5260205f20601f830160051c81019160208410612117575b601f0160051c01905b81811061210c5750611fc0565b5f81556001016120ff565b90915081906120f6565b6040516020818061215a630a85bd0160e11b958683523360048401525f6024840152886044840152608060648401526084830190612802565b03815f335af15f91816121c9575b5061219a57612175612d42565b8051908161219557604051633250574960e11b8152336004820152602490fd5b602001fd5b6001600160e01b031916036121b157611f70611f5b565b604051633250574960e11b8152336004820152602490fd5b9091506020813d602011612206575b816121e5602093836129ae565b8101031261027157516001600160e01b031981168103610271579086612168565b3d91506121d8565b6040516339e3563760e11b81525f6004820152602490fd5b604051633250574960e11b81525f6004820152602490fd5b015190508980611e78565b90600885015f5260205f20915f5b601f19851681106122a3575092600c94926001926101a09583601f1981161061228b575b505050811b016008850155611e8f565b01515f1960f88460031b161c1916905589808061227b565b91926020600181928685015181550194019201612257565b600885015f5260205f20601f840160051c8101602085106122f8575b601f830160051c820181106122ed575050611e58565b5f81556001016122d7565b50806122d7565b60405163046bb79760e41b8152600490fd5b346102715760403660031901126102715761232a61283d565b336001600160a01b0382160361234657610597906004356132a8565b60405163334bd91960e11b8152600490fd5b34610271575f366003190112610271576005546040516001600160a01b039091168152602090f35b346102715760403660031901126102715761059760043561239f61283d565b90805f525f805160206137358339815191526020526123c4600160405f200154612f4d565b613238565b34610271576020366003190112610271576004355f525f805160206137358339815191526020526020600160405f200154604051908152f35b3461027157610597612413366128ec565b91612b2a565b3461027157602036600319011261027157612432612827565b61243a612ef7565b6001600160a01b031680156113de576001600160601b0360a01b60055416176005555f80f35b34610271576020366003190112610271576004355f8181526007602052604090206001810154336001600160a01b03918216141590816124f4575b816124e0575b50610e8157600701600560ff198254161790557f9cf7dbd2b741b27ed6457d89a4e7c0c39d9a38239f115797b0f30fc95c5f876e6020604051338152a2005b9050600a82015460081c16331415836124a1565b8091506002830154163314159061249b565b346102715760403660031901126102715761251f612827565b6001600160a01b03165f9081526008602052604090208054602435919082101561027157602091610540916128c3565b3461027157604036600319011261027157612568612827565b60243561257481612e9e565b3315158061261e575b80612600575b6125e8576001600160a01b039283169282918491167f8c5be1e5ebec7d5bd14f71427d1e84f3dd0314c0f7b2291e5b200ac8c7c3b9255f80a45f9081525f805160206137758339815191526020526040902080546001600160a01b0319169091179055005b60405163a9fbf51f60e01b8152336004820152602490fd5b5061260a8161288b565b335f5260205260ff60405f20541615612583565b506001600160a01b03811633141561257d565b346102715760203660031901126102715760043561264e81612e9e565b505f525f80516020613775833981519152602052602060018060a01b0360405f205416604051908152f35b34610271575f366003190112610271576040517f80bb2b638cc20bc4d0a60d66940f3ab4a00c1d7b313497ca82fb0b4ab00793008054825f6126ba83612921565b92838352602094600191866001821691825f146113755750506001146126e8575050611307925003836129ae565b8592505f527f37c58c799b6609234b945e882912ee9ad34948a1dfaa20a97485e1a7752bbf81905f915b85831061272a575050611307935082010185806112f9565b80548389018501528794508693909201918101612712565b34610271576020366003190112610271576004359063ffffffff60e01b821680920361027157602091637965db0b60e01b8114908115612784575b5015158152f35b632483248360e11b81149150811561279e575b508361277d565b6380ac58cd60e01b8114915081156127d0575b81156127bf575b5083612797565b6301ffc9a760e01b149050836127b8565b635b5e139f60e01b811491506127b1565b5f5b8381106127f25750505f910152565b81810151838201526020016127e3565b9060209161281b815180928185528580860191016127e1565b601f01601f1916010190565b600435906001600160a01b038216820361027157565b602435906001600160a01b038216820361027157565b6001600160a01b03165f9081527f80bb2b638cc20bc4d0a60d66940f3ab4a00c1d7b313497ca82fb0b4ab00793036020526040902090565b6001600160a01b03165f9081527f80bb2b638cc20bc4d0a60d66940f3ab4a00c1d7b313497ca82fb0b4ab00793056020526040902090565b80548210156128d8575f5260205f2001905f90565b634e487b7160e01b5f52603260045260245ffd5b6060906003190112610271576001600160a01b0390600435828116810361027157916024359081168103610271579060443590565b90600182811c9216801561294f575b602083101461293b57565b634e487b7160e01b5f52602260045260245ffd5b91607f1691612930565b6101c0810190811067ffffffffffffffff82111761097c57604052565b6020810190811067ffffffffffffffff82111761097c57604052565b6040810190811067ffffffffffffffff82111761097c57604052565b90601f8019910116810190811067ffffffffffffffff82111761097c57604052565b9060405191825f82546129e281612921565b908184526020946001916001811690815f14612a505750600114612a12575b505050612a10925003836129ae565b565b5f90815285812095935091905b818310612a38575050612a1093508201015f8080612a01565b85548884018501529485019487945091830191612a1f565b92505050612a1094925060ff191682840152151560051b8201015f8080612a01565b9060068210156104e35752565b67ffffffffffffffff811161097c57601f01601f191660200190565b929192612aa782612a7f565b91612ab560405193846129ae565b829481845281830111610271578281602093845f960137010152565b9080601f8301121561027157816020612aec93359101612a9b565b90565b60209060206040818301928281528551809452019301915f5b828110612b16575050505090565b835185529381019392810192600101612b08565b906001600160a01b0380821690811561222657845f52847f80bb2b638cc20bc4d0a60d66940f3ab4a00c1d7b313497ca82fb0b4ab0079302928360205260409383855f2054169533151580612c48575b50612b899087612c0c57612853565b60018154019055825f52602052835f20816001600160601b0360a01b825416179055847fddf252ad1be2c89b69c2b068fc378daa952ba7f163c4a11628f55a4df523b3ef5f80a483168203612bde5750505050565b516364283d7b60e01b81526001600160a01b0392831660048201526024810193909352166044820152606490fd5b5f8581525f805160206137758339815191526020526040902080546001600160a01b0319169055612c3c88612853565b80545f19019055612853565b929350909180612c9b575b15612c6257908792915f612b7a565b848887612c7f576024915190637e27328960e01b82526004820152fd5b604491519063177e802f60e01b82523360048301526024820152fd5b503386148015612ccd575b80612c535750875f525f805160206137758339815191526020523384865f20541614612c53565b50612cd78661288b565b335f5260205260ff855f205416612ca6565b80546801000000000000000081101561097c57612d0b916001820181556128c3565b819291549060031b91821b915f19901b1916179055565b81810292918115918404141715610e6157565b91908203918211610e6157565b3d15612d6c573d90612d5382612a7f565b91612d6160405193846129ae565b82523d5f602084013e565b606090565b91908201809211610e6157565b5f52600760205260405f209060ff60078301541660068110156104e357600103612e9957600582015442811115612e9257612dbe62015180914290612d35565b045b610bb89080820291820403610e615760065461016d909104926001600160a01b039182169182612dff575b505050611388808311612dfb5750565b9150565b600160209201541660246040518094819363d97d44b160e01b835260048301525afa5f9181612e53575b50612e36575b8080612deb565b91614e2061037461ffff612e4c94951683612d22565b905f612e2f565b9091506020813d602011612e8a575b81612e6f602093836129ae565b81010312610271575161ffff8116810361027157905f612e29565b3d9150612e62565b505f612dc0565b5f9150565b5f8181527f80bb2b638cc20bc4d0a60d66940f3ab4a00c1d7b313497ca82fb0b4ab007930260205260409020546001600160a01b0316908115612edf575090565b60249060405190637e27328960e01b82526004820152fd5b335f9081527fb7db2dd08fcb62d0c9e08c51941cae53c267786a0b75803fb7960902fc8ef97d602052604090205460ff1615612f2f57565b60405163e2517d3f60e01b81523360048201525f6024820152604490fd5b805f525f8051602061373583398151915260205260405f20335f5260205260ff60405f2054161561119a5750565b90805f527f80bb2b638cc20bc4d0a60d66940f3ab4a00c1d7b313497ca82fb0b4ab0079302918260205260018060a01b03928360405f205416938461301f575b82169182613009575b50825f5260205260405f20816001600160601b0360a01b825416179055827fddf252ad1be2c89b69c2b068fc378daa952ba7f163c4a11628f55a4df523b3ef5f80a490565b61301290612853565b600181540190555f612fc4565b5f8481525f805160206137758339815191526020526040902080546001600160a01b031916905561304f85612853565b80545f19019055612fbb565b6001600160a01b03165f8181527fb7db2dd08fcb62d0c9e08c51941cae53c267786a0b75803fb7960902fc8ef97d60205260409020545f805160206137358339815191529060ff166130df575f805260205260405f20815f5260205260405f20600160ff1982541617905533905f5f805160206137158339815191528180a4600190565b50505f90565b6001600160a01b03165f8181527f549fe2656c81d2947b3b913f0a53b9ea86c71e049f3a1b8aa23c09a8a05cb8d460205260409020547f9f2df0fed2c77648de5860a4cc508cd0818c85b8b8a1ab4ceeef8d981c8956a691905f805160206137358339815191529060ff1661318b57825f5260205260405f20815f5260205260405f20600160ff1982541617905533915f805160206137158339815191525f80a4600190565b5050505f90565b6001600160a01b03165f8181527fab71e3f32666744d246edff3f96e4bdafee2e9867098cdd118a979a7464786a860205260409020547f189ab7a9244df0848122154315af71fe140f3db0fe014031783b0946b8c9d2e391905f805160206137358339815191529060ff1661318b57825f5260205260405f20815f5260205260405f20600160ff1982541617905533915f805160206137158339815191525f80a4600190565b90815f525f805160206137358339815191528060205260405f209160018060a01b031691825f5260205260ff60405f205416155f1461318b57825f5260205260405f20815f5260205260405f20600160ff1982541617905533915f805160206137158339815191525f80a4600190565b90815f525f805160206137358339815191528060205260405f209160018060a01b031691825f5260205260ff60405f2054165f1461318b57825f5260205260405f20815f5260205260405f2060ff19815416905533917ff6391f5c32d9c69d2a47ea670b442974b53935d1edc7fd64eb21e047a839171b5f80a4600190565b5f8051602061375583398151915260028154146133445760029055565b604051633ee5aeb560e01b8152600490fd5b906001600160a01b039081811615612226578361337291612f7b565b90808216908161339557604051637e27328960e01b815260048101869052602490fd5b8316036133a157505050565b6040516364283d7b60e01b81526001600160a01b0392831660048201526024810193909352166044820152606490fd5b6040516323b872dd60e01b5f9081526001600160a01b03938416600452938316602452604494909452909160209060648180855af160015f511481161561343b575b836040525f6060521561342557505050565b635274afe760e01b835216600482015260249150fd5b600181151661345157813b15153d151616613413565b833d5f823e3d90fd5b9291803b61346a575b5050505050565b604051630a85bd0160e11b8082526001600160a01b039586166004830152928516602482015260448101939093526080606484015290921692602090829081906134b8906084830190612802565b03815f875af15f918161352f575b506134fd57826134d4612d42565b80519190826134f657604051633250574960e11b815260048101839052602490fd5b6020915001fd5b6001600160e01b0319160361351757505f80808080613463565b60249060405190633250574960e11b82526004820152fd5b9091506020813d60201161356c575b8161354b602093836129ae565b8101031261027157516001600160e01b03198116810361027157905f6134c6565b3d915061353e565b61357d81612e9e565b506040519061358b82612976565b5f8252805f5260207f0542a41881ee128a365a727b282c86fa859579490b9bb45aab8503648c8e790081526135c260405f206129d0565b92805193841561363a578051613600575050506135df9150612e9e565b505f6040516135ed81612976565b526040516135fa81612976565b5f815290565b612aec93508461361a6040519687948680870191016127e1565b820161362e825180938680850191016127e1565b010380845201826129ae565b935050505090565b60ff7ff0c57e16840df040f15088dc2f81fe391c3923bec73e23a9662efc9c229c6a005460401c161561367157565b604051631afcd79f60e31b8152600490fd5b905f8091602081519101845af48080613701575b156136b75750506040513d81523d5f602083013e60203d82010160405290565b156136de57604051639996b31560e01b81526001600160a01b039091166004820152602490fd5b3d156136ef576040513d5f823e3d90fd5b60405163d6bda27560e01b8152600490fd5b503d1515806136975750813b151561369756fe2f8788117e7eff1d82e926ec794901d17c78024a50270940304540a733656f0d02dd7bc7dec4dceedda775e58dd541e08a116c6c53815c0bd028192f7b6268009b779b17422d0df92223018b32b4d1fa46e071723d6817e2486d003becc55f0080bb2b638cc20bc4d0a60d66940f3ab4a00c1d7b313497ca82fb0b4ab0079304a26469706673582212209127ccaaaf7404b6938b134028f88e60c47ff961d2a72776ecd62a5a591e381564736f6c63430008180033",
  "linkReferences": {},
  "deployedLinkReferences": {}
}