{
  "_format": "hh-sol-artifact-1",
  "contractName": "SovereignRegistry",
  "sourceName": "contracts/SovereignRegistry.sol",
  "abi": [
    {
      "inputs": [],
      "name": "AccountCreationFailed",
      "type": "error"
    },
    {
      "inputs": [],
      "name": "Create2EmptyBytecode",
      "type": "error"
    },
    {
      "inputs": [],
      "name": "FailedDeployment",
      "type": "error"
    },
    {
      "inputs": [
        {
          "internalType": "uint256",
          "name": "balance",
          "type": "uint256"
        },
        {
          "internalType": "uint256",
          "name": "needed",
          "type": "uint256"
        }
      ],
      "name": "InsufficientBalance",
      "type": "error"
    },
    {
      "anonymous": false,
      "inputs": [
        {
          "indexed": false,
          "internalType": "address",
          "name": "account",
          "type": "address"
        },
        {
          "indexed": true,
          "internalType": "address",
          "name": "implementation",
          "type": "address"
        },
        {
          "indexed": false,
          "internalType": "bytes32",
          "name": "salt",
          "type": "bytes32"
        },
        {
          "indexed": false,
          "internalType": "uint256",
          "name": "chainId",
          "type": "uint256"
        },
        {
          "indexed": true,
          "internalType": "address",
          "name": "tokenContract",
          "type": "address"
        },
        {
          "indexed": true,
          "internalType": "uint256",
          "name": "tokenId",
          "type": "uint256"
        }
      ],
      "name": "ERC6551AccountCreated",
      "type": "event"
    },
    {
      "inputs": [
        {
          "internalType": "address",
          "name": "implementation",
          "type": "address"
        },
        {
          "internalType": "bytes32",
          "name": "salt",
          "type": "bytes32"
        },
        {
          "internalType": "uint256",
          "name": "chainId",
          "type": "uint256"
        },
        {
          "internalType": "address",
          "name": "tokenContract",
          "type": "address"
        },
        {
          "internalType": "uint256",
          "name": "tokenId",
          "type": "uint256"
        }
      ],
      "name": "account",
      "outputs": [
        {
          "internalType": "address",
          "name": "",
          "type": "address"
        }
      ],
      "stateMutability": "view",
      "type": "function"
    },
    {
      "inputs": [
        {
          "internalType": "address",
          "name": "implementation",
          "type": "address"
        },
        {
          "internalType": "bytes32",
          "name": "salt",
          "type": "bytes32"
        },
        {
          "internalType": "uint256",
          "name": "chainId",
          "type": "uint256"
        },
        {
          "internalType": "address",
          "name": "tokenContract",
          "type": "address"
        },
        {
          "internalType": "uint256",
          "name": "tokenId",
          "type": "uint256"
        }
      ],
      "name": "createAccount",
      "outputs": [
        {
          "internalType": "address",
          "name": "",
          "type": "address"
        }
      ],
      "stateMutability": "nonpayable",
      "type": "function"
    }
  ],
  "bytecode": "0x6080806040523461001657610306908161001b8239f35b5f80fdfe60806040526004361015610011575f80fd5b5f3560e01c8063246a00211461006157638a54c52f1461002f575f80fd5b3461005d57602061004b6100423661008f565b939290926100cc565b6040516001600160a01b039091168152f35b5f80fd5b3461005d57602061004b6100836100773661008f565b928095949291926101aa565b838151910120906102a6565b60a090600319011261005d576001600160a01b0390600435828116810361005d57916024359160443591606435908116810361005d579060843590565b9193926100dc84828785876101aa565b80516100ee60208301918220856102a6565b803b61019f575081511561018d57839151905ff5946001600160a01b038087169384158061016b57610159577f79f19b3655ee38b1ce526556b7731a20c8f218fbda4a3990b6cc4172fdf887229360609383926040519788526020880152604087015216941692a490565b6040516320188a5960e01b8152600490fd5b3d6101825760405163b06ebf3d60e01b8152600490fd5b6040513d5f823e3d90fd5b604051631328927760e21b8152600490fd5b965050505050505090565b92939093604051926020956020850152604084015260018060a01b0316606083015260808201526080815260a081019267ffffffffffffffff928285108486111761027e576040859052733d60ad80600a3d3981f3363d3d373d3d3d363d7360601b60c084015260601b6bffffffffffffffffffffffff191660d48301526e5af43d82803e903d91602b57fd5bf360881b60e88301528151905f5b828110610292575050908060a09281015f60f7820152036037810185526076601f199101160101908282109082111761027e5760405290565b634e487b7160e01b5f52604160045260245ffd5b808291850160f78382015191015201610245565b90600b9160405191604083015260208201523081520160ff8153605590206001600160a01b03169056fea26469706673582212209f3d9ee7bf159ff3040a147e4a74f5ad4c759602b7456bd6dac8e16dc101744f64736f6c63430008180033",
  "linkReferences": {},
  "deployedLinkReferences": {}
}