{
  "_format": "hh-sol-artifact-1",
  "contractName": "YieldManager",
  "sourceName": "contracts/YieldManager.sol",
  "abi": [
    {
      "inputs": [
        {
          "internalType": "address",
          "name": "_owner",
          "type": "address"
        }
      ],
      "stateMutability": "nonpayable",
      "type": "constructor"
    },
    {
      "inputs": [
        {
          "internalType": "address",
          "name": "owner",
          "type": "address"
        }
      ],
      "name": "OwnableInvalidOwner",
      "type": "error"
    },
    {
      "inputs": [
        {
          "internalType": "address",
          "name": "account",
          "type": "address"
        }
      ],
      "name": "OwnableUnauthorizedAccount",
      "type": "error"
    },
    {
      "inputs": [
        {
          "internalType": "address",
          "name": "token",
          "type": "address"
        }
      ],
      "name": "SafeERC20FailedOperation",
      "type": "error"
    },
    {
      "inputs": [],
      "name": "StrategyAlreadyActive",
      "type": "error"
    },
    {
      "inputs": [],
      "name": "StrategyInactive",
      "type": "error"
    },
    {
      "inputs": [],
      "name": "SurplusLockedByTimelock",
      "type": "error"
    },
    {
      "inputs": [],
      "name": "ZeroAddress",
      "type": "error"
    },
    {
      "inputs": [],
      "name": "ZeroInterest",
      "type": "error"
    },
    {
      "anonymous": false,
      "inputs": [
        {
          "indexed": true,
          "internalType": "address",
          "name": "previousOwner",
          "type": "address"
        },
        {
          "indexed": true,
          "internalType": "address",
          "name": "newOwner",
          "type": "address"
        }
      ],
      "name": "OwnershipTransferred",
      "type": "event"
    },
    {
      "anonymous": false,
      "inputs": [
        {
          "indexed": true,
          "internalType": "enum YieldManager.Strategy",
          "name": "strategy",
          "type": "uint8"
        },
        {
          "indexed": false,
          "internalType": "address",
          "name": "pool",
          "type": "address"
        },
        {
          "indexed": false,
          "internalType": "bool",
          "name": "active",
          "type": "bool"
        }
      ],
      "name": "StrategyUpdated",
      "type": "event"
    },
    {
      "anonymous": false,
      "inputs": [
        {
          "indexed": true,
          "internalType": "address",
          "name": "token",
          "type": "address"
        },
        {
          "indexed": false,
          "internalType": "uint256",
          "name": "amount",
          "type": "uint256"
        },
        {
          "indexed": true,
          "internalType": "address",
          "name": "recipient",
          "type": "address"
        }
      ],
      "name": "SurplusWithdrawn",
      "type": "event"
    },
    {
      "anonymous": false,
      "inputs": [
        {
          "indexed": true,
          "internalType": "enum YieldManager.Strategy",
          "name": "strategy",
          "type": "uint8"
        },
        {
          "indexed": true,
          "internalType": "address",
          "name": "token",
          "type": "address"
        },
        {
          "indexed": false,
          "internalType": "uint256",
          "name": "amount",
          "type": "uint256"
        }
      ],
      "name": "YieldDeposited",
      "type": "event"
    },
    {
      "anonymous": false,
      "inputs": [
        {
          "indexed": true,
          "internalType": "address",
          "name": "recipient",
          "type": "address"
        },
        {
          "indexed": false,
          "internalType": "uint256",
          "name": "amount",
          "type": "uint256"
        }
      ],
      "name": "YieldDistributed",
      "type": "event"
    },
    {
      "anonymous": false,
      "inputs": [
        {
          "indexed": true,
          "internalType": "address",
          "name": "token",
          "type": "address"
        },
        {
          "indexed": false,
          "internalType": "uint256",
          "name": "safetyDiverted",
          "type": "uint256"
        },
        {
          "indexed": false,
          "internalType": "uint256",
          "name": "protocolSurplus",
          "type": "uint256"
        }
      ],
      "name": "YieldRebalanced",
      "type": "event"
    },
    {
      "anonymous": false,
      "inputs": [
        {
          "indexed": true,
          "internalType": "enum YieldManager.Strategy",
          "name": "strategy",
          "type": "uint8"
        },
        {
          "indexed": true,
          "internalType": "address",
          "name": "token",
          "type": "address"
        },
        {
          "indexed": false,
          "internalType": "uint256",
          "name": "amount",
          "type": "uint256"
        }
      ],
      "name": "YieldWithdrawn",
      "type": "event"
    },
    {
      "inputs": [],
      "name": "AAVE_V3_POLYGON_MAINNET",
      "outputs": [
        {
          "internalType": "address",
          "name": "",
          "type": "address"
        }
      ],
      "stateMutability": "view",
      "type": "function"
    },
    {
      "inputs": [],
      "name": "PROTOCOL_GRAVITY_BPS",
      "outputs": [
        {
          "internalType": "uint256",
          "name": "",
          "type": "uint256"
        }
      ],
      "stateMutability": "view",
      "type": "function"
    },
    {
      "inputs": [],
      "name": "SAFETY_GRAVITY_BPS",
      "outputs": [
        {
          "internalType": "uint256",
          "name": "",
          "type": "uint256"
        }
      ],
      "stateMutability": "view",
      "type": "function"
    },
    {
      "inputs": [
        {
          "internalType": "address",
          "name": "",
          "type": "address"
        }
      ],
      "name": "accruedSurplus",
      "outputs": [
        {
          "internalType": "uint256",
          "name": "",
          "type": "uint256"
        }
      ],
      "stateMutability": "view",
      "type": "function"
    },
    {
      "inputs": [
        {
          "internalType": "enum YieldManager.Strategy",
          "name": "strategy",
          "type": "uint8"
        },
        {
          "internalType": "address",
          "name": "token",
          "type": "address"
        },
        {
          "internalType": "uint256",
          "name": "amount",
          "type": "uint256"
        }
      ],
      "name": "deposit",
      "outputs": [],
      "stateMutability": "nonpayable",
      "type": "function"
    },
    {
      "inputs": [],
      "name": "governanceTimelock",
      "outputs": [
        {
          "internalType": "address",
          "name": "",
          "type": "address"
        }
      ],
      "stateMutability": "view",
      "type": "function"
    },
    {
      "inputs": [
        {
          "internalType": "address",
          "name": "",
          "type": "address"
        }
      ],
      "name": "morphoMarkets",
      "outputs": [
        {
          "internalType": "address",
          "name": "loanToken",
          "type": "address"
        },
        {
          "internalType": "address",
          "name": "collateralToken",
          "type": "address"
        },
        {
          "internalType": "address",
          "name": "oracle",
          "type": "address"
        },
        {
          "internalType": "address",
          "name": "irm",
          "type": "address"
        },
        {
          "internalType": "uint256",
          "name": "lltv",
          "type": "uint256"
        }
      ],
      "stateMutability": "view",
      "type": "function"
    },
    {
      "inputs": [],
      "name": "owner",
      "outputs": [
        {
          "internalType": "address",
          "name": "",
          "type": "address"
        }
      ],
      "stateMutability": "view",
      "type": "function"
    },
    {
      "inputs": [],
      "name": "protocolTreasury",
      "outputs": [
        {
          "internalType": "address",
          "name": "",
          "type": "address"
        }
      ],
      "stateMutability": "view",
      "type": "function"
    },
    {
      "inputs": [
        {
          "internalType": "address",
          "name": "token",
          "type": "address"
        },
        {
          "internalType": "uint256",
          "name": "totalInterest",
          "type": "uint256"
        }
      ],
      "name": "rebalanceYield",
      "outputs": [],
      "stateMutability": "nonpayable",
      "type": "function"
    },
    {
      "inputs": [],
      "name": "renounceOwnership",
      "outputs": [],
      "stateMutability": "nonpayable",
      "type": "function"
    },
    {
      "inputs": [],
      "name": "safetyModule",
      "outputs": [
        {
          "internalType": "address",
          "name": "",
          "type": "address"
        }
      ],
      "stateMutability": "view",
      "type": "function"
    },
    {
      "inputs": [
        {
          "internalType": "address",
          "name": "_timelock",
          "type": "address"
        }
      ],
      "name": "setGovernanceTimelock",
      "outputs": [],
      "stateMutability": "nonpayable",
      "type": "function"
    },
    {
      "inputs": [
        {
          "internalType": "address",
          "name": "token",
          "type": "address"
        },
        {
          "components": [
            {
              "internalType": "address",
              "name": "loanToken",
              "type": "address"
            },
            {
              "internalType": "address",
              "name": "collateralToken",
              "type": "address"
            },
            {
              "internalType": "address",
              "name": "oracle",
              "type": "address"
            },
            {
              "internalType": "address",
              "name": "irm",
              "type": "address"
            },
            {
              "internalType": "uint256",
              "name": "lltv",
              "type": "uint256"
            }
          ],
          "internalType": "struct IMorpho.MarketParams",
          "name": "params",
          "type": "tuple"
        }
      ],
      "name": "setMorphoMarket",
      "outputs": [],
      "stateMutability": "nonpayable",
      "type": "function"
    },
    {
      "inputs": [
        {
          "internalType": "address",
          "name": "_treasury",
          "type": "address"
        }
      ],
      "name": "setProtocolTreasury",
      "outputs": [],
      "stateMutability": "nonpayable",
      "type": "function"
    },
    {
      "inputs": [
        {
          "internalType": "address",
          "name": "_module",
          "type": "address"
        }
      ],
      "name": "setSafetyModule",
      "outputs": [],
      "stateMutability": "nonpayable",
      "type": "function"
    },
    {
      "inputs": [
        {
          "internalType": "enum YieldManager.Strategy",
          "name": "strategy",
          "type": "uint8"
        },
        {
          "internalType": "address",
          "name": "pool",
          "type": "address"
        },
        {
          "internalType": "bool",
          "name": "active",
          "type": "bool"
        }
      ],
      "name": "setStrategy",
      "outputs": [],
      "stateMutability": "nonpayable",
      "type": "function"
    },
    {
      "inputs": [
        {
          "internalType": "enum YieldManager.Strategy",
          "name": "",
          "type": "uint8"
        }
      ],
      "name": "strategies",
      "outputs": [
        {
          "internalType": "address",
          "name": "pool",
          "type": "address"
        },
        {
          "internalType": "bool",
          "name": "active",
          "type": "bool"
        }
      ],
      "stateMutability": "view",
      "type": "function"
    },
    {
      "inputs": [
        {
          "internalType": "address",
          "name": "newOwner",
          "type": "address"
        }
      ],
      "name": "transferOwnership",
      "outputs": [],
      "stateMutability": "nonpayable",
      "type": "function"
    },
    {
      "inputs": [
        {
          "internalType": "enum YieldManager.Strategy",
          "name": "strategy",
          "type": "uint8"
        },
        {
          "internalType": "address",
          "name": "token",
          "type": "address"
        },
        {
          "internalType": "uint256",
          "name": "amount",
          "type": "uint256"
        },
        {
          "internalType": "address",
          "name": "receiver",
          "type": "address"
        }
      ],
      "name": "withdraw",
      "outputs": [],
      "stateMutability": "nonpayable",
      "type": "function"
    },
    {
      "inputs": [
        {
          "internalType": "address",
          "name": "token",
          "type": "address"
        },
        {
          "internalType": "uint256",
          "name": "amount",
          "type": "uint256"
        },
        {
          "internalType": "address",
          "name": "recipient",
          "type": "address"
        }
      ],
      "name": "withdrawSurplus",
      "outputs": [],
      "stateMutability": "nonpayable",
      "type": "function"
    }
  ],
  "bytecode": "0x6080346100b957601f61137638819003918201601f19168301916001600160401b038311848410176100bd578084926020946040528339810103126100b957516001600160a01b0390818116908190036100b95780156100a1575f80546001600160a01b03198116831782556040519316907f8be0079c531659141344cd1fd0a4f28419497f9722a3daafe3b4186f6b6457e09080a36112a490816100d28239f35b604051631e4fbdf760e01b81525f6004820152602490fd5b5f80fd5b634e487b7160e01b5f52604160045260245ffdfe604060808152600480361015610013575f80fd5b5f3560e01c8062838172146108fd5780630c5a61f8146108a95780630f45ec1a1461083e57806318ac8a5e1461078657806332d508d51461061f5780634277bc19146105d9578063609db66b1461049b5780636169f0011461044b578063667316e914610400578063715018a6146103bc578063803db96d14610394578063870a2215146103785780638da5cb5b1461035157806393527f24146103235780639a1fdd79146102fb578063b12b07ce146102df578063babb186a146102a8578063bef3a06f14610280578063c06156071461022d578063df04c3da146101755763f2fde38b14610101575f80fd5b346101715760203660031901126101715761011a610944565b906101236111c4565b6001600160a01b0391821692831561015b5750505f548260018060a01b03198216175f55165f8051602061124f8339815191525f80a3005b905f6024925191631e4fbdf760e01b8352820152fd5b5f80fd5b50346101715760c03660031901126101715761018f610944565b9160a0366023190112610171576101a46111c4565b6001600160a01b039283165f9081526002602052209160243580821691908290036101715783546001600160a01b031990811690921784556001840160443582811690819003610171578382541617905560028401606435828116809103610171578382541617905560038401916084359182168092036101715782541617905560a435910155005b503461017157602036600319011261017157610247610944565b61024f6111c4565b6001600160a01b031691821561027357600580546001600160a01b03191684179055005b5163d92e233d60e01b8152fd5b8234610171575f3660031901126101715760035490516001600160a01b039091168152602090f35b8234610171576020366003190112610171576020906001600160a01b036102cd610944565b165f5260068252805f20549051908152f35b8234610171575f36600319011261017157602090516107d08152f35b8234610171575f3660031901126101715760055490516001600160a01b039091168152602090f35b8234610171575f366003190112610171576020905173794a6135d5a5b64ebceeb42779aa57c0b5b4814a8152f35b8234610171575f366003190112610171575f5490516001600160a01b039091168152602090f35b8234610171575f36600319011261017157602090516101f48152f35b509034610171575f36600319011261017157905490516001600160a01b039091168152602090f35b34610171575f366003190112610171576103d46111c4565b5f80546001600160a01b0319811682556001600160a01b03165f8051602061124f8339815191528280a3005b50903461017157602036600319011261017157813591821015610171576104296104479261095a565b54905191829160a081901c60ff16906001600160a01b031683610985565b0390f35b5034610171576080366003190112610171578035908110156101715761046f61092e565b90606435906001600160a01b038216820361017157610499926104906111c4565b60443591610e5d565b005b50346101715760603660031901126101715780359080821015610171576104c061092e565b6044359182151590818403610171576104d76111c4565b83806105c8575b6105ba5760ff6104ed8661095a565b5460a01c168061059b575b80610594575b610586575084610581917fd94bbb05b34b64d9a1de27cd2950e2d51a730959e03796afa323bb49e26b537495965190610536826109a0565b6001600160a01b038581168352602083019182526105538961095a565b9251835492516001600160a81b031990931691161790151560a01b60ff60a01b161790555192839283610985565b0390a2005b855163c976754d60e01b8152fd5b50836104fe565b506001600160a01b03806105ae8761095a565b541690841614156104f8565b855163d92e233d60e01b8152fd5b506001600160a01b038316156104de565b5034610171576020366003190112610171576105f3610944565b6105fb6111c4565b6001600160a01b031691821561027357600380546001600160a01b03191684179055005b509034610171578060031936011261017157610639610944565b906024356106456111c4565b8015610776576101f48102906101f3198183040161076357612710809204916107d08083029083820403610750579161068661068b92859404938492610e3c565b610e3c565b5060018060a01b0380941693845f526006602052835f2095865483810180911161073d577ffc052fbecbe5fad9af60a0ad6e732c2b5b9506d327d872ed888c93d90ca9257f96975581600354168481151580610734575b610723575b50505416818115158061071a575b610709575b505082519182526020820152a2005b61071391876111ef565b5f816106fa565b508015156106f5565b61072d91896111ef565b5f846106e7565b508015156106e2565b601182634e487b7160e01b5f525260245ffd5b601187634e487b7160e01b5f525260245ffd5b601185634e487b7160e01b5f525260245ffd5b81516345a76bc560e11b81528490fd5b509034610171576060366003190112610171576107a1610944565b6044356001600160a01b03818116949193602435939092868603610171578260055416330361083057861561082257509161081b847fa8e0fb52fdef0c6ce97b929846b05224eeb76153cd6fbae4b479d6e868d8132495936020951696875f5260068652835f20610813838254610e3c565b9055876111ef565b51908152a3005b835163d92e233d60e01b8152fd5b83516307c8db8d60e01b8152fd5b5090346101715760203660031901126101715760a0916001600160a01b0380610865610944565b165f526002602052825f2090808254169381600184015416938260028501541692600385015416930154938151958652602086015284015260608301526080820152f35b509034610171576020366003190112610171576108c4610944565b6108cc6111c4565b6001600160a01b03169081156108ee575081546001600160a01b031916179055005b5163d92e233d60e01b81529050fd5b503461017157606036600319011261017157803590811015610171576104999061092561092e565b60443591610a8c565b602435906001600160a01b038216820361017157565b600435906001600160a01b038216820361017157565b6004811015610971575f52600160205260405f2090565b634e487b7160e01b5f52602160045260245ffd5b6001600160a01b039091168152901515602082015260400190565b604081019081106001600160401b038211176109bb57604052565b634e487b7160e01b5f52604160045260245ffd5b60a081019081106001600160401b038211176109bb57604052565b6001600160401b0381116109bb57604052565b601f909101601f19168101906001600160401b038211908210176109bb57604052565b9190826040910312610171576020825192015190565b6080809160018060a01b0380825116855280602083015116602086015280604083015116604086015260608201511660608501520151910152565b6001600160a01b039091168152602081019190915260400190565b90916004905f82841015610e29578315610e2257610aa98461095a565b604091825191610ab8836109a0565b549460018060a01b0397888716845260ff60209760a01c1615801588860152610e1357888116988994610aed8830338961113b565b868282511681519063095ea7b360e01b91825f528188528c8c60249b8c9182528a835f60448180865af1856001998a5f5114831615610e04575b5215610d4b575b505050505050505f93818c145f14610bf25750505116803b15610bee5783809160848c8951948593849263617ba03760e01b8452898401528c8b8401523060448401528160648401525af18015610be457908491610bcc575b50505b610bbc57505050907f1e6486fdc8ce35cea5c5f4b53956e3baef85a7a3ce672787efbb76c5b0197717929151908152a3565b634e487b7160e01b825260219052fd5b610bd5906109ea565b610be057825f610b87565b8280fd5b86513d86823e3d90fd5b8380fd5b5f94509291908860028d03610c605750505116803b1561017157875f91610c2e93838a51809681958294631e573fb760e31b84528b8401610a71565b03925af18015610c5657610c43575b50610b8a565b610c4e9193506109ea565b5f915f610c3d565b86513d5f823e3d90fd5b92945092508b5f9460038d14610c7b575b5050505050610b8a565b610ce792610144925f5260028d52878d865f209084885199610c9c8b6109cf565b835482168b52830154169089015260028101548416878901526003810154841660608901520154608087015251845163a99aad8960e01b815295869485935f9316918a850190610a36565b8c60a48401528160c48401523060e4840152610120610104840152816101248401525af18015610c5657610d1f575b85818b81610c71565b610d3e90863d8811610d44575b610d3681836109fd565b810190610a20565b50610d16565b503d610d2c565b5f6044928180958982958c845252525af1845f5114811615610def575b818c5215610ddb57505f60448f828f94918f8f8f90948e8596519a865252525af1825f5114811615610dbd575b818a5215610da95780808c8f8b908a610b2e565b635274afe760e01b81528581018d90528790fd5b82811516610dd2578d3b15153d151616610d95565b503d5f823e3d90fd5b635274afe760e01b81528781018f90528990fd5b84811516610dd2578f3b15153d151616610d68565b91843b15153d15161691610b27565b508351630baddc3d60e11b8152fd5b5050505050565b602183634e487b7160e01b5f525260245ffd5b91908203918211610e4957565b634e487b7160e01b5f52601160045260245ffd5b9093925f6004958684101561112857831561110a57610e7b8461095a565b9160409088825194610e8c866109a0565b549560018060a01b0395868816815260ff60209860a01c16158015898301526110fa578686858c8c96958c9560015f99145f14610f81576064949392918680925116928c51998a988997631a4ca37b60e21b8952169087015260248601521660448401525af18015610f7757908791610f4a575b50505b610f3757507ff59e869f7aa517963e68031c9815819a6ec6f52bf5608171f37079200c649c8e9495969750519586521693a3565b634e487b7160e01b815260218952602490fd5b813d8311610f70575b610f5d81836109fd565b81010312610f6c57855f610f00565b5080fd5b503d610f53565b84513d85823e3d90fd5b949591509596508891508c925f97600285145f146110145750505050505116803b15610171575f8a610fcb92888f84908a519687958694859363f3fef3a360e01b85528401610a71565b03925af1801561100a57908a9291610ff1575b5090610fec918787166111ef565b610f03565b909350610ffe91506109ea565b5f918890610fec610fde565b85513d5f823e3d90fd5b92958f9194985060035f9693969914611035575b5050505050505050610f03565b6110a397815f94816101249816865260028952868a87208b519a6110588c6109cf565b848254168c5284600183015416908c0152836002820154168c8c01528360038201541660608c0152015460808a01525116928851998a988997635c2bea4960e01b8952880190610a36565b60a48601528360c48601523060e4860152166101048401525af180156110f0576110d4575b8387868d848d8b611028565b6110ea90843d8611610d4457610d3681836109fd565b506110c8565b84513d5f823e3d90fd5b8451630baddc3d60e11b81528390fd5b9495506111269491925033916001600160a01b0316905061113b565b565b602187634e487b7160e01b5f525260245ffd5b6040516323b872dd60e01b5f9081526001600160a01b03938416600452938316602452604494909452909160209060648180855af160015f51148116156111a5575b836040525f6060521561118f57505050565b635274afe760e01b835216600482015260249150fd5b60018115166111bb57813b15153d15161661117d565b833d5f823e3d90fd5b5f546001600160a01b031633036111d757565b60405163118cdaa760e01b8152336004820152602490fd5b60405163a9059cbb60e01b5f9081526001600160a01b039384166004526024949094529260209060448180855af160015f5114811615611238575b836040521561118f57505050565b60018115166111bb57813b15153d15161661122a56fe8be0079c531659141344cd1fd0a4f28419497f9722a3daafe3b4186f6b6457e0a2646970667358221220174102bfc28d55d9e6d493957254841625d6c82805703768d42540c7a7c511cc64736f6c63430008180033",
  "linkReferences": {},
  "deployedLinkReferences": {}
}