{
  "_format": "hh-sol-artifact-1",
  "contractName": "YieldManager",
  "sourceName": "contracts/YieldManager.sol",
  "abi": [
    {
      "inputs": [
        {
          "internalType": "address",
          "name": "_owner",
          "type": "address"
        }
      ],
      "stateMutability": "nonpayable",
      "type": "constructor"
    },
    {
      "inputs": [
        {
          "internalType": "address",
          "name": "owner",
          "type": "address"
        }
      ],
      "name": "OwnableInvalidOwner",
      "type": "error"
    },
    {
      "inputs": [
        {
          "internalType": "address",
          "name": "account",
          "type": "address"
        }
      ],
      "name": "OwnableUnauthorizedAccount",
      "type": "error"
    },
    {
      "inputs": [
        {
          "internalType": "address",
          "name": "token",
          "type": "address"
        }
      ],
      "name": "SafeERC20FailedOperation",
      "type": "error"
    },
    {
      "inputs": [],
      "name": "StrategyInactive",
      "type": "error"
    },
    {
      "inputs": [],
      "name": "SurplusLockedByTimelock",
      "type": "error"
    },
    {
      "inputs": [],
      "name": "ZeroAddress",
      "type": "error"
    },
    {
      "inputs": [],
      "name": "ZeroInterest",
      "type": "error"
    },
    {
      "anonymous": false,
      "inputs": [
        {
          "indexed": true,
          "internalType": "address",
          "name": "previousOwner",
          "type": "address"
        },
        {
          "indexed": true,
          "internalType": "address",
          "name": "newOwner",
          "type": "address"
        }
      ],
      "name": "OwnershipTransferred",
      "type": "event"
    },
    {
      "anonymous": false,
      "inputs": [
        {
          "indexed": true,
          "internalType": "enum YieldManager.Strategy",
          "name": "strategy",
          "type": "uint8"
        },
        {
          "indexed": false,
          "internalType": "address",
          "name": "pool",
          "type": "address"
        },
        {
          "indexed": false,
          "internalType": "bool",
          "name": "active",
          "type": "bool"
        }
      ],
      "name": "StrategyUpdated",
      "type": "event"
    },
    {
      "anonymous": false,
      "inputs": [
        {
          "indexed": true,
          "internalType": "address",
          "name": "token",
          "type": "address"
        },
        {
          "indexed": false,
          "internalType": "uint256",
          "name": "amount",
          "type": "uint256"
        },
        {
          "indexed": true,
          "internalType": "address",
          "name": "recipient",
          "type": "address"
        }
      ],
      "name": "SurplusWithdrawn",
      "type": "event"
    },
    {
      "anonymous": false,
      "inputs": [
        {
          "indexed": true,
          "internalType": "enum YieldManager.Strategy",
          "name": "strategy",
          "type": "uint8"
        },
        {
          "indexed": true,
          "internalType": "address",
          "name": "token",
          "type": "address"
        },
        {
          "indexed": false,
          "internalType": "uint256",
          "name": "amount",
          "type": "uint256"
        }
      ],
      "name": "YieldDeposited",
      "type": "event"
    },
    {
      "anonymous": false,
      "inputs": [
        {
          "indexed": true,
          "internalType": "address",
          "name": "token",
          "type": "address"
        },
        {
          "indexed": false,
          "internalType": "uint256",
          "name": "totalInterest",
          "type": "uint256"
        },
        {
          "indexed": false,
          "internalType": "uint256",
          "name": "safetyDiverted",
          "type": "uint256"
        },
        {
          "indexed": false,
          "internalType": "uint256",
          "name": "protocolSurplus",
          "type": "uint256"
        },
        {
          "indexed": false,
          "internalType": "uint256",
          "name": "userYield",
          "type": "uint256"
        }
      ],
      "name": "YieldRebalanced",
      "type": "event"
    },
    {
      "anonymous": false,
      "inputs": [
        {
          "indexed": true,
          "internalType": "enum YieldManager.Strategy",
          "name": "strategy",
          "type": "uint8"
        },
        {
          "indexed": true,
          "internalType": "address",
          "name": "token",
          "type": "address"
        },
        {
          "indexed": false,
          "internalType": "uint256",
          "name": "amount",
          "type": "uint256"
        }
      ],
      "name": "YieldWithdrawn",
      "type": "event"
    },
    {
      "inputs": [],
      "name": "AAVE_V3_POLYGON_MAINNET",
      "outputs": [
        {
          "internalType": "address",
          "name": "",
          "type": "address"
        }
      ],
      "stateMutability": "view",
      "type": "function"
    },
    {
      "inputs": [],
      "name": "PROTOCOL_GRAVITY_BPS",
      "outputs": [
        {
          "internalType": "uint256",
          "name": "",
          "type": "uint256"
        }
      ],
      "stateMutability": "view",
      "type": "function"
    },
    {
      "inputs": [],
      "name": "SAFETY_GRAVITY_BPS",
      "outputs": [
        {
          "internalType": "uint256",
          "name": "",
          "type": "uint256"
        }
      ],
      "stateMutability": "view",
      "type": "function"
    },
    {
      "inputs": [],
      "name": "accruedSurplus",
      "outputs": [
        {
          "internalType": "uint256",
          "name": "",
          "type": "uint256"
        }
      ],
      "stateMutability": "view",
      "type": "function"
    },
    {
      "inputs": [
        {
          "internalType": "enum YieldManager.Strategy",
          "name": "strategy",
          "type": "uint8"
        },
        {
          "internalType": "address",
          "name": "token",
          "type": "address"
        },
        {
          "internalType": "uint256",
          "name": "amount",
          "type": "uint256"
        }
      ],
      "name": "deposit",
      "outputs": [],
      "stateMutability": "nonpayable",
      "type": "function"
    },
    {
      "inputs": [],
      "name": "governanceTimelock",
      "outputs": [
        {
          "internalType": "address",
          "name": "",
          "type": "address"
        }
      ],
      "stateMutability": "view",
      "type": "function"
    },
    {
      "inputs": [
        {
          "internalType": "address",
          "name": "",
          "type": "address"
        }
      ],
      "name": "morphoMarkets",
      "outputs": [
        {
          "internalType": "address",
          "name": "loanToken",
          "type": "address"
        },
        {
          "internalType": "address",
          "name": "collateralToken",
          "type": "address"
        },
        {
          "internalType": "address",
          "name": "oracle",
          "type": "address"
        },
        {
          "internalType": "address",
          "name": "irm",
          "type": "address"
        },
        {
          "internalType": "uint256",
          "name": "lltv",
          "type": "uint256"
        }
      ],
      "stateMutability": "view",
      "type": "function"
    },
    {
      "inputs": [],
      "name": "owner",
      "outputs": [
        {
          "internalType": "address",
          "name": "",
          "type": "address"
        }
      ],
      "stateMutability": "view",
      "type": "function"
    },
    {
      "inputs": [],
      "name": "protocolTreasury",
      "outputs": [
        {
          "internalType": "address",
          "name": "",
          "type": "address"
        }
      ],
      "stateMutability": "view",
      "type": "function"
    },
    {
      "inputs": [
        {
          "internalType": "address",
          "name": "token",
          "type": "address"
        },
        {
          "internalType": "uint256",
          "name": "totalInterest",
          "type": "uint256"
        }
      ],
      "name": "rebalanceYield",
      "outputs": [],
      "stateMutability": "nonpayable",
      "type": "function"
    },
    {
      "inputs": [],
      "name": "renounceOwnership",
      "outputs": [],
      "stateMutability": "nonpayable",
      "type": "function"
    },
    {
      "inputs": [],
      "name": "safetyModule",
      "outputs": [
        {
          "internalType": "address",
          "name": "",
          "type": "address"
        }
      ],
      "stateMutability": "view",
      "type": "function"
    },
    {
      "inputs": [
        {
          "internalType": "address",
          "name": "_timelock",
          "type": "address"
        }
      ],
      "name": "setGovernanceTimelock",
      "outputs": [],
      "stateMutability": "nonpayable",
      "type": "function"
    },
    {
      "inputs": [
        {
          "internalType": "address",
          "name": "token",
          "type": "address"
        },
        {
          "components": [
            {
              "internalType": "address",
              "name": "loanToken",
              "type": "address"
            },
            {
              "internalType": "address",
              "name": "collateralToken",
              "type": "address"
            },
            {
              "internalType": "address",
              "name": "oracle",
              "type": "address"
            },
            {
              "internalType": "address",
              "name": "irm",
              "type": "address"
            },
            {
              "internalType": "uint256",
              "name": "lltv",
              "type": "uint256"
            }
          ],
          "internalType": "struct IMorpho.MarketParams",
          "name": "params",
          "type": "tuple"
        }
      ],
      "name": "setMorphoMarket",
      "outputs": [],
      "stateMutability": "nonpayable",
      "type": "function"
    },
    {
      "inputs": [
        {
          "internalType": "address",
          "name": "_treasury",
          "type": "address"
        }
      ],
      "name": "setProtocolTreasury",
      "outputs": [],
      "stateMutability": "nonpayable",
      "type": "function"
    },
    {
      "inputs": [
        {
          "internalType": "address",
          "name": "_module",
          "type": "address"
        }
      ],
      "name": "setSafetyModule",
      "outputs": [],
      "stateMutability": "nonpayable",
      "type": "function"
    },
    {
      "inputs": [
        {
          "internalType": "enum YieldManager.Strategy",
          "name": "strategy",
          "type": "uint8"
        },
        {
          "internalType": "address",
          "name": "pool",
          "type": "address"
        },
        {
          "internalType": "bool",
          "name": "active",
          "type": "bool"
        }
      ],
      "name": "setStrategy",
      "outputs": [],
      "stateMutability": "nonpayable",
      "type": "function"
    },
    {
      "inputs": [
        {
          "internalType": "enum YieldManager.Strategy",
          "name": "",
          "type": "uint8"
        }
      ],
      "name": "strategies",
      "outputs": [
        {
          "internalType": "address",
          "name": "pool",
          "type": "address"
        },
        {
          "internalType": "bool",
          "name": "active",
          "type": "bool"
        }
      ],
      "stateMutability": "view",
      "type": "function"
    },
    {
      "inputs": [
        {
          "internalType": "address",
          "name": "newOwner",
          "type": "address"
        }
      ],
      "name": "transferOwnership",
      "outputs": [],
      "stateMutability": "nonpayable",
      "type": "function"
    },
    {
      "inputs": [
        {
          "internalType": "enum YieldManager.Strategy",
          "name": "strategy",
          "type": "uint8"
        },
        {
          "internalType": "address",
          "name": "token",
          "type": "address"
        },
        {
          "internalType": "uint256",
          "name": "amount",
          "type": "uint256"
        },
        {
          "internalType": "address",
          "name": "receiver",
          "type": "address"
        }
      ],
      "name": "withdraw",
      "outputs": [],
      "stateMutability": "nonpayable",
      "type": "function"
    },
    {
      "inputs": [
        {
          "internalType": "address",
          "name": "token",
          "type": "address"
        },
        {
          "internalType": "uint256",
          "name": "amount",
          "type": "uint256"
        },
        {
          "internalType": "address",
          "name": "recipient",
          "type": "address"
        }
      ],
      "name": "withdrawSurplus",
      "outputs": [],
      "stateMutability": "nonpayable",
      "type": "function"
    }
  ],
  "bytecode": "0x6080346100b957601f61130a38819003918201601f19168301916001600160401b038311848410176100bd578084926020946040528339810103126100b957516001600160a01b0390818116908190036100b95780156100a1575f80546001600160a01b03198116831782556040519316907f8be0079c531659141344cd1fd0a4f28419497f9722a3daafe3b4186f6b6457e09080a361123890816100d28239f35b604051631e4fbdf760e01b81525f6004820152602490fd5b5f80fd5b634e487b7160e01b5f52604160045260245ffdfe604060808152600480361015610013575f80fd5b5f3560e01c8062838172146108ab5780630c5a61f8146108575780630f45ec1a146107ec57806318ac8a5e1461073c57806332d508d5146105d05780634277bc191461058a578063609db66b146104b75780636169f0011461046f578063667316e914610419578063715018a6146103c25780637db22fd6146103a4578063803db96d1461037c578063870a2215146103605780638da5cb5b1461033957806393527f241461030b5780639a1fdd79146102e3578063b12b07ce146102c7578063bef3a06f1461029f578063c06156071461024c578063df04c3da146101905763f2fde38b14610101575f80fd5b3461018c57602036600319011261018c5761011a6108f2565b90610123611178565b6001600160a01b039182169283156101765750505f54826bffffffffffffffffffffffff60a01b8216175f55167f8be0079c531659141344cd1fd0a4f28419497f9722a3daafe3b4186f6b6457e05f80a3005b905f6024925191631e4fbdf760e01b8352820152fd5b5f80fd5b503461018c5760c036600319011261018c576101aa6108f2565b9160a036602319011261018c576101bf611178565b6001600160a01b039283165f90815260026020522091602435808216919082900361018c576bffffffffffffffffffffffff60a01b91828554161784556001840160443582811680910361018c57838254161790556002840160643582811680910361018c5783825416179055600384019160843591821680920361018c5782541617905560a435910155005b503461018c57602036600319011261018c576102666108f2565b61026e611178565b6001600160a01b031691821561029257600580546001600160a01b03191684179055005b5163d92e233d60e01b8152fd5b823461018c575f36600319011261018c5760035490516001600160a01b039091168152602090f35b823461018c575f36600319011261018c57602090516107d08152f35b823461018c575f36600319011261018c5760055490516001600160a01b039091168152602090f35b823461018c575f36600319011261018c576020905173794a6135d5a5b64ebceeb42779aa57c0b5b4814a8152f35b823461018c575f36600319011261018c575f5490516001600160a01b039091168152602090f35b823461018c575f36600319011261018c57602090516101f48152f35b50903461018c575f36600319011261018c57905490516001600160a01b039091168152602090f35b823461018c575f36600319011261018c576020906006549051908152f35b3461018c575f36600319011261018c576103da611178565b5f80546001600160a01b0319811682556001600160a01b03167f8be0079c531659141344cd1fd0a4f28419497f9722a3daafe3b4186f6b6457e08280a3005b50903461018c57602036600319011261018c5781359182101561018c5761044261046b92610908565b5490516001600160a01b038216815260a09190911c60ff16151560208201529081906040820190565b0390f35b503461018c57608036600319011261018c5780359081101561018c576104936108dc565b90606435906001600160a01b038216820361018c576104b59260443591610de0565b005b50903461018c57606036600319011261018c5781359182101561018c576104dc6108dc565b6044359081151580830361018c577fd94bbb05b34b64d9a1de27cd2950e2d51a730959e03796afa323bb49e26b53749361058591610518611178565b81519061052482610933565b6001600160a01b0385811683526020830191825261054189610908565b9251835492516001600160a81b031990931691161790151560a01b60ff60a01b16179055516001600160a01b03909216825291151560208201529081906040820190565b0390a2005b503461018c57602036600319011261018c576105a46108f2565b6105ac611178565b6001600160a01b031691821561029257600380546001600160a01b03191684179055005b503461018c578160031936011261018c576105e96108f2565b602435926105f5611178565b831561072d576101f48402906101f3198583040161071a57612710809204916107d08087029087820403610707570490610638826106338589610dbf565b610dbf565b926006548381018091116106f4579160809593917fe818399d93c9eb5f6a5a5504d970c5587b5b1c475f33a4c5f5d29414b1747f7897959360065560018060a01b038096816003541683811515806106eb575b6106d8575b5050541683811515806106cf575b6106bc575b50508151988952602089015287015260608601521692a2005b6106c8918888166111a3565b5f836106a3565b5080151561069e565b6106e491848a166111a3565b5f83610690565b5080151561068b565b601187634e487b7160e01b5f525260245ffd5b601186634e487b7160e01b5f525260245ffd5b601184634e487b7160e01b5f525260245ffd5b516345a76bc560e11b81529050fd5b50903461018c57606036600319011261018c576107576108f2565b6044356001600160a01b0381811694919360243593909286860361018c57826005541633036107de5786156107d05750916107c98480936020956107be7fa8e0fb52fdef0c6ce97b929846b05224eeb76153cd6fbae4b479d6e868d8132498600654610dbf565b6006551696876111a3565b51908152a3005b835163d92e233d60e01b8152fd5b83516307c8db8d60e01b8152fd5b50903461018c57602036600319011261018c5760a0916001600160a01b03806108136108f2565b165f526002602052825f2090808254169381600184015416938260028501541692600385015416930154938151958652602086015284015260608301526080820152f35b50903461018c57602036600319011261018c576108726108f2565b61087a611178565b6001600160a01b031690811561089c575081546001600160a01b031916179055005b5163d92e233d60e01b81529050fd5b503461018c57606036600319011261018c5780359081101561018c576104b5906108d36108dc565b604435916109cb565b602435906001600160a01b038216820361018c57565b600435906001600160a01b038216820361018c57565b600481101561091f575f52600160205260405f2090565b634e487b7160e01b5f52602160045260245ffd5b6040810190811067ffffffffffffffff82111761094f57604052565b634e487b7160e01b5f52604160045260245ffd5b60a0810190811067ffffffffffffffff82111761094f57604052565b67ffffffffffffffff811161094f57604052565b90601f8019910116810190811067ffffffffffffffff82111761094f57604052565b919082604091031261018c576020825192015190565b90916004905f82841015610dac578315610da5576109e884610908565b6040918251916109f783610933565b549460018060a01b0397888716845260ff60209760a01c1615801588860152610d9657888116988994610a2c883033896110ef565b868282511681519063095ea7b360e01b91825f528188528c8c60249b8c9182528a835f60448180865af1856001998a5f5114831615610d87575b5215610cce575b505050505050505f93818c145f14610b315750505116803b15610b2d5783809160848c8951948593849263617ba03760e01b8452898401528c8b8401523060448401528160648401525af18015610b2357908491610b0b575b50505b610afb57505050907f1e6486fdc8ce35cea5c5f4b53956e3baef85a7a3ce672787efbb76c5b0197717929151908152a3565b634e487b7160e01b825260219052fd5b610b149061097f565b610b1f57825f610ac6565b8280fd5b86513d86823e3d90fd5b8380fd5b5f94509291908860028d03610bae5750505116803b1561018c578651631e573fb760e31b81526001600160a01b03909216848301908152602081018990525f91839182908490829060400103925af18015610ba457610b91575b50610ac9565b610b9c91935061097f565b5f915f610b8b565b86513d5f823e3d90fd5b92945092508b5f9460038d14610bc9575b5050505050610ac9565b610c6a92610144925f5260028d52878d865f209084885199610bea8b610963565b818454168b5283015416908901528360028201541687890152836003820154166060890152015460808701525116935f8451958694859363a99aad8960e01b85528a8501906080809160018060a01b0380825116855280602083015116602086015280604083015116604086015260608201511660608501520151910152565b8c60a48401528160c48401523060e4840152610120610104840152816101248401525af18015610ba457610ca2575b85818b81610bbf565b610cc190863d8811610cc7575b610cb98183610993565b8101906109b5565b50610c99565b503d610caf565b5f6044928180958982958c845252525af1845f5114811615610d72575b818c5215610d5e57505f60448f828f94918f8f8f90948e8596519a865252525af1825f5114811615610d40575b818a5215610d2c5780808c8f8b908a610a6d565b635274afe760e01b81528581018d90528790fd5b82811516610d55578d3b15153d151616610d18565b503d5f823e3d90fd5b635274afe760e01b81528781018f90528990fd5b84811516610d55578f3b15153d151616610ceb565b91843b15153d15161691610a66565b508351630baddc3d60e11b8152fd5b5050505050565b602183634e487b7160e01b5f525260245ffd5b91908203918211610dcc57565b634e487b7160e01b5f52601160045260245ffd5b6004949390915f868410156110dc5783156110bf579060ff9291610e0385610908565b908589604093845190610e1582610933565b549086858c60018060a01b039a8b94858716815260209d8e9760a01c1615158782015260015f99145f14610f01576064949392918680925116928c51998a988997631a4ca37b60e21b8952169087015260248601521660448401525af18015610ef757908791610eca575b50505b610eb757507ff59e869f7aa517963e68031c9815819a6ec6f52bf5608171f37079200c649c8e9495969750519586521693a3565b634e487b7160e01b815260218952602490fd5b813d8311610ef0575b610edd8183610993565b81010312610eec57855f610e80565b5080fd5b503d610ed3565b84513d85823e3d90fd5b949591509596508891508c925f97600285145f14610fa35750505050505116803b1561018c57845163f3fef3a360e01b81526001600160a01b038716818e01908152602081018c905290915f9183919082908490829060400103925af18015610f9957908a9291610f80575b5090610f7b918787166111a3565b610e83565b909350610f8d915061097f565b5f918890610f7b610f6d565b85513d5f823e3d90fd5b92958f9194985060035f9693969914610fc4575b5050505050505050610e83565b61106897815f94816101249816865260028952868a87208b519a610fe78c610963565b848254168c5284600183015416908c0152836002820154168c8c01528360038201541660608c0152015460808a01525116928851998a988997635c2bea4960e01b89528801906080809160018060a01b0380825116855280602083015116602086015280604083015116604086015260608201511660608501520151910152565b60a48601528360c48601523060e4860152166101048401525af180156110b557611099575b8387868d848d8b610fb7565b6110af90843d8611610cc757610cb98183610993565b5061108d565b84513d5f823e3d90fd5b509394506110da9390915033906001600160a01b03166110ef565b565b602187634e487b7160e01b5f525260245ffd5b6040516323b872dd60e01b5f9081526001600160a01b03938416600452938316602452604494909452909160209060648180855af160015f5114811615611159575b836040525f6060521561114357505050565b635274afe760e01b835216600482015260249150fd5b600181151661116f57813b15153d151616611131565b833d5f823e3d90fd5b5f546001600160a01b0316330361118b57565b60405163118cdaa760e01b8152336004820152602490fd5b60405163a9059cbb60e01b5f9081526001600160a01b039384166004526024949094529260209060448180855af160015f51148116156111ec575b836040521561114357505050565b600181151661116f57813b15153d1516166111de56fea2646970667358221220692d559aa41c8a234d3382c8bbe7192a31b3095658604773503ebaa0c047840164736f6c63430008180033",
  "linkReferences": {},
  "deployedLinkReferences": {}
}